{
	"tokenweb3.sol": {
		"web3ClubsToken": {
			"abi": [
				{
					"inputs": [
						{
							"internalType": "uint256",
							"name": "_totalSupply",
							"type": "uint256"
						}
					],
					"stateMutability": "nonpayable",
					"type": "constructor"
				},
				{
					"anonymous": false,
					"inputs": [
						{
							"indexed": true,
							"internalType": "address",
							"name": "_from",
							"type": "address"
						},
						{
							"indexed": true,
							"internalType": "address",
							"name": "_to",
							"type": "address"
						},
						{
							"indexed": false,
							"internalType": "uint256",
							"name": "_value",
							"type": "uint256"
						}
					],
					"name": "TRANSFER",
					"type": "event"
				},
				{
					"inputs": [],
					"name": "decimalFactor",
					"outputs": [
						{
							"internalType": "uint256",
							"name": "",
							"type": "uint256"
						}
					],
					"stateMutability": "view",
					"type": "function"
				},
				{
					"inputs": [],
					"name": "decimals",
					"outputs": [
						{
							"internalType": "uint256",
							"name": "",
							"type": "uint256"
						}
					],
					"stateMutability": "view",
					"type": "function"
				},
				{
					"inputs": [],
					"name": "symbol",
					"outputs": [
						{
							"internalType": "string",
							"name": "",
							"type": "string"
						}
					],
					"stateMutability": "view",
					"type": "function"
				},
				{
					"inputs": [],
					"name": "tokenName",
					"outputs": [
						{
							"internalType": "string",
							"name": "",
							"type": "string"
						}
					],
					"stateMutability": "view",
					"type": "function"
				},
				{
					"inputs": [],
					"name": "totalSupply",
					"outputs": [
						{
							"internalType": "uint256",
							"name": "",
							"type": "uint256"
						}
					],
					"stateMutability": "view",
					"type": "function"
				},
				{
					"inputs": [
						{
							"internalType": "address",
							"name": "_receiver",
							"type": "address"
						},
						{
							"internalType": "uint256",
							"name": "_amount",
							"type": "uint256"
						}
					],
					"name": "transfer",
					"outputs": [
						{
							"internalType": "bool",
							"name": "",
							"type": "bool"
						}
					],
					"stateMutability": "nonpayable",
					"type": "function"
				},
				{
					"inputs": [
						{
							"internalType": "address",
							"name": "_sender",
							"type": "address"
						},
						{
							"internalType": "address",
							"name": "_receiver",
							"type": "address"
						},
						{
							"internalType": "uint256",
							"name": "_amount",
							"type": "uint256"
						}
					],
					"name": "transferFrom",
					"outputs": [
						{
							"internalType": "bool",
							"name": "",
							"type": "bool"
						}
					],
					"stateMutability": "nonpayable",
					"type": "function"
				}
			],
			"devdoc": {
				"kind": "dev",
				"methods": {},
				"version": 1
			},
			"evm": {
				"assembly": "    /* \"tokenweb3.sol\":262:3528  contract web3ClubsToken {... */\n  mstore(0x40, 0x80)\n    /* \"tokenweb3.sol\":487:529  string public tokenName = \"web3ClubsToken\" */\n  mload(0x40)\n  dup1\n  0x40\n  add\n  0x40\n  mstore\n  dup1\n  0x0e\n  dup2\n  mstore\n  0x20\n  add\n  0x77656233436c756273546f6b656e000000000000000000000000000000000000\n  dup2\n  mstore\n  pop\n  0x00\n  swap1\n  dup2\n  tag_1\n  swap2\n  swap1\n  tag_2\n  jump\t// in\ntag_1:\n  pop\n    /* \"tokenweb3.sol\":536:564  string public symbol = \"WCT\" */\n  mload(0x40)\n  dup1\n  0x40\n  add\n  0x40\n  mstore\n  dup1\n  0x03\n  dup2\n  mstore\n  0x20\n  add\n  0x5743540000000000000000000000000000000000000000000000000000000000\n  dup2\n  mstore\n  pop\n  0x01\n  swap1\n  dup2\n  tag_3\n  swap2\n  swap1\n  tag_2\n  jump\t// in\ntag_3:\n  pop\n    /* \"tokenweb3.sol\":594:596  18 */\n  0x12\n    /* \"tokenweb3.sol\":571:596  uint public decimals = 18 */\n  0x02\n  sstore\n    /* \"tokenweb3.sol\":645:653  decimals */\n  sload(0x02)\n    /* \"tokenweb3.sol\":631:633  10 */\n  0x0a\n    /* \"tokenweb3.sol\":631:654  10 ** uint256(decimals) */\n  tag_4\n  swap2\n  swap1\n  tag_5\n  jump\t// in\ntag_4:\n    /* \"tokenweb3.sol\":603:654  uint public decimalFactor = 10 ** uint256(decimals) */\n  0x03\n  sstore\n    /* \"tokenweb3.sol\":697:710  decimalFactor */\n  sload(0x03)\n    /* \"tokenweb3.sol\":687:694  1000000 */\n  0x0f4240\n    /* \"tokenweb3.sol\":687:710  1000000 * decimalFactor */\n  tag_6\n  swap2\n  swap1\n  tag_7\n  jump\t// in\ntag_6:\n    /* \"tokenweb3.sol\":661:710  uint public totalSupply = 1000000 * decimalFactor */\n  0x04\n  sstore\n    /* \"tokenweb3.sol\":1170:1298  constructor(uint _totalSupply) public {... */\n  callvalue\n  dup1\n  iszero\n  tag_8\n  jumpi\n  0x00\n  dup1\n  revert\ntag_8:\n  pop\n  mload(0x40)\n  sub(codesize, bytecodeSize)\n  dup1\n  bytecodeSize\n  dup4\n  codecopy\n  dup2\n  dup2\n  add\n  0x40\n  mstore\n  dup2\n  add\n  swap1\n  tag_9\n  swap2\n  swap1\n  tag_10\n  jump\t// in\ntag_9:\n    /* \"tokenweb3.sol\":1242:1253  totalSupply */\n  sload(0x04)\n    /* \"tokenweb3.sol\":1219:1227  balances */\n  0x05\n    /* \"tokenweb3.sol\":1219:1239  balances[msg.sender] */\n  0x00\n    /* \"tokenweb3.sol\":1228:1238  msg.sender */\n  caller\n    /* \"tokenweb3.sol\":1219:1239  balances[msg.sender] */\n  0xffffffffffffffffffffffffffffffffffffffff\n  and\n  0xffffffffffffffffffffffffffffffffffffffff\n  and\n  dup2\n  mstore\n  0x20\n  add\n  swap1\n  dup2\n  mstore\n  0x20\n  add\n  0x00\n  keccak256\n    /* \"tokenweb3.sol\":1219:1253  balances[msg.sender] = totalSupply */\n  dup2\n  swap1\n  sstore\n  pop\n    /* \"tokenweb3.sol\":1279:1290  totalSupply */\n  sload(0x04)\n    /* \"tokenweb3.sol\":1264:1290  _totalSupply = totalSupply */\n  swap1\n  pop\n    /* \"tokenweb3.sol\":1170:1298  constructor(uint _totalSupply) public {... */\n  pop\n    /* \"tokenweb3.sol\":262:3528  contract web3ClubsToken {... */\n  jump(tag_13)\n    /* \"#utility.yul\":7:106   */\ntag_14:\n    /* \"#utility.yul\":59:65   */\n  0x00\n    /* \"#utility.yul\":93:98   */\n  dup2\n    /* \"#utility.yul\":87:99   */\n  mload\n    /* \"#utility.yul\":77:99   */\n  swap1\n  pop\n    /* \"#utility.yul\":7:106   */\n  swap2\n  swap1\n  pop\n  jump\t// out\n    /* \"#utility.yul\":112:292   */\ntag_15:\n    /* \"#utility.yul\":160:237   */\n  0x4e487b7100000000000000000000000000000000000000000000000000000000\n    /* \"#utility.yul\":157:158   */\n  0x00\n    /* \"#utility.yul\":150:238   */\n  mstore\n    /* \"#utility.yul\":257:261   */\n  0x41\n    /* \"#utility.yul\":254:255   */\n  0x04\n    /* \"#utility.yul\":247:262   */\n  mstore\n    /* \"#utility.yul\":281:285   */\n  0x24\n    /* \"#utility.yul\":278:279   */\n  0x00\n    /* \"#utility.yul\":271:286   */\n  revert\n    /* \"#utility.yul\":298:478   */\ntag_16:\n    /* \"#utility.yul\":346:423   */\n  0x4e487b7100000000000000000000000000000000000000000000000000000000\n    /* \"#utility.yul\":343:344   */\n  0x00\n    /* \"#utility.yul\":336:424   */\n  mstore\n    /* \"#utility.yul\":443:447   */\n  0x22\n    /* \"#utility.yul\":440:441   */\n  0x04\n    /* \"#utility.yul\":433:448   */\n  mstore\n    /* \"#utility.yul\":467:471   */\n  0x24\n    /* \"#utility.yul\":464:465   */\n  0x00\n    /* \"#utility.yul\":457:472   */\n  revert\n    /* \"#utility.yul\":484:804   */\ntag_17:\n    /* \"#utility.yul\":528:534   */\n  0x00\n    /* \"#utility.yul\":565:566   */\n  0x02\n    /* \"#utility.yul\":559:563   */\n  dup3\n    /* \"#utility.yul\":555:567   */\n  div\n    /* \"#utility.yul\":545:567   */\n  swap1\n  pop\n    /* \"#utility.yul\":612:613   */\n  0x01\n    /* \"#utility.yul\":606:610   */\n  dup3\n    /* \"#utility.yul\":602:614   */\n  and\n    /* \"#utility.yul\":633:651   */\n  dup1\n    /* \"#utility.yul\":623:704   */\n  tag_48\n  jumpi\n    /* \"#utility.yul\":689:693   */\n  0x7f\n    /* \"#utility.yul\":681:687   */\n  dup3\n    /* \"#utility.yul\":677:694   */\n  and\n    /* \"#utility.yul\":667:694   */\n  swap2\n  pop\n    /* \"#utility.yul\":623:704   */\ntag_48:\n    /* \"#utility.yul\":751:753   */\n  0x20\n    /* \"#utility.yul\":743:749   */\n  dup3\n    /* \"#utility.yul\":740:754   */\n  lt\n    /* \"#utility.yul\":720:738   */\n  dup2\n    /* \"#utility.yul\":717:755   */\n  sub\n    /* \"#utility.yul\":714:798   */\n  tag_49\n  jumpi\n    /* \"#utility.yul\":770:788   */\n  tag_50\n  tag_16\n  jump\t// in\ntag_50:\n    /* \"#utility.yul\":714:798   */\ntag_49:\n    /* \"#utility.yul\":535:804   */\n  pop\n    /* \"#utility.yul\":484:804   */\n  swap2\n  swap1\n  pop\n  jump\t// out\n    /* \"#utility.yul\":810:951   */\ntag_18:\n    /* \"#utility.yul\":859:863   */\n  0x00\n    /* \"#utility.yul\":882:885   */\n  dup2\n    /* \"#utility.yul\":874:885   */\n  swap1\n  pop\n    /* \"#utility.yul\":905:908   */\n  dup2\n    /* \"#utility.yul\":902:903   */\n  0x00\n    /* \"#utility.yul\":895:909   */\n  mstore\n    /* \"#utility.yul\":939:943   */\n  0x20\n    /* \"#utility.yul\":936:937   */\n  0x00\n    /* \"#utility.yul\":926:944   */\n  keccak256\n    /* \"#utility.yul\":918:944   */\n  swap1\n  pop\n    /* \"#utility.yul\":810:951   */\n  swap2\n  swap1\n  pop\n  jump\t// out\n    /* \"#utility.yul\":957:1050   */\ntag_19:\n    /* \"#utility.yul\":994:1000   */\n  0x00\n    /* \"#utility.yul\":1041:1043   */\n  0x20\n    /* \"#utility.yul\":1036:1038   */\n  0x1f\n    /* \"#utility.yul\":1029:1034   */\n  dup4\n    /* \"#utility.yul\":1025:1039   */\n  add\n    /* \"#utility.yul\":1021:1044   */\n  div\n    /* \"#utility.yul\":1011:1044   */\n  swap1\n  pop\n    /* \"#utility.yul\":957:1050   */\n  swap2\n  swap1\n  pop\n  jump\t// out\n    /* \"#utility.yul\":1056:1163   */\ntag_20:\n    /* \"#utility.yul\":1100:1108   */\n  0x00\n    /* \"#utility.yul\":1150:1155   */\n  dup3\n    /* \"#utility.yul\":1144:1148   */\n  dup3\n    /* \"#utility.yul\":1140:1156   */\n  shl\n    /* \"#utility.yul\":1119:1156   */\n  swap1\n  pop\n    /* \"#utility.yul\":1056:1163   */\n  swap3\n  swap2\n  pop\n  pop\n  jump\t// out\n    /* \"#utility.yul\":1169:1562   */\ntag_21:\n    /* \"#utility.yul\":1238:1244   */\n  0x00\n    /* \"#utility.yul\":1288:1289   */\n  0x08\n    /* \"#utility.yul\":1276:1286   */\n  dup4\n    /* \"#utility.yul\":1272:1290   */\n  mul\n    /* \"#utility.yul\":1311:1408   */\n  tag_55\n    /* \"#utility.yul\":1341:1407   */\n  0xffffffffffffffffffffffffffffffffffffffffffffffffffffffffffffffff\n    /* \"#utility.yul\":1330:1339   */\n  dup3\n    /* \"#utility.yul\":1311:1408   */\n  tag_20\n  jump\t// in\ntag_55:\n    /* \"#utility.yul\":1429:1468   */\n  tag_56\n    /* \"#utility.yul\":1459:1467   */\n  dup7\n    /* \"#utility.yul\":1448:1457   */\n  dup4\n    /* \"#utility.yul\":1429:1468   */\n  tag_20\n  jump\t// in\ntag_56:\n    /* \"#utility.yul\":1417:1468   */\n  swap6\n  pop\n    /* \"#utility.yul\":1501:1505   */\n  dup1\n    /* \"#utility.yul\":1497:1506   */\n  not\n    /* \"#utility.yul\":1490:1495   */\n  dup5\n    /* \"#utility.yul\":1486:1507   */\n  and\n    /* \"#utility.yul\":1477:1507   */\n  swap4\n  pop\n    /* \"#utility.yul\":1550:1554   */\n  dup1\n    /* \"#utility.yul\":1540:1548   */\n  dup7\n    /* \"#utility.yul\":1536:1555   */\n  and\n    /* \"#utility.yul\":1529:1534   */\n  dup5\n    /* \"#utility.yul\":1526:1556   */\n  or\n    /* \"#utility.yul\":1516:1556   */\n  swap3\n  pop\n    /* \"#utility.yul\":1245:1562   */\n  pop\n  pop\n    /* \"#utility.yul\":1169:1562   */\n  swap4\n  swap3\n  pop\n  pop\n  pop\n  jump\t// out\n    /* \"#utility.yul\":1568:1645   */\ntag_22:\n    /* \"#utility.yul\":1605:1612   */\n  0x00\n    /* \"#utility.yul\":1634:1639   */\n  dup2\n    /* \"#utility.yul\":1623:1639   */\n  swap1\n  pop\n    /* \"#utility.yul\":1568:1645   */\n  swap2\n  swap1\n  pop\n  jump\t// out\n    /* \"#utility.yul\":1651:1711   */\ntag_23:\n    /* \"#utility.yul\":1679:1682   */\n  0x00\n    /* \"#utility.yul\":1700:1705   */\n  dup2\n    /* \"#utility.yul\":1693:1705   */\n  swap1\n  pop\n    /* \"#utility.yul\":1651:1711   */\n  swap2\n  swap1\n  pop\n  jump\t// out\n    /* \"#utility.yul\":1717:1859   */\ntag_24:\n    /* \"#utility.yul\":1767:1776   */\n  0x00\n    /* \"#utility.yul\":1800:1853   */\n  tag_60\n    /* \"#utility.yul\":1818:1852   */\n  tag_61\n    /* \"#utility.yul\":1827:1851   */\n  tag_62\n    /* \"#utility.yul\":1845:1850   */\n  dup5\n    /* \"#utility.yul\":1827:1851   */\n  tag_22\n  jump\t// in\ntag_62:\n    /* \"#utility.yul\":1818:1852   */\n  tag_23\n  jump\t// in\ntag_61:\n    /* \"#utility.yul\":1800:1853   */\n  tag_22\n  jump\t// in\ntag_60:\n    /* \"#utility.yul\":1787:1853   */\n  swap1\n  pop\n    /* \"#utility.yul\":1717:1859   */\n  swap2\n  swap1\n  pop\n  jump\t// out\n    /* \"#utility.yul\":1865:1940   */\ntag_25:\n    /* \"#utility.yul\":1908:1911   */\n  0x00\n    /* \"#utility.yul\":1929:1934   */\n  dup2\n    /* \"#utility.yul\":1922:1934   */\n  swap1\n  pop\n    /* \"#utility.yul\":1865:1940   */\n  swap2\n  swap1\n  pop\n  jump\t// out\n    /* \"#utility.yul\":1946:2215   */\ntag_26:\n    /* \"#utility.yul\":2056:2095   */\n  tag_65\n    /* \"#utility.yul\":2087:2094   */\n  dup4\n    /* \"#utility.yul\":2056:2095   */\n  tag_24\n  jump\t// in\ntag_65:\n    /* \"#utility.yul\":2117:2208   */\n  tag_66\n    /* \"#utility.yul\":2166:2207   */\n  tag_67\n    /* \"#utility.yul\":2190:2206   */\n  dup3\n    /* \"#utility.yul\":2166:2207   */\n  tag_25\n  jump\t// in\ntag_67:\n    /* \"#utility.yul\":2158:2164   */\n  dup5\n    /* \"#utility.yul\":2151:2155   */\n  dup5\n    /* \"#utility.yul\":2145:2156   */\n  sload\n    /* \"#utility.yul\":2117:2208   */\n  tag_21\n  jump\t// in\ntag_66:\n    /* \"#utility.yul\":2111:2115   */\n  dup3\n    /* \"#utility.yul\":2104:2209   */\n  sstore\n    /* \"#utility.yul\":2022:2215   */\n  pop\n    /* \"#utility.yul\":1946:2215   */\n  pop\n  pop\n  pop\n  jump\t// out\n    /* \"#utility.yul\":2221:2294   */\ntag_27:\n    /* \"#utility.yul\":2266:2269   */\n  0x00\n    /* \"#utility.yul\":2221:2294   */\n  swap1\n  jump\t// out\n    /* \"#utility.yul\":2300:2489   */\ntag_28:\n    /* \"#utility.yul\":2377:2409   */\n  tag_70\n  tag_27\n  jump\t// in\ntag_70:\n    /* \"#utility.yul\":2418:2483   */\n  tag_71\n    /* \"#utility.yul\":2476:2482   */\n  dup2\n    /* \"#utility.yul\":2468:2474   */\n  dup5\n    /* \"#utility.yul\":2462:2466   */\n  dup5\n    /* \"#utility.yul\":2418:2483   */\n  tag_26\n  jump\t// in\ntag_71:\n    /* \"#utility.yul\":2353:2489   */\n  pop\n    /* \"#utility.yul\":2300:2489   */\n  pop\n  pop\n  jump\t// out\n    /* \"#utility.yul\":2495:2681   */\ntag_29:\n    /* \"#utility.yul\":2555:2675   */\ntag_73:\n    /* \"#utility.yul\":2572:2575   */\n  dup2\n    /* \"#utility.yul\":2565:2570   */\n  dup2\n    /* \"#utility.yul\":2562:2576   */\n  lt\n    /* \"#utility.yul\":2555:2675   */\n  iszero\n  tag_75\n  jumpi\n    /* \"#utility.yul\":2626:2665   */\n  tag_76\n    /* \"#utility.yul\":2663:2664   */\n  0x00\n    /* \"#utility.yul\":2656:2661   */\n  dup3\n    /* \"#utility.yul\":2626:2665   */\n  tag_28\n  jump\t// in\ntag_76:\n    /* \"#utility.yul\":2599:2600   */\n  0x01\n    /* \"#utility.yul\":2592:2597   */\n  dup2\n    /* \"#utility.yul\":2588:2601   */\n  add\n    /* \"#utility.yul\":2579:2601   */\n  swap1\n  pop\n    /* \"#utility.yul\":2555:2675   */\n  jump(tag_73)\ntag_75:\n    /* \"#utility.yul\":2495:2681   */\n  pop\n  pop\n  jump\t// out\n    /* \"#utility.yul\":2687:3230   */\ntag_30:\n    /* \"#utility.yul\":2788:2790   */\n  0x1f\n    /* \"#utility.yul\":2783:2786   */\n  dup3\n    /* \"#utility.yul\":2780:2791   */\n  gt\n    /* \"#utility.yul\":2777:3223   */\n  iszero\n  tag_78\n  jumpi\n    /* \"#utility.yul\":2822:2860   */\n  tag_79\n    /* \"#utility.yul\":2854:2859   */\n  dup2\n    /* \"#utility.yul\":2822:2860   */\n  tag_18\n  jump\t// in\ntag_79:\n    /* \"#utility.yul\":2906:2935   */\n  tag_80\n    /* \"#utility.yul\":2924:2934   */\n  dup5\n    /* \"#utility.yul\":2906:2935   */\n  tag_19\n  jump\t// in\ntag_80:\n    /* \"#utility.yul\":2896:2904   */\n  dup2\n    /* \"#utility.yul\":2892:2936   */\n  add\n    /* \"#utility.yul\":3089:3091   */\n  0x20\n    /* \"#utility.yul\":3077:3087   */\n  dup6\n    /* \"#utility.yul\":3074:3092   */\n  lt\n    /* \"#utility.yul\":3071:3120   */\n  iszero\n  tag_81\n  jumpi\n    /* \"#utility.yul\":3110:3118   */\n  dup2\n    /* \"#utility.yul\":3095:3118   */\n  swap1\n  pop\n    /* \"#utility.yul\":3071:3120   */\ntag_81:\n    /* \"#utility.yul\":3133:3213   */\n  tag_82\n    /* \"#utility.yul\":3189:3211   */\n  tag_83\n    /* \"#utility.yul\":3207:3210   */\n  dup6\n    /* \"#utility.yul\":3189:3211   */\n  tag_19\n  jump\t// in\ntag_83:\n    /* \"#utility.yul\":3179:3187   */\n  dup4\n    /* \"#utility.yul\":3175:3212   */\n  add\n    /* \"#utility.yul\":3162:3173   */\n  dup3\n    /* \"#utility.yul\":3133:3213   */\n  tag_29\n  jump\t// in\ntag_82:\n    /* \"#utility.yul\":2792:3223   */\n  pop\n  pop\n    /* \"#utility.yul\":2777:3223   */\ntag_78:\n    /* \"#utility.yul\":2687:3230   */\n  pop\n  pop\n  pop\n  jump\t// out\n    /* \"#utility.yul\":3236:3353   */\ntag_31:\n    /* \"#utility.yul\":3290:3298   */\n  0x00\n    /* \"#utility.yul\":3340:3345   */\n  dup3\n    /* \"#utility.yul\":3334:3338   */\n  dup3\n    /* \"#utility.yul\":3330:3346   */\n  shr\n    /* \"#utility.yul\":3309:3346   */\n  swap1\n  pop\n    /* \"#utility.yul\":3236:3353   */\n  swap3\n  swap2\n  pop\n  pop\n  jump\t// out\n    /* \"#utility.yul\":3359:3528   */\ntag_32:\n    /* \"#utility.yul\":3403:3409   */\n  0x00\n    /* \"#utility.yul\":3436:3487   */\n  tag_86\n    /* \"#utility.yul\":3484:3485   */\n  0x00\n    /* \"#utility.yul\":3480:3486   */\n  not\n    /* \"#utility.yul\":3472:3477   */\n  dup5\n    /* \"#utility.yul\":3469:3470   */\n  0x08\n    /* \"#utility.yul\":3465:3478   */\n  mul\n    /* \"#utility.yul\":3436:3487   */\n  tag_31\n  jump\t// in\ntag_86:\n    /* \"#utility.yul\":3432:3488   */\n  not\n    /* \"#utility.yul\":3517:3521   */\n  dup1\n    /* \"#utility.yul\":3511:3515   */\n  dup4\n    /* \"#utility.yul\":3507:3522   */\n  and\n    /* \"#utility.yul\":3497:3522   */\n  swap2\n  pop\n    /* \"#utility.yul\":3410:3528   */\n  pop\n    /* \"#utility.yul\":3359:3528   */\n  swap3\n  swap2\n  pop\n  pop\n  jump\t// out\n    /* \"#utility.yul\":3533:3828   */\ntag_33:\n    /* \"#utility.yul\":3609:3613   */\n  0x00\n    /* \"#utility.yul\":3755:3784   */\n  tag_88\n    /* \"#utility.yul\":3780:3783   */\n  dup4\n    /* \"#utility.yul\":3774:3778   */\n  dup4\n    /* \"#utility.yul\":3755:3784   */\n  tag_32\n  jump\t// in\ntag_88:\n    /* \"#utility.yul\":3747:3784   */\n  swap2\n  pop\n    /* \"#utility.yul\":3817:3820   */\n  dup3\n    /* \"#utility.yul\":3814:3815   */\n  0x02\n    /* \"#utility.yul\":3810:3821   */\n  mul\n    /* \"#utility.yul\":3804:3808   */\n  dup3\n    /* \"#utility.yul\":3801:3822   */\n  or\n    /* \"#utility.yul\":3793:3822   */\n  swap1\n  pop\n    /* \"#utility.yul\":3533:3828   */\n  swap3\n  swap2\n  pop\n  pop\n  jump\t// out\n    /* \"#utility.yul\":3833:5228   */\ntag_2:\n    /* \"#utility.yul\":3950:3987   */\n  tag_90\n    /* \"#utility.yul\":3983:3986   */\n  dup3\n    /* \"#utility.yul\":3950:3987   */\n  tag_14\n  jump\t// in\ntag_90:\n    /* \"#utility.yul\":4052:4070   */\n  0xffffffffffffffff\n    /* \"#utility.yul\":4044:4050   */\n  dup2\n    /* \"#utility.yul\":4041:4071   */\n  gt\n    /* \"#utility.yul\":4038:4094   */\n  iszero\n  tag_91\n  jumpi\n    /* \"#utility.yul\":4074:4092   */\n  tag_92\n  tag_15\n  jump\t// in\ntag_92:\n    /* \"#utility.yul\":4038:4094   */\ntag_91:\n    /* \"#utility.yul\":4118:4156   */\n  tag_93\n    /* \"#utility.yul\":4150:4154   */\n  dup3\n    /* \"#utility.yul\":4144:4155   */\n  sload\n    /* \"#utility.yul\":4118:4156   */\n  tag_17\n  jump\t// in\ntag_93:\n    /* \"#utility.yul\":4203:4270   */\n  tag_94\n    /* \"#utility.yul\":4263:4269   */\n  dup3\n    /* \"#utility.yul\":4255:4261   */\n  dup3\n    /* \"#utility.yul\":4249:4253   */\n  dup6\n    /* \"#utility.yul\":4203:4270   */\n  tag_30\n  jump\t// in\ntag_94:\n    /* \"#utility.yul\":4297:4298   */\n  0x00\n    /* \"#utility.yul\":4321:4325   */\n  0x20\n    /* \"#utility.yul\":4308:4325   */\n  swap1\n  pop\n    /* \"#utility.yul\":4353:4355   */\n  0x1f\n    /* \"#utility.yul\":4345:4351   */\n  dup4\n    /* \"#utility.yul\":4342:4356   */\n  gt\n    /* \"#utility.yul\":4370:4371   */\n  0x01\n    /* \"#utility.yul\":4365:4983   */\n  dup2\n  eq\n  tag_96\n  jumpi\n    /* \"#utility.yul\":5027:5028   */\n  0x00\n    /* \"#utility.yul\":5044:5050   */\n  dup5\n    /* \"#utility.yul\":5041:5118   */\n  iszero\n  tag_97\n  jumpi\n    /* \"#utility.yul\":5093:5102   */\n  dup3\n    /* \"#utility.yul\":5088:5091   */\n  dup8\n    /* \"#utility.yul\":5084:5103   */\n  add\n    /* \"#utility.yul\":5078:5104   */\n  mload\n    /* \"#utility.yul\":5069:5104   */\n  swap1\n  pop\n    /* \"#utility.yul\":5041:5118   */\ntag_97:\n    /* \"#utility.yul\":5144:5211   */\n  tag_98\n    /* \"#utility.yul\":5204:5210   */\n  dup6\n    /* \"#utility.yul\":5197:5202   */\n  dup3\n    /* \"#utility.yul\":5144:5211   */\n  tag_33\n  jump\t// in\ntag_98:\n    /* \"#utility.yul\":5138:5142   */\n  dup7\n    /* \"#utility.yul\":5131:5212   */\n  sstore\n    /* \"#utility.yul\":5000:5222   */\n  pop\n    /* \"#utility.yul\":4335:5222   */\n  jump(tag_95)\n    /* \"#utility.yul\":4365:4983   */\ntag_96:\n    /* \"#utility.yul\":4417:4421   */\n  0x1f\n    /* \"#utility.yul\":4413:4422   */\n  not\n    /* \"#utility.yul\":4405:4411   */\n  dup5\n    /* \"#utility.yul\":4401:4423   */\n  and\n    /* \"#utility.yul\":4451:4488   */\n  tag_99\n    /* \"#utility.yul\":4483:4487   */\n  dup7\n    /* \"#utility.yul\":4451:4488   */\n  tag_18\n  jump\t// in\ntag_99:\n    /* \"#utility.yul\":4510:4511   */\n  0x00\n    /* \"#utility.yul\":4524:4732   */\ntag_100:\n    /* \"#utility.yul\":4538:4545   */\n  dup3\n    /* \"#utility.yul\":4535:4536   */\n  dup2\n    /* \"#utility.yul\":4532:4546   */\n  lt\n    /* \"#utility.yul\":4524:4732   */\n  iszero\n  tag_102\n  jumpi\n    /* \"#utility.yul\":4617:4626   */\n  dup5\n    /* \"#utility.yul\":4612:4615   */\n  dup10\n    /* \"#utility.yul\":4608:4627   */\n  add\n    /* \"#utility.yul\":4602:4628   */\n  mload\n    /* \"#utility.yul\":4594:4600   */\n  dup3\n    /* \"#utility.yul\":4587:4629   */\n  sstore\n    /* \"#utility.yul\":4668:4669   */\n  0x01\n    /* \"#utility.yul\":4660:4666   */\n  dup3\n    /* \"#utility.yul\":4656:4670   */\n  add\n    /* \"#utility.yul\":4646:4670   */\n  swap2\n  pop\n    /* \"#utility.yul\":4715:4717   */\n  0x20\n    /* \"#utility.yul\":4704:4713   */\n  dup6\n    /* \"#utility.yul\":4700:4718   */\n  add\n    /* \"#utility.yul\":4687:4718   */\n  swap5\n  pop\n    /* \"#utility.yul\":4561:4565   */\n  0x20\n    /* \"#utility.yul\":4558:4559   */\n  dup2\n    /* \"#utility.yul\":4554:4566   */\n  add\n    /* \"#utility.yul\":4549:4566   */\n  swap1\n  pop\n    /* \"#utility.yul\":4524:4732   */\n  jump(tag_100)\ntag_102:\n    /* \"#utility.yul\":4760:4766   */\n  dup7\n    /* \"#utility.yul\":4751:4758   */\n  dup4\n    /* \"#utility.yul\":4748:4767   */\n  lt\n    /* \"#utility.yul\":4745:4924   */\n  iszero\n  tag_103\n  jumpi\n    /* \"#utility.yul\":4818:4827   */\n  dup5\n    /* \"#utility.yul\":4813:4816   */\n  dup10\n    /* \"#utility.yul\":4809:4828   */\n  add\n    /* \"#utility.yul\":4803:4829   */\n  mload\n    /* \"#utility.yul\":4861:4909   */\n  tag_104\n    /* \"#utility.yul\":4903:4907   */\n  0x1f\n    /* \"#utility.yul\":4895:4901   */\n  dup10\n    /* \"#utility.yul\":4891:4908   */\n  and\n    /* \"#utility.yul\":4880:4889   */\n  dup3\n    /* \"#utility.yul\":4861:4909   */\n  tag_32\n  jump\t// in\ntag_104:\n    /* \"#utility.yul\":4853:4859   */\n  dup4\n    /* \"#utility.yul\":4846:4910   */\n  sstore\n    /* \"#utility.yul\":4768:4924   */\n  pop\n    /* \"#utility.yul\":4745:4924   */\ntag_103:\n    /* \"#utility.yul\":4970:4971   */\n  0x01\n    /* \"#utility.yul\":4966:4967   */\n  0x02\n    /* \"#utility.yul\":4958:4964   */\n  dup9\n    /* \"#utility.yul\":4954:4968   */\n  mul\n    /* \"#utility.yul\":4950:4972   */\n  add\n    /* \"#utility.yul\":4944:4948   */\n  dup9\n    /* \"#utility.yul\":4937:4973   */\n  sstore\n    /* \"#utility.yul\":4372:4983   */\n  pop\n  pop\n  pop\n    /* \"#utility.yul\":4335:5222   */\ntag_95:\n  pop\n    /* \"#utility.yul\":3925:5228   */\n  pop\n  pop\n  pop\n    /* \"#utility.yul\":3833:5228   */\n  pop\n  pop\n  jump\t// out\n    /* \"#utility.yul\":5234:5414   */\ntag_34:\n    /* \"#utility.yul\":5282:5359   */\n  0x4e487b7100000000000000000000000000000000000000000000000000000000\n    /* \"#utility.yul\":5279:5280   */\n  0x00\n    /* \"#utility.yul\":5272:5360   */\n  mstore\n    /* \"#utility.yul\":5379:5383   */\n  0x11\n    /* \"#utility.yul\":5376:5377   */\n  0x04\n    /* \"#utility.yul\":5369:5384   */\n  mstore\n    /* \"#utility.yul\":5403:5407   */\n  0x24\n    /* \"#utility.yul\":5400:5401   */\n  0x00\n    /* \"#utility.yul\":5393:5408   */\n  revert\n    /* \"#utility.yul\":5420:5522   */\ntag_35:\n    /* \"#utility.yul\":5462:5470   */\n  0x00\n    /* \"#utility.yul\":5509:5514   */\n  dup2\n    /* \"#utility.yul\":5506:5507   */\n  0x01\n    /* \"#utility.yul\":5502:5515   */\n  shr\n    /* \"#utility.yul\":5481:5515   */\n  swap1\n  pop\n    /* \"#utility.yul\":5420:5522   */\n  swap2\n  swap1\n  pop\n  jump\t// out\n    /* \"#utility.yul\":5528:6376   */\ntag_36:\n    /* \"#utility.yul\":5589:5594   */\n  0x00\n    /* \"#utility.yul\":5596:5600   */\n  dup1\n    /* \"#utility.yul\":5620:5626   */\n  dup3\n    /* \"#utility.yul\":5611:5626   */\n  swap2\n  pop\n    /* \"#utility.yul\":5644:5649   */\n  dup4\n    /* \"#utility.yul\":5635:5649   */\n  swap1\n  pop\n    /* \"#utility.yul\":5658:6370   */\ntag_108:\n    /* \"#utility.yul\":5679:5680   */\n  0x01\n    /* \"#utility.yul\":5669:5677   */\n  dup6\n    /* \"#utility.yul\":5666:5681   */\n  gt\n    /* \"#utility.yul\":5658:6370   */\n  iszero\n  tag_110\n  jumpi\n    /* \"#utility.yul\":5774:5778   */\n  dup1\n    /* \"#utility.yul\":5769:5772   */\n  dup7\n    /* \"#utility.yul\":5765:5779   */\n  div\n    /* \"#utility.yul\":5759:5763   */\n  dup2\n    /* \"#utility.yul\":5756:5780   */\n  gt\n    /* \"#utility.yul\":5753:5803   */\n  iszero\n  tag_111\n  jumpi\n    /* \"#utility.yul\":5783:5801   */\n  tag_112\n  tag_34\n  jump\t// in\ntag_112:\n    /* \"#utility.yul\":5753:5803   */\ntag_111:\n    /* \"#utility.yul\":5833:5834   */\n  0x01\n    /* \"#utility.yul\":5823:5831   */\n  dup6\n    /* \"#utility.yul\":5819:5835   */\n  and\n    /* \"#utility.yul\":5816:6267   */\n  iszero\n  tag_113\n  jumpi\n    /* \"#utility.yul\":6248:6252   */\n  dup1\n    /* \"#utility.yul\":6241:6246   */\n  dup3\n    /* \"#utility.yul\":6237:6253   */\n  mul\n    /* \"#utility.yul\":6228:6253   */\n  swap2\n  pop\n    /* \"#utility.yul\":5816:6267   */\ntag_113:\n    /* \"#utility.yul\":6298:6302   */\n  dup1\n    /* \"#utility.yul\":6292:6296   */\n  dup2\n    /* \"#utility.yul\":6288:6303   */\n  mul\n    /* \"#utility.yul\":6280:6303   */\n  swap1\n  pop\n    /* \"#utility.yul\":6328:6360   */\n  tag_114\n    /* \"#utility.yul\":6351:6359   */\n  dup6\n    /* \"#utility.yul\":6328:6360   */\n  tag_35\n  jump\t// in\ntag_114:\n    /* \"#utility.yul\":6316:6360   */\n  swap5\n  pop\n    /* \"#utility.yul\":5658:6370   */\n  jump(tag_108)\ntag_110:\n    /* \"#utility.yul\":5528:6376   */\n  swap5\n  pop\n  swap5\n  swap3\n  pop\n  pop\n  pop\n  jump\t// out\n    /* \"#utility.yul\":6382:7455   */\ntag_37:\n    /* \"#utility.yul\":6436:6441   */\n  0x00\n    /* \"#utility.yul\":6627:6635   */\n  dup3\n    /* \"#utility.yul\":6617:6657   */\n  tag_116\n  jumpi\n    /* \"#utility.yul\":6648:6649   */\n  0x01\n    /* \"#utility.yul\":6639:6649   */\n  swap1\n  pop\n    /* \"#utility.yul\":6650:6655   */\n  jump(tag_115)\n    /* \"#utility.yul\":6617:6657   */\ntag_116:\n    /* \"#utility.yul\":6676:6680   */\n  dup2\n    /* \"#utility.yul\":6666:6702   */\n  tag_117\n  jumpi\n    /* \"#utility.yul\":6693:6694   */\n  0x00\n    /* \"#utility.yul\":6684:6694   */\n  swap1\n  pop\n    /* \"#utility.yul\":6695:6700   */\n  jump(tag_115)\n    /* \"#utility.yul\":6666:6702   */\ntag_117:\n    /* \"#utility.yul\":6762:6766   */\n  dup2\n    /* \"#utility.yul\":6810:6811   */\n  0x01\n    /* \"#utility.yul\":6805:6832   */\n  dup2\n  eq\n  tag_119\n  jumpi\n    /* \"#utility.yul\":6846:6847   */\n  0x02\n    /* \"#utility.yul\":6841:7032   */\n  dup2\n  eq\n  tag_120\n  jumpi\n    /* \"#utility.yul\":6755:7032   */\n  jump(tag_118)\n    /* \"#utility.yul\":6805:6832   */\ntag_119:\n    /* \"#utility.yul\":6823:6824   */\n  0x01\n    /* \"#utility.yul\":6814:6824   */\n  swap2\n  pop\n    /* \"#utility.yul\":6825:6830   */\n  pop\n  jump(tag_115)\n    /* \"#utility.yul\":6841:7032   */\ntag_120:\n    /* \"#utility.yul\":6886:6889   */\n  0xff\n    /* \"#utility.yul\":6876:6884   */\n  dup5\n    /* \"#utility.yul\":6873:6890   */\n  gt\n    /* \"#utility.yul\":6870:6913   */\n  iszero\n  tag_121\n  jumpi\n    /* \"#utility.yul\":6893:6911   */\n  tag_122\n  tag_34\n  jump\t// in\ntag_122:\n    /* \"#utility.yul\":6870:6913   */\ntag_121:\n    /* \"#utility.yul\":6942:6950   */\n  dup4\n    /* \"#utility.yul\":6939:6940   */\n  0x02\n    /* \"#utility.yul\":6935:6951   */\n  exp\n    /* \"#utility.yul\":6926:6951   */\n  swap2\n  pop\n    /* \"#utility.yul\":6977:6980   */\n  dup5\n    /* \"#utility.yul\":6970:6975   */\n  dup3\n    /* \"#utility.yul\":6967:6981   */\n  gt\n    /* \"#utility.yul\":6964:7004   */\n  iszero\n  tag_123\n  jumpi\n    /* \"#utility.yul\":6984:7002   */\n  tag_124\n  tag_34\n  jump\t// in\ntag_124:\n    /* \"#utility.yul\":6964:7004   */\ntag_123:\n    /* \"#utility.yul\":7017:7022   */\n  pop\n  jump(tag_115)\n    /* \"#utility.yul\":6755:7032   */\ntag_118:\n  pop\n    /* \"#utility.yul\":7141:7143   */\n  0x20\n    /* \"#utility.yul\":7131:7139   */\n  dup4\n    /* \"#utility.yul\":7128:7144   */\n  lt\n    /* \"#utility.yul\":7122:7125   */\n  0x0133\n    /* \"#utility.yul\":7116:7120   */\n  dup4\n    /* \"#utility.yul\":7113:7126   */\n  lt\n    /* \"#utility.yul\":7109:7145   */\n  and\n    /* \"#utility.yul\":7091:7093   */\n  0x4e\n    /* \"#utility.yul\":7081:7089   */\n  dup5\n    /* \"#utility.yul\":7078:7094   */\n  lt\n    /* \"#utility.yul\":7073:7075   */\n  0x0b\n    /* \"#utility.yul\":7067:7071   */\n  dup5\n    /* \"#utility.yul\":7064:7076   */\n  lt\n    /* \"#utility.yul\":7060:7095   */\n  and\n    /* \"#utility.yul\":7044:7155   */\n  or\n    /* \"#utility.yul\":7041:7287   */\n  iszero\n  tag_125\n  jumpi\n    /* \"#utility.yul\":7197:7205   */\n  dup3\n    /* \"#utility.yul\":7191:7195   */\n  dup3\n    /* \"#utility.yul\":7187:7206   */\n  exp\n    /* \"#utility.yul\":7178:7206   */\n  swap1\n  pop\n    /* \"#utility.yul\":7232:7235   */\n  dup4\n    /* \"#utility.yul\":7225:7230   */\n  dup2\n    /* \"#utility.yul\":7222:7236   */\n  gt\n    /* \"#utility.yul\":7219:7259   */\n  iszero\n  tag_126\n  jumpi\n    /* \"#utility.yul\":7239:7257   */\n  tag_127\n  tag_34\n  jump\t// in\ntag_127:\n    /* \"#utility.yul\":7219:7259   */\ntag_126:\n    /* \"#utility.yul\":7272:7277   */\n  jump(tag_115)\n    /* \"#utility.yul\":7041:7287   */\ntag_125:\n    /* \"#utility.yul\":7312:7354   */\n  tag_128\n    /* \"#utility.yul\":7350:7353   */\n  dup5\n    /* \"#utility.yul\":7340:7348   */\n  dup5\n    /* \"#utility.yul\":7334:7338   */\n  dup5\n    /* \"#utility.yul\":7331:7332   */\n  0x01\n    /* \"#utility.yul\":7312:7354   */\n  tag_36\n  jump\t// in\ntag_128:\n    /* \"#utility.yul\":7297:7354   */\n  swap3\n  pop\n  swap1\n  pop\n    /* \"#utility.yul\":7386:7390   */\n  dup2\n    /* \"#utility.yul\":7381:7384   */\n  dup5\n    /* \"#utility.yul\":7377:7391   */\n  div\n    /* \"#utility.yul\":7370:7375   */\n  dup2\n    /* \"#utility.yul\":7367:7392   */\n  gt\n    /* \"#utility.yul\":7364:7415   */\n  iszero\n  tag_129\n  jumpi\n    /* \"#utility.yul\":7395:7413   */\n  tag_130\n  tag_34\n  jump\t// in\ntag_130:\n    /* \"#utility.yul\":7364:7415   */\ntag_129:\n    /* \"#utility.yul\":7444:7448   */\n  dup2\n    /* \"#utility.yul\":7437:7442   */\n  dup2\n    /* \"#utility.yul\":7433:7449   */\n  mul\n    /* \"#utility.yul\":7424:7449   */\n  swap1\n  pop\n    /* \"#utility.yul\":6382:7455   */\ntag_115:\n  swap4\n  swap3\n  pop\n  pop\n  pop\n  jump\t// out\n    /* \"#utility.yul\":7461:7746   */\ntag_5:\n    /* \"#utility.yul\":7521:7526   */\n  0x00\n    /* \"#utility.yul\":7545:7568   */\n  tag_132\n    /* \"#utility.yul\":7563:7567   */\n  dup3\n    /* \"#utility.yul\":7545:7568   */\n  tag_22\n  jump\t// in\ntag_132:\n    /* \"#utility.yul\":7537:7568   */\n  swap2\n  pop\n    /* \"#utility.yul\":7589:7616   */\n  tag_133\n    /* \"#utility.yul\":7607:7615   */\n  dup4\n    /* \"#utility.yul\":7589:7616   */\n  tag_22\n  jump\t// in\ntag_133:\n    /* \"#utility.yul\":7577:7616   */\n  swap3\n  pop\n    /* \"#utility.yul\":7635:7739   */\n  tag_134\n    /* \"#utility.yul\":7672:7738   */\n  0xffffffffffffffffffffffffffffffffffffffffffffffffffffffffffffffff\n    /* \"#utility.yul\":7662:7670   */\n  dup5\n    /* \"#utility.yul\":7656:7660   */\n  dup5\n    /* \"#utility.yul\":7635:7739   */\n  tag_37\n  jump\t// in\ntag_134:\n    /* \"#utility.yul\":7626:7739   */\n  swap1\n  pop\n    /* \"#utility.yul\":7461:7746   */\n  swap3\n  swap2\n  pop\n  pop\n  jump\t// out\n    /* \"#utility.yul\":7752:8162   */\ntag_7:\n    /* \"#utility.yul\":7792:7799   */\n  0x00\n    /* \"#utility.yul\":7815:7835   */\n  tag_136\n    /* \"#utility.yul\":7833:7834   */\n  dup3\n    /* \"#utility.yul\":7815:7835   */\n  tag_22\n  jump\t// in\ntag_136:\n    /* \"#utility.yul\":7810:7835   */\n  swap2\n  pop\n    /* \"#utility.yul\":7849:7869   */\n  tag_137\n    /* \"#utility.yul\":7867:7868   */\n  dup4\n    /* \"#utility.yul\":7849:7869   */\n  tag_22\n  jump\t// in\ntag_137:\n    /* \"#utility.yul\":7844:7869   */\n  swap3\n  pop\n    /* \"#utility.yul\":7904:7905   */\n  dup3\n    /* \"#utility.yul\":7901:7902   */\n  dup3\n    /* \"#utility.yul\":7897:7906   */\n  mul\n    /* \"#utility.yul\":7926:7956   */\n  tag_138\n    /* \"#utility.yul\":7944:7955   */\n  dup2\n    /* \"#utility.yul\":7926:7956   */\n  tag_22\n  jump\t// in\ntag_138:\n    /* \"#utility.yul\":7915:7956   */\n  swap2\n  pop\n    /* \"#utility.yul\":8105:8106   */\n  dup3\n    /* \"#utility.yul\":8096:8103   */\n  dup3\n    /* \"#utility.yul\":8092:8107   */\n  div\n    /* \"#utility.yul\":8089:8090   */\n  dup5\n    /* \"#utility.yul\":8086:8108   */\n  eq\n    /* \"#utility.yul\":8066:8067   */\n  dup4\n    /* \"#utility.yul\":8059:8068   */\n  iszero\n    /* \"#utility.yul\":8039:8122   */\n  or\n    /* \"#utility.yul\":8016:8155   */\n  tag_139\n  jumpi\n    /* \"#utility.yul\":8135:8153   */\n  tag_140\n  tag_34\n  jump\t// in\ntag_140:\n    /* \"#utility.yul\":8016:8155   */\ntag_139:\n    /* \"#utility.yul\":7800:8162   */\n  pop\n    /* \"#utility.yul\":7752:8162   */\n  swap3\n  swap2\n  pop\n  pop\n  jump\t// out\n    /* \"#utility.yul\":8249:8366   */\ntag_39:\n    /* \"#utility.yul\":8358:8359   */\n  0x00\n    /* \"#utility.yul\":8355:8356   */\n  dup1\n    /* \"#utility.yul\":8348:8360   */\n  revert\n    /* \"#utility.yul\":8495:8617   */\ntag_41:\n    /* \"#utility.yul\":8568:8592   */\n  tag_145\n    /* \"#utility.yul\":8586:8591   */\n  dup2\n    /* \"#utility.yul\":8568:8592   */\n  tag_22\n  jump\t// in\ntag_145:\n    /* \"#utility.yul\":8561:8566   */\n  dup2\n    /* \"#utility.yul\":8558:8593   */\n  eq\n    /* \"#utility.yul\":8548:8611   */\n  tag_146\n  jumpi\n    /* \"#utility.yul\":8607:8608   */\n  0x00\n    /* \"#utility.yul\":8604:8605   */\n  dup1\n    /* \"#utility.yul\":8597:8609   */\n  revert\n    /* \"#utility.yul\":8548:8611   */\ntag_146:\n    /* \"#utility.yul\":8495:8617   */\n  pop\n  jump\t// out\n    /* \"#utility.yul\":8623:8766   */\ntag_42:\n    /* \"#utility.yul\":8680:8685   */\n  0x00\n    /* \"#utility.yul\":8711:8717   */\n  dup2\n    /* \"#utility.yul\":8705:8718   */\n  mload\n    /* \"#utility.yul\":8696:8718   */\n  swap1\n  pop\n    /* \"#utility.yul\":8727:8760   */\n  tag_148\n    /* \"#utility.yul\":8754:8759   */\n  dup2\n    /* \"#utility.yul\":8727:8760   */\n  tag_41\n  jump\t// in\ntag_148:\n    /* \"#utility.yul\":8623:8766   */\n  swap3\n  swap2\n  pop\n  pop\n  jump\t// out\n    /* \"#utility.yul\":8772:9123   */\ntag_10:\n    /* \"#utility.yul\":8842:8848   */\n  0x00\n    /* \"#utility.yul\":8891:8893   */\n  0x20\n    /* \"#utility.yul\":8879:8888   */\n  dup3\n    /* \"#utility.yul\":8870:8877   */\n  dup5\n    /* \"#utility.yul\":8866:8889   */\n  sub\n    /* \"#utility.yul\":8862:8894   */\n  slt\n    /* \"#utility.yul\":8859:8978   */\n  iszero\n  tag_150\n  jumpi\n    /* \"#utility.yul\":8897:8976   */\n  tag_151\n  tag_39\n  jump\t// in\ntag_151:\n    /* \"#utility.yul\":8859:8978   */\ntag_150:\n    /* \"#utility.yul\":9017:9018   */\n  0x00\n    /* \"#utility.yul\":9042:9106   */\n  tag_152\n    /* \"#utility.yul\":9098:9105   */\n  dup5\n    /* \"#utility.yul\":9089:9095   */\n  dup3\n    /* \"#utility.yul\":9078:9087   */\n  dup6\n    /* \"#utility.yul\":9074:9096   */\n  add\n    /* \"#utility.yul\":9042:9106   */\n  tag_42\n  jump\t// in\ntag_152:\n    /* \"#utility.yul\":9032:9106   */\n  swap2\n  pop\n    /* \"#utility.yul\":8988:9116   */\n  pop\n    /* \"#utility.yul\":8772:9123   */\n  swap3\n  swap2\n  pop\n  pop\n  jump\t// out\n    /* \"tokenweb3.sol\":262:3528  contract web3ClubsToken {... */\ntag_13:\n  dataSize(sub_0)\n  dup1\n  dataOffset(sub_0)\n  0x00\n  codecopy\n  0x00\n  return\nstop\n\nsub_0: assembly {\n        /* \"tokenweb3.sol\":262:3528  contract web3ClubsToken {... */\n      mstore(0x40, 0x80)\n      callvalue\n      dup1\n      iszero\n      tag_1\n      jumpi\n      0x00\n      dup1\n      revert\n    tag_1:\n      pop\n      jumpi(tag_2, lt(calldatasize, 0x04))\n      shr(0xe0, calldataload(0x00))\n      dup1\n      0x6c02a931\n      gt\n      tag_10\n      jumpi\n      dup1\n      0x6c02a931\n      eq\n      tag_6\n      jumpi\n      dup1\n      0x6d6a6a4d\n      eq\n      tag_7\n      jumpi\n      dup1\n      0x95d89b41\n      eq\n      tag_8\n      jumpi\n      dup1\n      0xa9059cbb\n      eq\n      tag_9\n      jumpi\n      jump(tag_2)\n    tag_10:\n      dup1\n      0x18160ddd\n      eq\n      tag_3\n      jumpi\n      dup1\n      0x23b872dd\n      eq\n      tag_4\n      jumpi\n      dup1\n      0x313ce567\n      eq\n      tag_5\n      jumpi\n    tag_2:\n      0x00\n      dup1\n      revert\n        /* \"tokenweb3.sol\":661:710  uint public totalSupply = 1000000 * decimalFactor */\n    tag_3:\n      tag_11\n      tag_12\n      jump\t// in\n    tag_11:\n      mload(0x40)\n      tag_13\n      swap2\n      swap1\n      tag_14\n      jump\t// in\n    tag_13:\n      mload(0x40)\n      dup1\n      swap2\n      sub\n      swap1\n      return\n        /* \"tokenweb3.sol\":2311:3515  function transferFrom(address _sender, address _receiver, uint _amount) public returns (bool) {... */\n    tag_4:\n      tag_15\n      0x04\n      dup1\n      calldatasize\n      sub\n      dup2\n      add\n      swap1\n      tag_16\n      swap2\n      swap1\n      tag_17\n      jump\t// in\n    tag_16:\n      tag_18\n      jump\t// in\n    tag_15:\n      mload(0x40)\n      tag_19\n      swap2\n      swap1\n      tag_20\n      jump\t// in\n    tag_19:\n      mload(0x40)\n      dup1\n      swap2\n      sub\n      swap1\n      return\n        /* \"tokenweb3.sol\":571:596  uint public decimals = 18 */\n    tag_5:\n      tag_21\n      tag_22\n      jump\t// in\n    tag_21:\n      mload(0x40)\n      tag_23\n      swap2\n      swap1\n      tag_14\n      jump\t// in\n    tag_23:\n      mload(0x40)\n      dup1\n      swap2\n      sub\n      swap1\n      return\n        /* \"tokenweb3.sol\":487:529  string public tokenName = \"web3ClubsToken\" */\n    tag_6:\n      tag_24\n      tag_25\n      jump\t// in\n    tag_24:\n      mload(0x40)\n      tag_26\n      swap2\n      swap1\n      tag_27\n      jump\t// in\n    tag_26:\n      mload(0x40)\n      dup1\n      swap2\n      sub\n      swap1\n      return\n        /* \"tokenweb3.sol\":603:654  uint public decimalFactor = 10 ** uint256(decimals) */\n    tag_7:\n      tag_28\n      tag_29\n      jump\t// in\n    tag_28:\n      mload(0x40)\n      tag_30\n      swap2\n      swap1\n      tag_14\n      jump\t// in\n    tag_30:\n      mload(0x40)\n      dup1\n      swap2\n      sub\n      swap1\n      return\n        /* \"tokenweb3.sol\":536:564  string public symbol = \"WCT\" */\n    tag_8:\n      tag_31\n      tag_32\n      jump\t// in\n    tag_31:\n      mload(0x40)\n      tag_33\n      swap2\n      swap1\n      tag_27\n      jump\t// in\n    tag_33:\n      mload(0x40)\n      dup1\n      swap2\n      sub\n      swap1\n      return\n        /* \"tokenweb3.sol\":1391:2201  function transfer(address _receiver, uint _amount) public returns (bool) {... */\n    tag_9:\n      tag_34\n      0x04\n      dup1\n      calldatasize\n      sub\n      dup2\n      add\n      swap1\n      tag_35\n      swap2\n      swap1\n      tag_36\n      jump\t// in\n    tag_35:\n      tag_37\n      jump\t// in\n    tag_34:\n      mload(0x40)\n      tag_38\n      swap2\n      swap1\n      tag_20\n      jump\t// in\n    tag_38:\n      mload(0x40)\n      dup1\n      swap2\n      sub\n      swap1\n      return\n        /* \"tokenweb3.sol\":661:710  uint public totalSupply = 1000000 * decimalFactor */\n    tag_12:\n      sload(0x04)\n      dup2\n      jump\t// out\n        /* \"tokenweb3.sol\":2311:3515  function transferFrom(address _sender, address _receiver, uint _amount) public returns (bool) {... */\n    tag_18:\n        /* \"tokenweb3.sol\":2399:2403  bool */\n      0x00\n        /* \"tokenweb3.sol\":2523:2524  0 */\n      dup1\n        /* \"tokenweb3.sol\":2504:2525  _sender != address(0) */\n      0xffffffffffffffffffffffffffffffffffffffff\n      and\n        /* \"tokenweb3.sol\":2504:2511  _sender */\n      dup5\n        /* \"tokenweb3.sol\":2504:2525  _sender != address(0) */\n      0xffffffffffffffffffffffffffffffffffffffff\n      and\n      sub\n        /* \"tokenweb3.sol\":2496:2526  require(_sender != address(0)) */\n      tag_40\n      jumpi\n      0x00\n      dup1\n      revert\n    tag_40:\n        /* \"tokenweb3.sol\":2566:2567  0 */\n      0x00\n        /* \"tokenweb3.sol\":2545:2568  _receiver != address(0) */\n      0xffffffffffffffffffffffffffffffffffffffff\n      and\n        /* \"tokenweb3.sol\":2545:2554  _receiver */\n      dup4\n        /* \"tokenweb3.sol\":2545:2568  _receiver != address(0) */\n      0xffffffffffffffffffffffffffffffffffffffff\n      and\n      sub\n        /* \"tokenweb3.sol\":2537:2569  require(_receiver != address(0)) */\n      tag_41\n      jumpi\n      0x00\n      dup1\n      revert\n    tag_41:\n        /* \"tokenweb3.sol\":2673:2680  _sender */\n      dup4\n        /* \"tokenweb3.sol\":2660:2680  _receiver != _sender */\n      0xffffffffffffffffffffffffffffffffffffffff\n      and\n        /* \"tokenweb3.sol\":2660:2669  _receiver */\n      dup4\n        /* \"tokenweb3.sol\":2660:2680  _receiver != _sender */\n      0xffffffffffffffffffffffffffffffffffffffff\n      and\n      sub\n        /* \"tokenweb3.sol\":2652:2681  require(_receiver != _sender) */\n      tag_42\n      jumpi\n      0x00\n      dup1\n      revert\n    tag_42:\n        /* \"tokenweb3.sol\":2783:2790  _amount */\n      dup2\n        /* \"tokenweb3.sol\":2762:2770  balances */\n      0x05\n        /* \"tokenweb3.sol\":2762:2779  balances[_sender] */\n      0x00\n        /* \"tokenweb3.sol\":2771:2778  _sender */\n      dup7\n        /* \"tokenweb3.sol\":2762:2779  balances[_sender] */\n      0xffffffffffffffffffffffffffffffffffffffff\n      and\n      0xffffffffffffffffffffffffffffffffffffffff\n      and\n      dup2\n      mstore\n      0x20\n      add\n      swap1\n      dup2\n      mstore\n      0x20\n      add\n      0x00\n      keccak256\n      sload\n        /* \"tokenweb3.sol\":2762:2790  balances[_sender] >= _amount */\n      lt\n      iszero\n        /* \"tokenweb3.sol\":2754:2791  require(balances[_sender] >= _amount) */\n      tag_43\n      jumpi\n      0x00\n      dup1\n      revert\n    tag_43:\n        /* \"tokenweb3.sol\":2917:2924  _amount */\n      dup2\n        /* \"tokenweb3.sol\":2885:2892  allowed */\n      0x06\n        /* \"tokenweb3.sol\":2885:2901  allowed[_sender] */\n      0x00\n        /* \"tokenweb3.sol\":2893:2900  _sender */\n      dup7\n        /* \"tokenweb3.sol\":2885:2901  allowed[_sender] */\n      0xffffffffffffffffffffffffffffffffffffffff\n      and\n      0xffffffffffffffffffffffffffffffffffffffff\n      and\n      dup2\n      mstore\n      0x20\n      add\n      swap1\n      dup2\n      mstore\n      0x20\n      add\n      0x00\n      keccak256\n        /* \"tokenweb3.sol\":2885:2913  allowed[_sender][msg.sender] */\n      0x00\n        /* \"tokenweb3.sol\":2902:2912  msg.sender */\n      caller\n        /* \"tokenweb3.sol\":2885:2913  allowed[_sender][msg.sender] */\n      0xffffffffffffffffffffffffffffffffffffffff\n      and\n      0xffffffffffffffffffffffffffffffffffffffff\n      and\n      dup2\n      mstore\n      0x20\n      add\n      swap1\n      dup2\n      mstore\n      0x20\n      add\n      0x00\n      keccak256\n      sload\n        /* \"tokenweb3.sol\":2885:2924  allowed[_sender][msg.sender] >= _amount */\n      lt\n      iszero\n        /* \"tokenweb3.sol\":2877:2925  require(allowed[_sender][msg.sender] >= _amount) */\n      tag_44\n      jumpi\n      0x00\n      dup1\n      revert\n    tag_44:\n        /* \"tokenweb3.sol\":3028:3058  balances[_sender].sub(_amount) */\n      tag_45\n        /* \"tokenweb3.sol\":3050:3057  _amount */\n      dup3\n        /* \"tokenweb3.sol\":3028:3036  balances */\n      0x05\n        /* \"tokenweb3.sol\":3028:3045  balances[_sender] */\n      0x00\n        /* \"tokenweb3.sol\":3037:3044  _sender */\n      dup8\n        /* \"tokenweb3.sol\":3028:3045  balances[_sender] */\n      0xffffffffffffffffffffffffffffffffffffffff\n      and\n      0xffffffffffffffffffffffffffffffffffffffff\n      and\n      dup2\n      mstore\n      0x20\n      add\n      swap1\n      dup2\n      mstore\n      0x20\n      add\n      0x00\n      keccak256\n      sload\n        /* \"tokenweb3.sol\":3028:3049  balances[_sender].sub */\n      tag_46\n      swap1\n        /* \"tokenweb3.sol\":3028:3058  balances[_sender].sub(_amount) */\n      swap2\n      swap1\n      0xffffffff\n      and\n      jump\t// in\n    tag_45:\n        /* \"tokenweb3.sol\":3008:3016  balances */\n      0x05\n        /* \"tokenweb3.sol\":3008:3025  balances[_sender] */\n      0x00\n        /* \"tokenweb3.sol\":3017:3024  _sender */\n      dup7\n        /* \"tokenweb3.sol\":3008:3025  balances[_sender] */\n      0xffffffffffffffffffffffffffffffffffffffff\n      and\n      0xffffffffffffffffffffffffffffffffffffffff\n      and\n      dup2\n      mstore\n      0x20\n      add\n      swap1\n      dup2\n      mstore\n      0x20\n      add\n      0x00\n      keccak256\n        /* \"tokenweb3.sol\":3008:3058  balances[_sender] = balances[_sender].sub(_amount) */\n      dup2\n      swap1\n      sstore\n      pop\n        /* \"tokenweb3.sol\":3156:3188  balances[_receiver].add(_amount) */\n      tag_47\n        /* \"tokenweb3.sol\":3180:3187  _amount */\n      dup3\n        /* \"tokenweb3.sol\":3156:3164  balances */\n      0x05\n        /* \"tokenweb3.sol\":3156:3175  balances[_receiver] */\n      0x00\n        /* \"tokenweb3.sol\":3165:3174  _receiver */\n      dup7\n        /* \"tokenweb3.sol\":3156:3175  balances[_receiver] */\n      0xffffffffffffffffffffffffffffffffffffffff\n      and\n      0xffffffffffffffffffffffffffffffffffffffff\n      and\n      dup2\n      mstore\n      0x20\n      add\n      swap1\n      dup2\n      mstore\n      0x20\n      add\n      0x00\n      keccak256\n      sload\n        /* \"tokenweb3.sol\":3156:3179  balances[_receiver].add */\n      tag_48\n      swap1\n        /* \"tokenweb3.sol\":3156:3188  balances[_receiver].add(_amount) */\n      swap2\n      swap1\n      0xffffffff\n      and\n      jump\t// in\n    tag_47:\n        /* \"tokenweb3.sol\":3134:3142  balances */\n      0x05\n        /* \"tokenweb3.sol\":3134:3153  balances[_receiver] */\n      0x00\n        /* \"tokenweb3.sol\":3143:3152  _receiver */\n      dup6\n        /* \"tokenweb3.sol\":3134:3153  balances[_receiver] */\n      0xffffffffffffffffffffffffffffffffffffffff\n      and\n      0xffffffffffffffffffffffffffffffffffffffff\n      and\n      dup2\n      mstore\n      0x20\n      add\n      swap1\n      dup2\n      mstore\n      0x20\n      add\n      0x00\n      keccak256\n        /* \"tokenweb3.sol\":3134:3188  balances[_receiver] = balances[_receiver].add(_amount) */\n      dup2\n      swap1\n      sstore\n      pop\n        /* \"tokenweb3.sol\":3301:3342  allowed[_sender][msg.sender].sub(_amount) */\n      tag_49\n        /* \"tokenweb3.sol\":3334:3341  _amount */\n      dup3\n        /* \"tokenweb3.sol\":3301:3308  allowed */\n      0x06\n        /* \"tokenweb3.sol\":3301:3317  allowed[_sender] */\n      0x00\n        /* \"tokenweb3.sol\":3309:3316  _sender */\n      dup8\n        /* \"tokenweb3.sol\":3301:3317  allowed[_sender] */\n      0xffffffffffffffffffffffffffffffffffffffff\n      and\n      0xffffffffffffffffffffffffffffffffffffffff\n      and\n      dup2\n      mstore\n      0x20\n      add\n      swap1\n      dup2\n      mstore\n      0x20\n      add\n      0x00\n      keccak256\n        /* \"tokenweb3.sol\":3301:3329  allowed[_sender][msg.sender] */\n      0x00\n        /* \"tokenweb3.sol\":3318:3328  msg.sender */\n      caller\n        /* \"tokenweb3.sol\":3301:3329  allowed[_sender][msg.sender] */\n      0xffffffffffffffffffffffffffffffffffffffff\n      and\n      0xffffffffffffffffffffffffffffffffffffffff\n      and\n      dup2\n      mstore\n      0x20\n      add\n      swap1\n      dup2\n      mstore\n      0x20\n      add\n      0x00\n      keccak256\n      sload\n        /* \"tokenweb3.sol\":3301:3333  allowed[_sender][msg.sender].sub */\n      tag_46\n      swap1\n        /* \"tokenweb3.sol\":3301:3342  allowed[_sender][msg.sender].sub(_amount) */\n      swap2\n      swap1\n      0xffffffff\n      and\n      jump\t// in\n    tag_49:\n        /* \"tokenweb3.sol\":3270:3277  allowed */\n      0x06\n        /* \"tokenweb3.sol\":3270:3286  allowed[_sender] */\n      0x00\n        /* \"tokenweb3.sol\":3278:3285  _sender */\n      dup7\n        /* \"tokenweb3.sol\":3270:3286  allowed[_sender] */\n      0xffffffffffffffffffffffffffffffffffffffff\n      and\n      0xffffffffffffffffffffffffffffffffffffffff\n      and\n      dup2\n      mstore\n      0x20\n      add\n      swap1\n      dup2\n      mstore\n      0x20\n      add\n      0x00\n      keccak256\n        /* \"tokenweb3.sol\":3270:3298  allowed[_sender][msg.sender] */\n      0x00\n        /* \"tokenweb3.sol\":3287:3297  msg.sender */\n      caller\n        /* \"tokenweb3.sol\":3270:3298  allowed[_sender][msg.sender] */\n      0xffffffffffffffffffffffffffffffffffffffff\n      and\n      0xffffffffffffffffffffffffffffffffffffffff\n      and\n      dup2\n      mstore\n      0x20\n      add\n      swap1\n      dup2\n      mstore\n      0x20\n      add\n      0x00\n      keccak256\n        /* \"tokenweb3.sol\":3270:3342  allowed[_sender][msg.sender] = allowed[_sender][msg.sender].sub(_amount) */\n      dup2\n      swap1\n      sstore\n      pop\n        /* \"tokenweb3.sol\":3410:3419  _receiver */\n      dup3\n        /* \"tokenweb3.sol\":3392:3429  TRANSFER(_sender, _receiver, _amount) */\n      0xffffffffffffffffffffffffffffffffffffffff\n      and\n        /* \"tokenweb3.sol\":3401:3408  _sender */\n      dup5\n        /* \"tokenweb3.sol\":3392:3429  TRANSFER(_sender, _receiver, _amount) */\n      0xffffffffffffffffffffffffffffffffffffffff\n      and\n      0xc951f2d1cb32bb3b3eb40d2f8be24aa5e7586a00252c401a21ebba36d4b088a9\n        /* \"tokenweb3.sol\":3421:3428  _amount */\n      dup5\n        /* \"tokenweb3.sol\":3392:3429  TRANSFER(_sender, _receiver, _amount) */\n      mload(0x40)\n      tag_50\n      swap2\n      swap1\n      tag_14\n      jump\t// in\n    tag_50:\n      mload(0x40)\n      dup1\n      swap2\n      sub\n      swap1\n      log3\n        /* \"tokenweb3.sol\":3503:3507  true */\n      0x01\n        /* \"tokenweb3.sol\":3496:3507  return true */\n      swap1\n      pop\n        /* \"tokenweb3.sol\":2311:3515  function transferFrom(address _sender, address _receiver, uint _amount) public returns (bool) {... */\n      swap4\n      swap3\n      pop\n      pop\n      pop\n      jump\t// out\n        /* \"tokenweb3.sol\":571:596  uint public decimals = 18 */\n    tag_22:\n      sload(0x02)\n      dup2\n      jump\t// out\n        /* \"tokenweb3.sol\":487:529  string public tokenName = \"web3ClubsToken\" */\n    tag_25:\n      0x00\n      dup1\n      sload\n      tag_51\n      swap1\n      tag_52\n      jump\t// in\n    tag_51:\n      dup1\n      0x1f\n      add\n      0x20\n      dup1\n      swap2\n      div\n      mul\n      0x20\n      add\n      mload(0x40)\n      swap1\n      dup2\n      add\n      0x40\n      mstore\n      dup1\n      swap3\n      swap2\n      swap1\n      dup2\n      dup2\n      mstore\n      0x20\n      add\n      dup3\n      dup1\n      sload\n      tag_53\n      swap1\n      tag_52\n      jump\t// in\n    tag_53:\n      dup1\n      iszero\n      tag_54\n      jumpi\n      dup1\n      0x1f\n      lt\n      tag_55\n      jumpi\n      0x0100\n      dup1\n      dup4\n      sload\n      div\n      mul\n      dup4\n      mstore\n      swap2\n      0x20\n      add\n      swap2\n      jump(tag_54)\n    tag_55:\n      dup3\n      add\n      swap2\n      swap1\n      0x00\n      mstore\n      keccak256(0x00, 0x20)\n      swap1\n    tag_56:\n      dup2\n      sload\n      dup2\n      mstore\n      swap1\n      0x01\n      add\n      swap1\n      0x20\n      add\n      dup1\n      dup4\n      gt\n      tag_56\n      jumpi\n      dup3\n      swap1\n      sub\n      0x1f\n      and\n      dup3\n      add\n      swap2\n    tag_54:\n      pop\n      pop\n      pop\n      pop\n      pop\n      dup2\n      jump\t// out\n        /* \"tokenweb3.sol\":603:654  uint public decimalFactor = 10 ** uint256(decimals) */\n    tag_29:\n      sload(0x03)\n      dup2\n      jump\t// out\n        /* \"tokenweb3.sol\":536:564  string public symbol = \"WCT\" */\n    tag_32:\n      0x01\n      dup1\n      sload\n      tag_57\n      swap1\n      tag_52\n      jump\t// in\n    tag_57:\n      dup1\n      0x1f\n      add\n      0x20\n      dup1\n      swap2\n      div\n      mul\n      0x20\n      add\n      mload(0x40)\n      swap1\n      dup2\n      add\n      0x40\n      mstore\n      dup1\n      swap3\n      swap2\n      swap1\n      dup2\n      dup2\n      mstore\n      0x20\n      add\n      dup3\n      dup1\n      sload\n      tag_58\n      swap1\n      tag_52\n      jump\t// in\n    tag_58:\n      dup1\n      iszero\n      tag_59\n      jumpi\n      dup1\n      0x1f\n      lt\n      tag_60\n      jumpi\n      0x0100\n      dup1\n      dup4\n      sload\n      div\n      mul\n      dup4\n      mstore\n      swap2\n      0x20\n      add\n      swap2\n      jump(tag_59)\n    tag_60:\n      dup3\n      add\n      swap2\n      swap1\n      0x00\n      mstore\n      keccak256(0x00, 0x20)\n      swap1\n    tag_61:\n      dup2\n      sload\n      dup2\n      mstore\n      swap1\n      0x01\n      add\n      swap1\n      0x20\n      add\n      dup1\n      dup4\n      gt\n      tag_61\n      jumpi\n      dup3\n      swap1\n      sub\n      0x1f\n      and\n      dup3\n      add\n      swap2\n    tag_59:\n      pop\n      pop\n      pop\n      pop\n      pop\n      dup2\n      jump\t// out\n        /* \"tokenweb3.sol\":1391:2201  function transfer(address _receiver, uint _amount) public returns (bool) {... */\n    tag_37:\n        /* \"tokenweb3.sol\":1458:1462  bool */\n      0x00\n        /* \"tokenweb3.sol\":1597:1598  0 */\n      dup1\n        /* \"tokenweb3.sol\":1576:1599  _receiver != address(0) */\n      0xffffffffffffffffffffffffffffffffffffffff\n      and\n        /* \"tokenweb3.sol\":1576:1585  _receiver */\n      dup4\n        /* \"tokenweb3.sol\":1576:1599  _receiver != address(0) */\n      0xffffffffffffffffffffffffffffffffffffffff\n      and\n      sub\n        /* \"tokenweb3.sol\":1568:1600  require(_receiver != address(0)) */\n      tag_63\n      jumpi\n      0x00\n      dup1\n      revert\n    tag_63:\n        /* \"tokenweb3.sol\":1632:1642  msg.sender */\n      caller\n        /* \"tokenweb3.sol\":1619:1642  _receiver != msg.sender */\n      0xffffffffffffffffffffffffffffffffffffffff\n      and\n        /* \"tokenweb3.sol\":1619:1628  _receiver */\n      dup4\n        /* \"tokenweb3.sol\":1619:1642  _receiver != msg.sender */\n      0xffffffffffffffffffffffffffffffffffffffff\n      and\n      sub\n        /* \"tokenweb3.sol\":1611:1643  require(_receiver != msg.sender) */\n      tag_64\n      jumpi\n      0x00\n      dup1\n      revert\n    tag_64:\n        /* \"tokenweb3.sol\":1748:1755  _amount */\n      dup2\n        /* \"tokenweb3.sol\":1724:1732  balances */\n      0x05\n        /* \"tokenweb3.sol\":1724:1744  balances[msg.sender] */\n      0x00\n        /* \"tokenweb3.sol\":1733:1743  msg.sender */\n      caller\n        /* \"tokenweb3.sol\":1724:1744  balances[msg.sender] */\n      0xffffffffffffffffffffffffffffffffffffffff\n      and\n      0xffffffffffffffffffffffffffffffffffffffff\n      and\n      dup2\n      mstore\n      0x20\n      add\n      swap1\n      dup2\n      mstore\n      0x20\n      add\n      0x00\n      keccak256\n      sload\n        /* \"tokenweb3.sol\":1724:1755  balances[msg.sender] >= _amount */\n      lt\n      iszero\n        /* \"tokenweb3.sol\":1716:1756  require(balances[msg.sender] >= _amount) */\n      tag_65\n      jumpi\n      0x00\n      dup1\n      revert\n    tag_65:\n        /* \"tokenweb3.sol\":1862:1895  balances[msg.sender].sub(_amount) */\n      tag_66\n        /* \"tokenweb3.sol\":1887:1894  _amount */\n      dup3\n        /* \"tokenweb3.sol\":1862:1870  balances */\n      0x05\n        /* \"tokenweb3.sol\":1862:1882  balances[msg.sender] */\n      0x00\n        /* \"tokenweb3.sol\":1871:1881  msg.sender */\n      caller\n        /* \"tokenweb3.sol\":1862:1882  balances[msg.sender] */\n      0xffffffffffffffffffffffffffffffffffffffff\n      and\n      0xffffffffffffffffffffffffffffffffffffffff\n      and\n      dup2\n      mstore\n      0x20\n      add\n      swap1\n      dup2\n      mstore\n      0x20\n      add\n      0x00\n      keccak256\n      sload\n        /* \"tokenweb3.sol\":1862:1886  balances[msg.sender].sub */\n      tag_46\n      swap1\n        /* \"tokenweb3.sol\":1862:1895  balances[msg.sender].sub(_amount) */\n      swap2\n      swap1\n      0xffffffff\n      and\n      jump\t// in\n    tag_66:\n        /* \"tokenweb3.sol\":1839:1847  balances */\n      0x05\n        /* \"tokenweb3.sol\":1839:1859  balances[msg.sender] */\n      0x00\n        /* \"tokenweb3.sol\":1848:1858  msg.sender */\n      caller\n        /* \"tokenweb3.sol\":1839:1859  balances[msg.sender] */\n      0xffffffffffffffffffffffffffffffffffffffff\n      and\n      0xffffffffffffffffffffffffffffffffffffffff\n      and\n      dup2\n      mstore\n      0x20\n      add\n      swap1\n      dup2\n      mstore\n      0x20\n      add\n      0x00\n      keccak256\n        /* \"tokenweb3.sol\":1839:1895  balances[msg.sender] = balances[msg.sender].sub(_amount) */\n      dup2\n      swap1\n      sstore\n      pop\n        /* \"tokenweb3.sol\":1993:2025  balances[_receiver].add(_amount) */\n      tag_67\n        /* \"tokenweb3.sol\":2017:2024  _amount */\n      dup3\n        /* \"tokenweb3.sol\":1993:2001  balances */\n      0x05\n        /* \"tokenweb3.sol\":1993:2012  balances[_receiver] */\n      0x00\n        /* \"tokenweb3.sol\":2002:2011  _receiver */\n      dup7\n        /* \"tokenweb3.sol\":1993:2012  balances[_receiver] */\n      0xffffffffffffffffffffffffffffffffffffffff\n      and\n      0xffffffffffffffffffffffffffffffffffffffff\n      and\n      dup2\n      mstore\n      0x20\n      add\n      swap1\n      dup2\n      mstore\n      0x20\n      add\n      0x00\n      keccak256\n      sload\n        /* \"tokenweb3.sol\":1993:2016  balances[_receiver].add */\n      tag_48\n      swap1\n        /* \"tokenweb3.sol\":1993:2025  balances[_receiver].add(_amount) */\n      swap2\n      swap1\n      0xffffffff\n      and\n      jump\t// in\n    tag_67:\n        /* \"tokenweb3.sol\":1971:1979  balances */\n      0x05\n        /* \"tokenweb3.sol\":1971:1990  balances[_receiver] */\n      0x00\n        /* \"tokenweb3.sol\":1980:1989  _receiver */\n      dup6\n        /* \"tokenweb3.sol\":1971:1990  balances[_receiver] */\n      0xffffffffffffffffffffffffffffffffffffffff\n      and\n      0xffffffffffffffffffffffffffffffffffffffff\n      and\n      dup2\n      mstore\n      0x20\n      add\n      swap1\n      dup2\n      mstore\n      0x20\n      add\n      0x00\n      keccak256\n        /* \"tokenweb3.sol\":1971:2025  balances[_receiver] = balances[_receiver].add(_amount) */\n      dup2\n      swap1\n      sstore\n      pop\n        /* \"tokenweb3.sol\":2096:2105  _receiver */\n      dup3\n        /* \"tokenweb3.sol\":2075:2115  TRANSFER(msg.sender, _receiver, _amount) */\n      0xffffffffffffffffffffffffffffffffffffffff\n      and\n        /* \"tokenweb3.sol\":2084:2094  msg.sender */\n      caller\n        /* \"tokenweb3.sol\":2075:2115  TRANSFER(msg.sender, _receiver, _amount) */\n      0xffffffffffffffffffffffffffffffffffffffff\n      and\n      0xc951f2d1cb32bb3b3eb40d2f8be24aa5e7586a00252c401a21ebba36d4b088a9\n        /* \"tokenweb3.sol\":2107:2114  _amount */\n      dup5\n        /* \"tokenweb3.sol\":2075:2115  TRANSFER(msg.sender, _receiver, _amount) */\n      mload(0x40)\n      tag_68\n      swap2\n      swap1\n      tag_14\n      jump\t// in\n    tag_68:\n      mload(0x40)\n      dup1\n      swap2\n      sub\n      swap1\n      log3\n        /* \"tokenweb3.sol\":2189:2193  true */\n      0x01\n        /* \"tokenweb3.sol\":2182:2193  return true */\n      swap1\n      pop\n        /* \"tokenweb3.sol\":1391:2201  function transfer(address _receiver, uint _amount) public returns (bool) {... */\n      swap3\n      swap2\n      pop\n      pop\n      jump\t// out\n        /* \"@openzeppelin/contracts/utils/math/SafeMath.sol\":3122:3218  function sub(uint256 a, uint256 b) internal pure returns (uint256) {... */\n    tag_46:\n        /* \"@openzeppelin/contracts/utils/math/SafeMath.sol\":3180:3187  uint256 */\n      0x00\n        /* \"@openzeppelin/contracts/utils/math/SafeMath.sol\":3210:3211  b */\n      dup2\n        /* \"@openzeppelin/contracts/utils/math/SafeMath.sol\":3206:3207  a */\n      dup4\n        /* \"@openzeppelin/contracts/utils/math/SafeMath.sol\":3206:3211  a - b */\n      tag_70\n      swap2\n      swap1\n      tag_71\n      jump\t// in\n    tag_70:\n        /* \"@openzeppelin/contracts/utils/math/SafeMath.sol\":3199:3211  return a - b */\n      swap1\n      pop\n        /* \"@openzeppelin/contracts/utils/math/SafeMath.sol\":3122:3218  function sub(uint256 a, uint256 b) internal pure returns (uint256) {... */\n      swap3\n      swap2\n      pop\n      pop\n      jump\t// out\n        /* \"@openzeppelin/contracts/utils/math/SafeMath.sol\":2755:2851  function add(uint256 a, uint256 b) internal pure returns (uint256) {... */\n    tag_48:\n        /* \"@openzeppelin/contracts/utils/math/SafeMath.sol\":2813:2820  uint256 */\n      0x00\n        /* \"@openzeppelin/contracts/utils/math/SafeMath.sol\":2843:2844  b */\n      dup2\n        /* \"@openzeppelin/contracts/utils/math/SafeMath.sol\":2839:2840  a */\n      dup4\n        /* \"@openzeppelin/contracts/utils/math/SafeMath.sol\":2839:2844  a + b */\n      tag_73\n      swap2\n      swap1\n      tag_74\n      jump\t// in\n    tag_73:\n        /* \"@openzeppelin/contracts/utils/math/SafeMath.sol\":2832:2844  return a + b */\n      swap1\n      pop\n        /* \"@openzeppelin/contracts/utils/math/SafeMath.sol\":2755:2851  function add(uint256 a, uint256 b) internal pure returns (uint256) {... */\n      swap3\n      swap2\n      pop\n      pop\n      jump\t// out\n        /* \"#utility.yul\":7:84   */\n    tag_75:\n        /* \"#utility.yul\":44:51   */\n      0x00\n        /* \"#utility.yul\":73:78   */\n      dup2\n        /* \"#utility.yul\":62:78   */\n      swap1\n      pop\n        /* \"#utility.yul\":7:84   */\n      swap2\n      swap1\n      pop\n      jump\t// out\n        /* \"#utility.yul\":90:208   */\n    tag_76:\n        /* \"#utility.yul\":177:201   */\n      tag_98\n        /* \"#utility.yul\":195:200   */\n      dup2\n        /* \"#utility.yul\":177:201   */\n      tag_75\n      jump\t// in\n    tag_98:\n        /* \"#utility.yul\":172:175   */\n      dup3\n        /* \"#utility.yul\":165:202   */\n      mstore\n        /* \"#utility.yul\":90:208   */\n      pop\n      pop\n      jump\t// out\n        /* \"#utility.yul\":214:436   */\n    tag_14:\n        /* \"#utility.yul\":307:311   */\n      0x00\n        /* \"#utility.yul\":345:347   */\n      0x20\n        /* \"#utility.yul\":334:343   */\n      dup3\n        /* \"#utility.yul\":330:348   */\n      add\n        /* \"#utility.yul\":322:348   */\n      swap1\n      pop\n        /* \"#utility.yul\":358:429   */\n      tag_100\n        /* \"#utility.yul\":426:427   */\n      0x00\n        /* \"#utility.yul\":415:424   */\n      dup4\n        /* \"#utility.yul\":411:428   */\n      add\n        /* \"#utility.yul\":402:408   */\n      dup5\n        /* \"#utility.yul\":358:429   */\n      tag_76\n      jump\t// in\n    tag_100:\n        /* \"#utility.yul\":214:436   */\n      swap3\n      swap2\n      pop\n      pop\n      jump\t// out\n        /* \"#utility.yul\":523:640   */\n    tag_78:\n        /* \"#utility.yul\":632:633   */\n      0x00\n        /* \"#utility.yul\":629:630   */\n      dup1\n        /* \"#utility.yul\":622:634   */\n      revert\n        /* \"#utility.yul\":769:895   */\n    tag_80:\n        /* \"#utility.yul\":806:813   */\n      0x00\n        /* \"#utility.yul\":846:888   */\n      0xffffffffffffffffffffffffffffffffffffffff\n        /* \"#utility.yul\":839:844   */\n      dup3\n        /* \"#utility.yul\":835:889   */\n      and\n        /* \"#utility.yul\":824:889   */\n      swap1\n      pop\n        /* \"#utility.yul\":769:895   */\n      swap2\n      swap1\n      pop\n      jump\t// out\n        /* \"#utility.yul\":901:997   */\n    tag_81:\n        /* \"#utility.yul\":938:945   */\n      0x00\n        /* \"#utility.yul\":967:991   */\n      tag_106\n        /* \"#utility.yul\":985:990   */\n      dup3\n        /* \"#utility.yul\":967:991   */\n      tag_80\n      jump\t// in\n    tag_106:\n        /* \"#utility.yul\":956:991   */\n      swap1\n      pop\n        /* \"#utility.yul\":901:997   */\n      swap2\n      swap1\n      pop\n      jump\t// out\n        /* \"#utility.yul\":1003:1125   */\n    tag_82:\n        /* \"#utility.yul\":1076:1100   */\n      tag_108\n        /* \"#utility.yul\":1094:1099   */\n      dup2\n        /* \"#utility.yul\":1076:1100   */\n      tag_81\n      jump\t// in\n    tag_108:\n        /* \"#utility.yul\":1069:1074   */\n      dup2\n        /* \"#utility.yul\":1066:1101   */\n      eq\n        /* \"#utility.yul\":1056:1119   */\n      tag_109\n      jumpi\n        /* \"#utility.yul\":1115:1116   */\n      0x00\n        /* \"#utility.yul\":1112:1113   */\n      dup1\n        /* \"#utility.yul\":1105:1117   */\n      revert\n        /* \"#utility.yul\":1056:1119   */\n    tag_109:\n        /* \"#utility.yul\":1003:1125   */\n      pop\n      jump\t// out\n        /* \"#utility.yul\":1131:1270   */\n    tag_83:\n        /* \"#utility.yul\":1177:1182   */\n      0x00\n        /* \"#utility.yul\":1215:1221   */\n      dup2\n        /* \"#utility.yul\":1202:1222   */\n      calldataload\n        /* \"#utility.yul\":1193:1222   */\n      swap1\n      pop\n        /* \"#utility.yul\":1231:1264   */\n      tag_111\n        /* \"#utility.yul\":1258:1263   */\n      dup2\n        /* \"#utility.yul\":1231:1264   */\n      tag_82\n      jump\t// in\n    tag_111:\n        /* \"#utility.yul\":1131:1270   */\n      swap3\n      swap2\n      pop\n      pop\n      jump\t// out\n        /* \"#utility.yul\":1276:1398   */\n    tag_84:\n        /* \"#utility.yul\":1349:1373   */\n      tag_113\n        /* \"#utility.yul\":1367:1372   */\n      dup2\n        /* \"#utility.yul\":1349:1373   */\n      tag_75\n      jump\t// in\n    tag_113:\n        /* \"#utility.yul\":1342:1347   */\n      dup2\n        /* \"#utility.yul\":1339:1374   */\n      eq\n        /* \"#utility.yul\":1329:1392   */\n      tag_114\n      jumpi\n        /* \"#utility.yul\":1388:1389   */\n      0x00\n        /* \"#utility.yul\":1385:1386   */\n      dup1\n        /* \"#utility.yul\":1378:1390   */\n      revert\n        /* \"#utility.yul\":1329:1392   */\n    tag_114:\n        /* \"#utility.yul\":1276:1398   */\n      pop\n      jump\t// out\n        /* \"#utility.yul\":1404:1543   */\n    tag_85:\n        /* \"#utility.yul\":1450:1455   */\n      0x00\n        /* \"#utility.yul\":1488:1494   */\n      dup2\n        /* \"#utility.yul\":1475:1495   */\n      calldataload\n        /* \"#utility.yul\":1466:1495   */\n      swap1\n      pop\n        /* \"#utility.yul\":1504:1537   */\n      tag_116\n        /* \"#utility.yul\":1531:1536   */\n      dup2\n        /* \"#utility.yul\":1504:1537   */\n      tag_84\n      jump\t// in\n    tag_116:\n        /* \"#utility.yul\":1404:1543   */\n      swap3\n      swap2\n      pop\n      pop\n      jump\t// out\n        /* \"#utility.yul\":1549:2168   */\n    tag_17:\n        /* \"#utility.yul\":1626:1632   */\n      0x00\n        /* \"#utility.yul\":1634:1640   */\n      dup1\n        /* \"#utility.yul\":1642:1648   */\n      0x00\n        /* \"#utility.yul\":1691:1693   */\n      0x60\n        /* \"#utility.yul\":1679:1688   */\n      dup5\n        /* \"#utility.yul\":1670:1677   */\n      dup7\n        /* \"#utility.yul\":1666:1689   */\n      sub\n        /* \"#utility.yul\":1662:1694   */\n      slt\n        /* \"#utility.yul\":1659:1778   */\n      iszero\n      tag_118\n      jumpi\n        /* \"#utility.yul\":1697:1776   */\n      tag_119\n      tag_78\n      jump\t// in\n    tag_119:\n        /* \"#utility.yul\":1659:1778   */\n    tag_118:\n        /* \"#utility.yul\":1817:1818   */\n      0x00\n        /* \"#utility.yul\":1842:1895   */\n      tag_120\n        /* \"#utility.yul\":1887:1894   */\n      dup7\n        /* \"#utility.yul\":1878:1884   */\n      dup3\n        /* \"#utility.yul\":1867:1876   */\n      dup8\n        /* \"#utility.yul\":1863:1885   */\n      add\n        /* \"#utility.yul\":1842:1895   */\n      tag_83\n      jump\t// in\n    tag_120:\n        /* \"#utility.yul\":1832:1895   */\n      swap4\n      pop\n        /* \"#utility.yul\":1788:1905   */\n      pop\n        /* \"#utility.yul\":1944:1946   */\n      0x20\n        /* \"#utility.yul\":1970:2023   */\n      tag_121\n        /* \"#utility.yul\":2015:2022   */\n      dup7\n        /* \"#utility.yul\":2006:2012   */\n      dup3\n        /* \"#utility.yul\":1995:2004   */\n      dup8\n        /* \"#utility.yul\":1991:2013   */\n      add\n        /* \"#utility.yul\":1970:2023   */\n      tag_83\n      jump\t// in\n    tag_121:\n        /* \"#utility.yul\":1960:2023   */\n      swap3\n      pop\n        /* \"#utility.yul\":1915:2033   */\n      pop\n        /* \"#utility.yul\":2072:2074   */\n      0x40\n        /* \"#utility.yul\":2098:2151   */\n      tag_122\n        /* \"#utility.yul\":2143:2150   */\n      dup7\n        /* \"#utility.yul\":2134:2140   */\n      dup3\n        /* \"#utility.yul\":2123:2132   */\n      dup8\n        /* \"#utility.yul\":2119:2141   */\n      add\n        /* \"#utility.yul\":2098:2151   */\n      tag_85\n      jump\t// in\n    tag_122:\n        /* \"#utility.yul\":2088:2151   */\n      swap2\n      pop\n        /* \"#utility.yul\":2043:2161   */\n      pop\n        /* \"#utility.yul\":1549:2168   */\n      swap3\n      pop\n      swap3\n      pop\n      swap3\n      jump\t// out\n        /* \"#utility.yul\":2174:2264   */\n    tag_86:\n        /* \"#utility.yul\":2208:2215   */\n      0x00\n        /* \"#utility.yul\":2251:2256   */\n      dup2\n        /* \"#utility.yul\":2244:2257   */\n      iszero\n        /* \"#utility.yul\":2237:2258   */\n      iszero\n        /* \"#utility.yul\":2226:2258   */\n      swap1\n      pop\n        /* \"#utility.yul\":2174:2264   */\n      swap2\n      swap1\n      pop\n      jump\t// out\n        /* \"#utility.yul\":2270:2379   */\n    tag_87:\n        /* \"#utility.yul\":2351:2372   */\n      tag_125\n        /* \"#utility.yul\":2366:2371   */\n      dup2\n        /* \"#utility.yul\":2351:2372   */\n      tag_86\n      jump\t// in\n    tag_125:\n        /* \"#utility.yul\":2346:2349   */\n      dup3\n        /* \"#utility.yul\":2339:2373   */\n      mstore\n        /* \"#utility.yul\":2270:2379   */\n      pop\n      pop\n      jump\t// out\n        /* \"#utility.yul\":2385:2595   */\n    tag_20:\n        /* \"#utility.yul\":2472:2476   */\n      0x00\n        /* \"#utility.yul\":2510:2512   */\n      0x20\n        /* \"#utility.yul\":2499:2508   */\n      dup3\n        /* \"#utility.yul\":2495:2513   */\n      add\n        /* \"#utility.yul\":2487:2513   */\n      swap1\n      pop\n        /* \"#utility.yul\":2523:2588   */\n      tag_127\n        /* \"#utility.yul\":2585:2586   */\n      0x00\n        /* \"#utility.yul\":2574:2583   */\n      dup4\n        /* \"#utility.yul\":2570:2587   */\n      add\n        /* \"#utility.yul\":2561:2567   */\n      dup5\n        /* \"#utility.yul\":2523:2588   */\n      tag_87\n      jump\t// in\n    tag_127:\n        /* \"#utility.yul\":2385:2595   */\n      swap3\n      swap2\n      pop\n      pop\n      jump\t// out\n        /* \"#utility.yul\":2601:2700   */\n    tag_88:\n        /* \"#utility.yul\":2653:2659   */\n      0x00\n        /* \"#utility.yul\":2687:2692   */\n      dup2\n        /* \"#utility.yul\":2681:2693   */\n      mload\n        /* \"#utility.yul\":2671:2693   */\n      swap1\n      pop\n        /* \"#utility.yul\":2601:2700   */\n      swap2\n      swap1\n      pop\n      jump\t// out\n        /* \"#utility.yul\":2706:2875   */\n    tag_89:\n        /* \"#utility.yul\":2790:2801   */\n      0x00\n        /* \"#utility.yul\":2824:2830   */\n      dup3\n        /* \"#utility.yul\":2819:2822   */\n      dup3\n        /* \"#utility.yul\":2812:2831   */\n      mstore\n        /* \"#utility.yul\":2864:2868   */\n      0x20\n        /* \"#utility.yul\":2859:2862   */\n      dup3\n        /* \"#utility.yul\":2855:2869   */\n      add\n        /* \"#utility.yul\":2840:2869   */\n      swap1\n      pop\n        /* \"#utility.yul\":2706:2875   */\n      swap3\n      swap2\n      pop\n      pop\n      jump\t// out\n        /* \"#utility.yul\":2881:3127   */\n    tag_90:\n        /* \"#utility.yul\":2962:2963   */\n      0x00\n        /* \"#utility.yul\":2972:3085   */\n    tag_131:\n        /* \"#utility.yul\":2986:2992   */\n      dup4\n        /* \"#utility.yul\":2983:2984   */\n      dup2\n        /* \"#utility.yul\":2980:2993   */\n      lt\n        /* \"#utility.yul\":2972:3085   */\n      iszero\n      tag_133\n      jumpi\n        /* \"#utility.yul\":3071:3072   */\n      dup1\n        /* \"#utility.yul\":3066:3069   */\n      dup3\n        /* \"#utility.yul\":3062:3073   */\n      add\n        /* \"#utility.yul\":3056:3074   */\n      mload\n        /* \"#utility.yul\":3052:3053   */\n      dup2\n        /* \"#utility.yul\":3047:3050   */\n      dup5\n        /* \"#utility.yul\":3043:3054   */\n      add\n        /* \"#utility.yul\":3036:3075   */\n      mstore\n        /* \"#utility.yul\":3008:3010   */\n      0x20\n        /* \"#utility.yul\":3005:3006   */\n      dup2\n        /* \"#utility.yul\":3001:3011   */\n      add\n        /* \"#utility.yul\":2996:3011   */\n      swap1\n      pop\n        /* \"#utility.yul\":2972:3085   */\n      jump(tag_131)\n    tag_133:\n        /* \"#utility.yul\":3119:3120   */\n      0x00\n        /* \"#utility.yul\":3110:3116   */\n      dup5\n        /* \"#utility.yul\":3105:3108   */\n      dup5\n        /* \"#utility.yul\":3101:3117   */\n      add\n        /* \"#utility.yul\":3094:3121   */\n      mstore\n        /* \"#utility.yul\":2943:3127   */\n      pop\n        /* \"#utility.yul\":2881:3127   */\n      pop\n      pop\n      pop\n      jump\t// out\n        /* \"#utility.yul\":3133:3235   */\n    tag_91:\n        /* \"#utility.yul\":3174:3180   */\n      0x00\n        /* \"#utility.yul\":3225:3227   */\n      0x1f\n        /* \"#utility.yul\":3221:3228   */\n      not\n        /* \"#utility.yul\":3216:3218   */\n      0x1f\n        /* \"#utility.yul\":3209:3214   */\n      dup4\n        /* \"#utility.yul\":3205:3219   */\n      add\n        /* \"#utility.yul\":3201:3229   */\n      and\n        /* \"#utility.yul\":3191:3229   */\n      swap1\n      pop\n        /* \"#utility.yul\":3133:3235   */\n      swap2\n      swap1\n      pop\n      jump\t// out\n        /* \"#utility.yul\":3241:3618   */\n    tag_92:\n        /* \"#utility.yul\":3329:3332   */\n      0x00\n        /* \"#utility.yul\":3357:3396   */\n      tag_136\n        /* \"#utility.yul\":3390:3395   */\n      dup3\n        /* \"#utility.yul\":3357:3396   */\n      tag_88\n      jump\t// in\n    tag_136:\n        /* \"#utility.yul\":3412:3483   */\n      tag_137\n        /* \"#utility.yul\":3476:3482   */\n      dup2\n        /* \"#utility.yul\":3471:3474   */\n      dup6\n        /* \"#utility.yul\":3412:3483   */\n      tag_89\n      jump\t// in\n    tag_137:\n        /* \"#utility.yul\":3405:3483   */\n      swap4\n      pop\n        /* \"#utility.yul\":3492:3557   */\n      tag_138\n        /* \"#utility.yul\":3550:3556   */\n      dup2\n        /* \"#utility.yul\":3545:3548   */\n      dup6\n        /* \"#utility.yul\":3538:3542   */\n      0x20\n        /* \"#utility.yul\":3531:3536   */\n      dup7\n        /* \"#utility.yul\":3527:3543   */\n      add\n        /* \"#utility.yul\":3492:3557   */\n      tag_90\n      jump\t// in\n    tag_138:\n        /* \"#utility.yul\":3582:3611   */\n      tag_139\n        /* \"#utility.yul\":3604:3610   */\n      dup2\n        /* \"#utility.yul\":3582:3611   */\n      tag_91\n      jump\t// in\n    tag_139:\n        /* \"#utility.yul\":3577:3580   */\n      dup5\n        /* \"#utility.yul\":3573:3612   */\n      add\n        /* \"#utility.yul\":3566:3612   */\n      swap2\n      pop\n        /* \"#utility.yul\":3333:3618   */\n      pop\n        /* \"#utility.yul\":3241:3618   */\n      swap3\n      swap2\n      pop\n      pop\n      jump\t// out\n        /* \"#utility.yul\":3624:3937   */\n    tag_27:\n        /* \"#utility.yul\":3737:3741   */\n      0x00\n        /* \"#utility.yul\":3775:3777   */\n      0x20\n        /* \"#utility.yul\":3764:3773   */\n      dup3\n        /* \"#utility.yul\":3760:3778   */\n      add\n        /* \"#utility.yul\":3752:3778   */\n      swap1\n      pop\n        /* \"#utility.yul\":3824:3833   */\n      dup2\n        /* \"#utility.yul\":3818:3822   */\n      dup2\n        /* \"#utility.yul\":3814:3834   */\n      sub\n        /* \"#utility.yul\":3810:3811   */\n      0x00\n        /* \"#utility.yul\":3799:3808   */\n      dup4\n        /* \"#utility.yul\":3795:3812   */\n      add\n        /* \"#utility.yul\":3788:3835   */\n      mstore\n        /* \"#utility.yul\":3852:3930   */\n      tag_141\n        /* \"#utility.yul\":3925:3929   */\n      dup2\n        /* \"#utility.yul\":3916:3922   */\n      dup5\n        /* \"#utility.yul\":3852:3930   */\n      tag_92\n      jump\t// in\n    tag_141:\n        /* \"#utility.yul\":3844:3930   */\n      swap1\n      pop\n        /* \"#utility.yul\":3624:3937   */\n      swap3\n      swap2\n      pop\n      pop\n      jump\t// out\n        /* \"#utility.yul\":3943:4417   */\n    tag_36:\n        /* \"#utility.yul\":4011:4017   */\n      0x00\n        /* \"#utility.yul\":4019:4025   */\n      dup1\n        /* \"#utility.yul\":4068:4070   */\n      0x40\n        /* \"#utility.yul\":4056:4065   */\n      dup4\n        /* \"#utility.yul\":4047:4054   */\n      dup6\n        /* \"#utility.yul\":4043:4066   */\n      sub\n        /* \"#utility.yul\":4039:4071   */\n      slt\n        /* \"#utility.yul\":4036:4155   */\n      iszero\n      tag_143\n      jumpi\n        /* \"#utility.yul\":4074:4153   */\n      tag_144\n      tag_78\n      jump\t// in\n    tag_144:\n        /* \"#utility.yul\":4036:4155   */\n    tag_143:\n        /* \"#utility.yul\":4194:4195   */\n      0x00\n        /* \"#utility.yul\":4219:4272   */\n      tag_145\n        /* \"#utility.yul\":4264:4271   */\n      dup6\n        /* \"#utility.yul\":4255:4261   */\n      dup3\n        /* \"#utility.yul\":4244:4253   */\n      dup7\n        /* \"#utility.yul\":4240:4262   */\n      add\n        /* \"#utility.yul\":4219:4272   */\n      tag_83\n      jump\t// in\n    tag_145:\n        /* \"#utility.yul\":4209:4272   */\n      swap3\n      pop\n        /* \"#utility.yul\":4165:4282   */\n      pop\n        /* \"#utility.yul\":4321:4323   */\n      0x20\n        /* \"#utility.yul\":4347:4400   */\n      tag_146\n        /* \"#utility.yul\":4392:4399   */\n      dup6\n        /* \"#utility.yul\":4383:4389   */\n      dup3\n        /* \"#utility.yul\":4372:4381   */\n      dup7\n        /* \"#utility.yul\":4368:4390   */\n      add\n        /* \"#utility.yul\":4347:4400   */\n      tag_85\n      jump\t// in\n    tag_146:\n        /* \"#utility.yul\":4337:4400   */\n      swap2\n      pop\n        /* \"#utility.yul\":4292:4410   */\n      pop\n        /* \"#utility.yul\":3943:4417   */\n      swap3\n      pop\n      swap3\n      swap1\n      pop\n      jump\t// out\n        /* \"#utility.yul\":4423:4603   */\n    tag_93:\n        /* \"#utility.yul\":4471:4548   */\n      0x4e487b7100000000000000000000000000000000000000000000000000000000\n        /* \"#utility.yul\":4468:4469   */\n      0x00\n        /* \"#utility.yul\":4461:4549   */\n      mstore\n        /* \"#utility.yul\":4568:4572   */\n      0x22\n        /* \"#utility.yul\":4565:4566   */\n      0x04\n        /* \"#utility.yul\":4558:4573   */\n      mstore\n        /* \"#utility.yul\":4592:4596   */\n      0x24\n        /* \"#utility.yul\":4589:4590   */\n      0x00\n        /* \"#utility.yul\":4582:4597   */\n      revert\n        /* \"#utility.yul\":4609:4929   */\n    tag_52:\n        /* \"#utility.yul\":4653:4659   */\n      0x00\n        /* \"#utility.yul\":4690:4691   */\n      0x02\n        /* \"#utility.yul\":4684:4688   */\n      dup3\n        /* \"#utility.yul\":4680:4692   */\n      div\n        /* \"#utility.yul\":4670:4692   */\n      swap1\n      pop\n        /* \"#utility.yul\":4737:4738   */\n      0x01\n        /* \"#utility.yul\":4731:4735   */\n      dup3\n        /* \"#utility.yul\":4727:4739   */\n      and\n        /* \"#utility.yul\":4758:4776   */\n      dup1\n        /* \"#utility.yul\":4748:4829   */\n      tag_149\n      jumpi\n        /* \"#utility.yul\":4814:4818   */\n      0x7f\n        /* \"#utility.yul\":4806:4812   */\n      dup3\n        /* \"#utility.yul\":4802:4819   */\n      and\n        /* \"#utility.yul\":4792:4819   */\n      swap2\n      pop\n        /* \"#utility.yul\":4748:4829   */\n    tag_149:\n        /* \"#utility.yul\":4876:4878   */\n      0x20\n        /* \"#utility.yul\":4868:4874   */\n      dup3\n        /* \"#utility.yul\":4865:4879   */\n      lt\n        /* \"#utility.yul\":4845:4863   */\n      dup2\n        /* \"#utility.yul\":4842:4880   */\n      sub\n        /* \"#utility.yul\":4839:4923   */\n      tag_150\n      jumpi\n        /* \"#utility.yul\":4895:4913   */\n      tag_151\n      tag_93\n      jump\t// in\n    tag_151:\n        /* \"#utility.yul\":4839:4923   */\n    tag_150:\n        /* \"#utility.yul\":4660:4929   */\n      pop\n        /* \"#utility.yul\":4609:4929   */\n      swap2\n      swap1\n      pop\n      jump\t// out\n        /* \"#utility.yul\":4935:5115   */\n    tag_94:\n        /* \"#utility.yul\":4983:5060   */\n      0x4e487b7100000000000000000000000000000000000000000000000000000000\n        /* \"#utility.yul\":4980:4981   */\n      0x00\n        /* \"#utility.yul\":4973:5061   */\n      mstore\n        /* \"#utility.yul\":5080:5084   */\n      0x11\n        /* \"#utility.yul\":5077:5078   */\n      0x04\n        /* \"#utility.yul\":5070:5085   */\n      mstore\n        /* \"#utility.yul\":5104:5108   */\n      0x24\n        /* \"#utility.yul\":5101:5102   */\n      0x00\n        /* \"#utility.yul\":5094:5109   */\n      revert\n        /* \"#utility.yul\":5121:5315   */\n    tag_71:\n        /* \"#utility.yul\":5161:5165   */\n      0x00\n        /* \"#utility.yul\":5181:5201   */\n      tag_154\n        /* \"#utility.yul\":5199:5200   */\n      dup3\n        /* \"#utility.yul\":5181:5201   */\n      tag_75\n      jump\t// in\n    tag_154:\n        /* \"#utility.yul\":5176:5201   */\n      swap2\n      pop\n        /* \"#utility.yul\":5215:5235   */\n      tag_155\n        /* \"#utility.yul\":5233:5234   */\n      dup4\n        /* \"#utility.yul\":5215:5235   */\n      tag_75\n      jump\t// in\n    tag_155:\n        /* \"#utility.yul\":5210:5235   */\n      swap3\n      pop\n        /* \"#utility.yul\":5259:5260   */\n      dup3\n        /* \"#utility.yul\":5256:5257   */\n      dup3\n        /* \"#utility.yul\":5252:5261   */\n      sub\n        /* \"#utility.yul\":5244:5261   */\n      swap1\n      pop\n        /* \"#utility.yul\":5283:5284   */\n      dup2\n        /* \"#utility.yul\":5277:5281   */\n      dup2\n        /* \"#utility.yul\":5274:5285   */\n      gt\n        /* \"#utility.yul\":5271:5308   */\n      iszero\n      tag_156\n      jumpi\n        /* \"#utility.yul\":5288:5306   */\n      tag_157\n      tag_94\n      jump\t// in\n    tag_157:\n        /* \"#utility.yul\":5271:5308   */\n    tag_156:\n        /* \"#utility.yul\":5121:5315   */\n      swap3\n      swap2\n      pop\n      pop\n      jump\t// out\n        /* \"#utility.yul\":5321:5512   */\n    tag_74:\n        /* \"#utility.yul\":5361:5364   */\n      0x00\n        /* \"#utility.yul\":5380:5400   */\n      tag_159\n        /* \"#utility.yul\":5398:5399   */\n      dup3\n        /* \"#utility.yul\":5380:5400   */\n      tag_75\n      jump\t// in\n    tag_159:\n        /* \"#utility.yul\":5375:5400   */\n      swap2\n      pop\n        /* \"#utility.yul\":5414:5434   */\n      tag_160\n        /* \"#utility.yul\":5432:5433   */\n      dup4\n        /* \"#utility.yul\":5414:5434   */\n      tag_75\n      jump\t// in\n    tag_160:\n        /* \"#utility.yul\":5409:5434   */\n      swap3\n      pop\n        /* \"#utility.yul\":5457:5458   */\n      dup3\n        /* \"#utility.yul\":5454:5455   */\n      dup3\n        /* \"#utility.yul\":5450:5459   */\n      add\n        /* \"#utility.yul\":5443:5459   */\n      swap1\n      pop\n        /* \"#utility.yul\":5478:5481   */\n      dup1\n        /* \"#utility.yul\":5475:5476   */\n      dup3\n        /* \"#utility.yul\":5472:5482   */\n      gt\n        /* \"#utility.yul\":5469:5505   */\n      iszero\n      tag_161\n      jumpi\n        /* \"#utility.yul\":5485:5503   */\n      tag_162\n      tag_94\n      jump\t// in\n    tag_162:\n        /* \"#utility.yul\":5469:5505   */\n    tag_161:\n        /* \"#utility.yul\":5321:5512   */\n      swap3\n      swap2\n      pop\n      pop\n      jump\t// out\n\n    auxdata: 0xa2646970667358221220cff01c6e8a8bd87cde796d9267859891894c282cb1528655a0deb789a522756464736f6c63430008120033\n}\n",
				"bytecode": {
					"linkReferences": {},
					"object": "60806040526040518060400160405280600e81526020017f77656233436c756273546f6b656e000000000000000000000000000000000000815250600090816200004a9190620003c0565b506040518060400160405280600381526020017f574354000000000000000000000000000000000000000000000000000000000081525060019081620000919190620003c0565b506012600255600254600a620000a891906200062a565b600355600354620f4240620000be91906200067b565b600455348015620000ce57600080fd5b50604051620013fb380380620013fb8339818101604052810190620000f49190620006fc565b600454600560003373ffffffffffffffffffffffffffffffffffffffff1673ffffffffffffffffffffffffffffffffffffffff168152602001908152602001600020819055506004549050506200072e565b600081519050919050565b7f4e487b7100000000000000000000000000000000000000000000000000000000600052604160045260246000fd5b7f4e487b7100000000000000000000000000000000000000000000000000000000600052602260045260246000fd5b60006002820490506001821680620001c857607f821691505b602082108103620001de57620001dd62000180565b5b50919050565b60008190508160005260206000209050919050565b60006020601f8301049050919050565b600082821b905092915050565b600060088302620002487fffffffffffffffffffffffffffffffffffffffffffffffffffffffffffffffff8262000209565b62000254868362000209565b95508019841693508086168417925050509392505050565b6000819050919050565b6000819050919050565b6000620002a16200029b62000295846200026c565b62000276565b6200026c565b9050919050565b6000819050919050565b620002bd8362000280565b620002d5620002cc82620002a8565b84845462000216565b825550505050565b600090565b620002ec620002dd565b620002f9818484620002b2565b505050565b5b81811015620003215762000315600082620002e2565b600181019050620002ff565b5050565b601f82111562000370576200033a81620001e4565b6200034584620001f9565b8101602085101562000355578190505b6200036d6200036485620001f9565b830182620002fe565b50505b505050565b600082821c905092915050565b6000620003956000198460080262000375565b1980831691505092915050565b6000620003b0838362000382565b9150826002028217905092915050565b620003cb8262000146565b67ffffffffffffffff811115620003e757620003e662000151565b5b620003f38254620001af565b6200040082828562000325565b600060209050601f83116001811462000438576000841562000423578287015190505b6200042f8582620003a2565b8655506200049f565b601f1984166200044886620001e4565b60005b8281101562000472578489015182556001820191506020850194506020810190506200044b565b868310156200049257848901516200048e601f89168262000382565b8355505b6001600288020188555050505b505050505050565b7f4e487b7100000000000000000000000000000000000000000000000000000000600052601160045260246000fd5b60008160011c9050919050565b6000808291508390505b600185111562000535578086048111156200050d576200050c620004a7565b5b60018516156200051d5780820291505b80810290506200052d85620004d6565b9450620004ed565b94509492505050565b60008262000550576001905062000623565b8162000560576000905062000623565b81600181146200057957600281146200058457620005ba565b600191505062000623565b60ff841115620005995762000598620004a7565b5b8360020a915084821115620005b357620005b2620004a7565b5b5062000623565b5060208310610133831016604e8410600b8410161715620005f45782820a905083811115620005ee57620005ed620004a7565b5b62000623565b620006038484846001620004e3565b925090508184048111156200061d576200061c620004a7565b5b81810290505b9392505050565b600062000637826200026c565b915062000644836200026c565b9250620006737fffffffffffffffffffffffffffffffffffffffffffffffffffffffffffffffff84846200053e565b905092915050565b600062000688826200026c565b915062000695836200026c565b9250828202620006a5816200026c565b91508282048414831517620006bf57620006be620004a7565b5b5092915050565b600080fd5b620006d6816200026c565b8114620006e257600080fd5b50565b600081519050620006f681620006cb565b92915050565b600060208284031215620007155762000714620006c6565b5b60006200072584828501620006e5565b91505092915050565b610cbd806200073e6000396000f3fe608060405234801561001057600080fd5b506004361061007d5760003560e01c80636c02a9311161005b5780636c02a931146100ee5780636d6a6a4d1461010c57806395d89b411461012a578063a9059cbb146101485761007d565b806318160ddd1461008257806323b872dd146100a0578063313ce567146100d0575b600080fd5b61008a610178565b604051610097919061096b565b60405180910390f35b6100ba60048036038101906100b59190610a15565b61017e565b6040516100c79190610a83565b60405180910390f35b6100d86105a7565b6040516100e5919061096b565b60405180910390f35b6100f66105ad565b6040516101039190610b2e565b60405180910390f35b61011461063b565b604051610121919061096b565b60405180910390f35b610132610641565b60405161013f9190610b2e565b60405180910390f35b610162600480360381019061015d9190610b50565b6106cf565b60405161016f9190610a83565b60405180910390f35b60045481565b60008073ffffffffffffffffffffffffffffffffffffffff168473ffffffffffffffffffffffffffffffffffffffff16036101b857600080fd5b600073ffffffffffffffffffffffffffffffffffffffff168373ffffffffffffffffffffffffffffffffffffffff16036101f157600080fd5b8373ffffffffffffffffffffffffffffffffffffffff168373ffffffffffffffffffffffffffffffffffffffff160361022957600080fd5b81600560008673ffffffffffffffffffffffffffffffffffffffff1673ffffffffffffffffffffffffffffffffffffffff16815260200190815260200160002054101561027557600080fd5b81600660008673ffffffffffffffffffffffffffffffffffffffff1673ffffffffffffffffffffffffffffffffffffffff16815260200190815260200160002060003373ffffffffffffffffffffffffffffffffffffffff1673ffffffffffffffffffffffffffffffffffffffff1681526020019081526020016000205410156102fe57600080fd5b61035082600560008773ffffffffffffffffffffffffffffffffffffffff1673ffffffffffffffffffffffffffffffffffffffff1681526020019081526020016000205461092690919063ffffffff16565b600560008673ffffffffffffffffffffffffffffffffffffffff1673ffffffffffffffffffffffffffffffffffffffff168152602001908152602001600020819055506103e582600560008673ffffffffffffffffffffffffffffffffffffffff1673ffffffffffffffffffffffffffffffffffffffff1681526020019081526020016000205461093c90919063ffffffff16565b600560008573ffffffffffffffffffffffffffffffffffffffff1673ffffffffffffffffffffffffffffffffffffffff168152602001908152602001600020819055506104b782600660008773ffffffffffffffffffffffffffffffffffffffff1673ffffffffffffffffffffffffffffffffffffffff16815260200190815260200160002060003373ffffffffffffffffffffffffffffffffffffffff1673ffffffffffffffffffffffffffffffffffffffff1681526020019081526020016000205461092690919063ffffffff16565b600660008673ffffffffffffffffffffffffffffffffffffffff1673ffffffffffffffffffffffffffffffffffffffff16815260200190815260200160002060003373ffffffffffffffffffffffffffffffffffffffff1673ffffffffffffffffffffffffffffffffffffffff168152602001908152602001600020819055508273ffffffffffffffffffffffffffffffffffffffff168473ffffffffffffffffffffffffffffffffffffffff167fc951f2d1cb32bb3b3eb40d2f8be24aa5e7586a00252c401a21ebba36d4b088a984604051610594919061096b565b60405180910390a3600190509392505050565b60025481565b600080546105ba90610bbf565b80601f01602080910402602001604051908101604052809291908181526020018280546105e690610bbf565b80156106335780601f1061060857610100808354040283529160200191610633565b820191906000526020600020905b81548152906001019060200180831161061657829003601f168201915b505050505081565b60035481565b6001805461064e90610bbf565b80601f016020809104026020016040519081016040528092919081815260200182805461067a90610bbf565b80156106c75780601f1061069c576101008083540402835291602001916106c7565b820191906000526020600020905b8154815290600101906020018083116106aa57829003601f168201915b505050505081565b60008073ffffffffffffffffffffffffffffffffffffffff168373ffffffffffffffffffffffffffffffffffffffff160361070957600080fd5b3373ffffffffffffffffffffffffffffffffffffffff168373ffffffffffffffffffffffffffffffffffffffff160361074157600080fd5b81600560003373ffffffffffffffffffffffffffffffffffffffff1673ffffffffffffffffffffffffffffffffffffffff16815260200190815260200160002054101561078d57600080fd5b6107df82600560003373ffffffffffffffffffffffffffffffffffffffff1673ffffffffffffffffffffffffffffffffffffffff1681526020019081526020016000205461092690919063ffffffff16565b600560003373ffffffffffffffffffffffffffffffffffffffff1673ffffffffffffffffffffffffffffffffffffffff1681526020019081526020016000208190555061087482600560008673ffffffffffffffffffffffffffffffffffffffff1673ffffffffffffffffffffffffffffffffffffffff1681526020019081526020016000205461093c90919063ffffffff16565b600560008573ffffffffffffffffffffffffffffffffffffffff1673ffffffffffffffffffffffffffffffffffffffff168152602001908152602001600020819055508273ffffffffffffffffffffffffffffffffffffffff163373ffffffffffffffffffffffffffffffffffffffff167fc951f2d1cb32bb3b3eb40d2f8be24aa5e7586a00252c401a21ebba36d4b088a984604051610914919061096b565b60405180910390a36001905092915050565b600081836109349190610c1f565b905092915050565b6000818361094a9190610c53565b905092915050565b6000819050919050565b61096581610952565b82525050565b6000602082019050610980600083018461095c565b92915050565b600080fd5b600073ffffffffffffffffffffffffffffffffffffffff82169050919050565b60006109b68261098b565b9050919050565b6109c6816109ab565b81146109d157600080fd5b50565b6000813590506109e3816109bd565b92915050565b6109f281610952565b81146109fd57600080fd5b50565b600081359050610a0f816109e9565b92915050565b600080600060608486031215610a2e57610a2d610986565b5b6000610a3c868287016109d4565b9350506020610a4d868287016109d4565b9250506040610a5e86828701610a00565b9150509250925092565b60008115159050919050565b610a7d81610a68565b82525050565b6000602082019050610a986000830184610a74565b92915050565b600081519050919050565b600082825260208201905092915050565b60005b83811015610ad8578082015181840152602081019050610abd565b60008484015250505050565b6000601f19601f8301169050919050565b6000610b0082610a9e565b610b0a8185610aa9565b9350610b1a818560208601610aba565b610b2381610ae4565b840191505092915050565b60006020820190508181036000830152610b488184610af5565b905092915050565b60008060408385031215610b6757610b66610986565b5b6000610b75858286016109d4565b9250506020610b8685828601610a00565b9150509250929050565b7f4e487b7100000000000000000000000000000000000000000000000000000000600052602260045260246000fd5b60006002820490506001821680610bd757607f821691505b602082108103610bea57610be9610b90565b5b50919050565b7f4e487b7100000000000000000000000000000000000000000000000000000000600052601160045260246000fd5b6000610c2a82610952565b9150610c3583610952565b9250828203905081811115610c4d57610c4c610bf0565b5b92915050565b6000610c5e82610952565b9150610c6983610952565b9250828201905080821115610c8157610c80610bf0565b5b9291505056fea2646970667358221220cff01c6e8a8bd87cde796d9267859891894c282cb1528655a0deb789a522756464736f6c63430008120033",
					"opcodes": "PUSH1 0x80 PUSH1 0x40 MSTORE PUSH1 0x40 MLOAD DUP1 PUSH1 0x40 ADD PUSH1 0x40 MSTORE DUP1 PUSH1 0xE DUP2 MSTORE PUSH1 0x20 ADD PUSH32 0x77656233436C756273546F6B656E000000000000000000000000000000000000 DUP2 MSTORE POP PUSH1 0x0 SWAP1 DUP2 PUSH3 0x4A SWAP2 SWAP1 PUSH3 0x3C0 JUMP JUMPDEST POP PUSH1 0x40 MLOAD DUP1 PUSH1 0x40 ADD PUSH1 0x40 MSTORE DUP1 PUSH1 0x3 DUP2 MSTORE PUSH1 0x20 ADD PUSH32 0x5743540000000000000000000000000000000000000000000000000000000000 DUP2 MSTORE POP PUSH1 0x1 SWAP1 DUP2 PUSH3 0x91 SWAP2 SWAP1 PUSH3 0x3C0 JUMP JUMPDEST POP PUSH1 0x12 PUSH1 0x2 SSTORE PUSH1 0x2 SLOAD PUSH1 0xA PUSH3 0xA8 SWAP2 SWAP1 PUSH3 0x62A JUMP JUMPDEST PUSH1 0x3 SSTORE PUSH1 0x3 SLOAD PUSH3 0xF4240 PUSH3 0xBE SWAP2 SWAP1 PUSH3 0x67B JUMP JUMPDEST PUSH1 0x4 SSTORE CALLVALUE DUP1 ISZERO PUSH3 0xCE JUMPI PUSH1 0x0 DUP1 REVERT JUMPDEST POP PUSH1 0x40 MLOAD PUSH3 0x13FB CODESIZE SUB DUP1 PUSH3 0x13FB DUP4 CODECOPY DUP2 DUP2 ADD PUSH1 0x40 MSTORE DUP2 ADD SWAP1 PUSH3 0xF4 SWAP2 SWAP1 PUSH3 0x6FC JUMP JUMPDEST PUSH1 0x4 SLOAD PUSH1 0x5 PUSH1 0x0 CALLER PUSH20 0xFFFFFFFFFFFFFFFFFFFFFFFFFFFFFFFFFFFFFFFF AND PUSH20 0xFFFFFFFFFFFFFFFFFFFFFFFFFFFFFFFFFFFFFFFF AND DUP2 MSTORE PUSH1 0x20 ADD SWAP1 DUP2 MSTORE PUSH1 0x20 ADD PUSH1 0x0 KECCAK256 DUP2 SWAP1 SSTORE POP PUSH1 0x4 SLOAD SWAP1 POP POP PUSH3 0x72E JUMP JUMPDEST PUSH1 0x0 DUP2 MLOAD SWAP1 POP SWAP2 SWAP1 POP JUMP JUMPDEST PUSH32 0x4E487B7100000000000000000000000000000000000000000000000000000000 PUSH1 0x0 MSTORE PUSH1 0x41 PUSH1 0x4 MSTORE PUSH1 0x24 PUSH1 0x0 REVERT JUMPDEST PUSH32 0x4E487B7100000000000000000000000000000000000000000000000000000000 PUSH1 0x0 MSTORE PUSH1 0x22 PUSH1 0x4 MSTORE PUSH1 0x24 PUSH1 0x0 REVERT JUMPDEST PUSH1 0x0 PUSH1 0x2 DUP3 DIV SWAP1 POP PUSH1 0x1 DUP3 AND DUP1 PUSH3 0x1C8 JUMPI PUSH1 0x7F DUP3 AND SWAP2 POP JUMPDEST PUSH1 0x20 DUP3 LT DUP2 SUB PUSH3 0x1DE JUMPI PUSH3 0x1DD PUSH3 0x180 JUMP JUMPDEST JUMPDEST POP SWAP2 SWAP1 POP JUMP JUMPDEST PUSH1 0x0 DUP2 SWAP1 POP DUP2 PUSH1 0x0 MSTORE PUSH1 0x20 PUSH1 0x0 KECCAK256 SWAP1 POP SWAP2 SWAP1 POP JUMP JUMPDEST PUSH1 0x0 PUSH1 0x20 PUSH1 0x1F DUP4 ADD DIV SWAP1 POP SWAP2 SWAP1 POP JUMP JUMPDEST PUSH1 0x0 DUP3 DUP3 SHL SWAP1 POP SWAP3 SWAP2 POP POP JUMP JUMPDEST PUSH1 0x0 PUSH1 0x8 DUP4 MUL PUSH3 0x248 PUSH32 0xFFFFFFFFFFFFFFFFFFFFFFFFFFFFFFFFFFFFFFFFFFFFFFFFFFFFFFFFFFFFFFFF DUP3 PUSH3 0x209 JUMP JUMPDEST PUSH3 0x254 DUP7 DUP4 PUSH3 0x209 JUMP JUMPDEST SWAP6 POP DUP1 NOT DUP5 AND SWAP4 POP DUP1 DUP7 AND DUP5 OR SWAP3 POP POP POP SWAP4 SWAP3 POP POP POP JUMP JUMPDEST PUSH1 0x0 DUP2 SWAP1 POP SWAP2 SWAP1 POP JUMP JUMPDEST PUSH1 0x0 DUP2 SWAP1 POP SWAP2 SWAP1 POP JUMP JUMPDEST PUSH1 0x0 PUSH3 0x2A1 PUSH3 0x29B PUSH3 0x295 DUP5 PUSH3 0x26C JUMP JUMPDEST PUSH3 0x276 JUMP JUMPDEST PUSH3 0x26C JUMP JUMPDEST SWAP1 POP SWAP2 SWAP1 POP JUMP JUMPDEST PUSH1 0x0 DUP2 SWAP1 POP SWAP2 SWAP1 POP JUMP JUMPDEST PUSH3 0x2BD DUP4 PUSH3 0x280 JUMP JUMPDEST PUSH3 0x2D5 PUSH3 0x2CC DUP3 PUSH3 0x2A8 JUMP JUMPDEST DUP5 DUP5 SLOAD PUSH3 0x216 JUMP JUMPDEST DUP3 SSTORE POP POP POP POP JUMP JUMPDEST PUSH1 0x0 SWAP1 JUMP JUMPDEST PUSH3 0x2EC PUSH3 0x2DD JUMP JUMPDEST PUSH3 0x2F9 DUP2 DUP5 DUP5 PUSH3 0x2B2 JUMP JUMPDEST POP POP POP JUMP JUMPDEST JUMPDEST DUP2 DUP2 LT ISZERO PUSH3 0x321 JUMPI PUSH3 0x315 PUSH1 0x0 DUP3 PUSH3 0x2E2 JUMP JUMPDEST PUSH1 0x1 DUP2 ADD SWAP1 POP PUSH3 0x2FF JUMP JUMPDEST POP POP JUMP JUMPDEST PUSH1 0x1F DUP3 GT ISZERO PUSH3 0x370 JUMPI PUSH3 0x33A DUP2 PUSH3 0x1E4 JUMP JUMPDEST PUSH3 0x345 DUP5 PUSH3 0x1F9 JUMP JUMPDEST DUP2 ADD PUSH1 0x20 DUP6 LT ISZERO PUSH3 0x355 JUMPI DUP2 SWAP1 POP JUMPDEST PUSH3 0x36D PUSH3 0x364 DUP6 PUSH3 0x1F9 JUMP JUMPDEST DUP4 ADD DUP3 PUSH3 0x2FE JUMP JUMPDEST POP POP JUMPDEST POP POP POP JUMP JUMPDEST PUSH1 0x0 DUP3 DUP3 SHR SWAP1 POP SWAP3 SWAP2 POP POP JUMP JUMPDEST PUSH1 0x0 PUSH3 0x395 PUSH1 0x0 NOT DUP5 PUSH1 0x8 MUL PUSH3 0x375 JUMP JUMPDEST NOT DUP1 DUP4 AND SWAP2 POP POP SWAP3 SWAP2 POP POP JUMP JUMPDEST PUSH1 0x0 PUSH3 0x3B0 DUP4 DUP4 PUSH3 0x382 JUMP JUMPDEST SWAP2 POP DUP3 PUSH1 0x2 MUL DUP3 OR SWAP1 POP SWAP3 SWAP2 POP POP JUMP JUMPDEST PUSH3 0x3CB DUP3 PUSH3 0x146 JUMP JUMPDEST PUSH8 0xFFFFFFFFFFFFFFFF DUP2 GT ISZERO PUSH3 0x3E7 JUMPI PUSH3 0x3E6 PUSH3 0x151 JUMP JUMPDEST JUMPDEST PUSH3 0x3F3 DUP3 SLOAD PUSH3 0x1AF JUMP JUMPDEST PUSH3 0x400 DUP3 DUP3 DUP6 PUSH3 0x325 JUMP JUMPDEST PUSH1 0x0 PUSH1 0x20 SWAP1 POP PUSH1 0x1F DUP4 GT PUSH1 0x1 DUP2 EQ PUSH3 0x438 JUMPI PUSH1 0x0 DUP5 ISZERO PUSH3 0x423 JUMPI DUP3 DUP8 ADD MLOAD SWAP1 POP JUMPDEST PUSH3 0x42F DUP6 DUP3 PUSH3 0x3A2 JUMP JUMPDEST DUP7 SSTORE POP PUSH3 0x49F JUMP JUMPDEST PUSH1 0x1F NOT DUP5 AND PUSH3 0x448 DUP7 PUSH3 0x1E4 JUMP JUMPDEST PUSH1 0x0 JUMPDEST DUP3 DUP2 LT ISZERO PUSH3 0x472 JUMPI DUP5 DUP10 ADD MLOAD DUP3 SSTORE PUSH1 0x1 DUP3 ADD SWAP2 POP PUSH1 0x20 DUP6 ADD SWAP5 POP PUSH1 0x20 DUP2 ADD SWAP1 POP PUSH3 0x44B JUMP JUMPDEST DUP7 DUP4 LT ISZERO PUSH3 0x492 JUMPI DUP5 DUP10 ADD MLOAD PUSH3 0x48E PUSH1 0x1F DUP10 AND DUP3 PUSH3 0x382 JUMP JUMPDEST DUP4 SSTORE POP JUMPDEST PUSH1 0x1 PUSH1 0x2 DUP9 MUL ADD DUP9 SSTORE POP POP POP JUMPDEST POP POP POP POP POP POP JUMP JUMPDEST PUSH32 0x4E487B7100000000000000000000000000000000000000000000000000000000 PUSH1 0x0 MSTORE PUSH1 0x11 PUSH1 0x4 MSTORE PUSH1 0x24 PUSH1 0x0 REVERT JUMPDEST PUSH1 0x0 DUP2 PUSH1 0x1 SHR SWAP1 POP SWAP2 SWAP1 POP JUMP JUMPDEST PUSH1 0x0 DUP1 DUP3 SWAP2 POP DUP4 SWAP1 POP JUMPDEST PUSH1 0x1 DUP6 GT ISZERO PUSH3 0x535 JUMPI DUP1 DUP7 DIV DUP2 GT ISZERO PUSH3 0x50D JUMPI PUSH3 0x50C PUSH3 0x4A7 JUMP JUMPDEST JUMPDEST PUSH1 0x1 DUP6 AND ISZERO PUSH3 0x51D JUMPI DUP1 DUP3 MUL SWAP2 POP JUMPDEST DUP1 DUP2 MUL SWAP1 POP PUSH3 0x52D DUP6 PUSH3 0x4D6 JUMP JUMPDEST SWAP5 POP PUSH3 0x4ED JUMP JUMPDEST SWAP5 POP SWAP5 SWAP3 POP POP POP JUMP JUMPDEST PUSH1 0x0 DUP3 PUSH3 0x550 JUMPI PUSH1 0x1 SWAP1 POP PUSH3 0x623 JUMP JUMPDEST DUP2 PUSH3 0x560 JUMPI PUSH1 0x0 SWAP1 POP PUSH3 0x623 JUMP JUMPDEST DUP2 PUSH1 0x1 DUP2 EQ PUSH3 0x579 JUMPI PUSH1 0x2 DUP2 EQ PUSH3 0x584 JUMPI PUSH3 0x5BA JUMP JUMPDEST PUSH1 0x1 SWAP2 POP POP PUSH3 0x623 JUMP JUMPDEST PUSH1 0xFF DUP5 GT ISZERO PUSH3 0x599 JUMPI PUSH3 0x598 PUSH3 0x4A7 JUMP JUMPDEST JUMPDEST DUP4 PUSH1 0x2 EXP SWAP2 POP DUP5 DUP3 GT ISZERO PUSH3 0x5B3 JUMPI PUSH3 0x5B2 PUSH3 0x4A7 JUMP JUMPDEST JUMPDEST POP PUSH3 0x623 JUMP JUMPDEST POP PUSH1 0x20 DUP4 LT PUSH2 0x133 DUP4 LT AND PUSH1 0x4E DUP5 LT PUSH1 0xB DUP5 LT AND OR ISZERO PUSH3 0x5F4 JUMPI DUP3 DUP3 EXP SWAP1 POP DUP4 DUP2 GT ISZERO PUSH3 0x5EE JUMPI PUSH3 0x5ED PUSH3 0x4A7 JUMP JUMPDEST JUMPDEST PUSH3 0x623 JUMP JUMPDEST PUSH3 0x603 DUP5 DUP5 DUP5 PUSH1 0x1 PUSH3 0x4E3 JUMP JUMPDEST SWAP3 POP SWAP1 POP DUP2 DUP5 DIV DUP2 GT ISZERO PUSH3 0x61D JUMPI PUSH3 0x61C PUSH3 0x4A7 JUMP JUMPDEST JUMPDEST DUP2 DUP2 MUL SWAP1 POP JUMPDEST SWAP4 SWAP3 POP POP POP JUMP JUMPDEST PUSH1 0x0 PUSH3 0x637 DUP3 PUSH3 0x26C JUMP JUMPDEST SWAP2 POP PUSH3 0x644 DUP4 PUSH3 0x26C JUMP JUMPDEST SWAP3 POP PUSH3 0x673 PUSH32 0xFFFFFFFFFFFFFFFFFFFFFFFFFFFFFFFFFFFFFFFFFFFFFFFFFFFFFFFFFFFFFFFF DUP5 DUP5 PUSH3 0x53E JUMP JUMPDEST SWAP1 POP SWAP3 SWAP2 POP POP JUMP JUMPDEST PUSH1 0x0 PUSH3 0x688 DUP3 PUSH3 0x26C JUMP JUMPDEST SWAP2 POP PUSH3 0x695 DUP4 PUSH3 0x26C JUMP JUMPDEST SWAP3 POP DUP3 DUP3 MUL PUSH3 0x6A5 DUP2 PUSH3 0x26C JUMP JUMPDEST SWAP2 POP DUP3 DUP3 DIV DUP5 EQ DUP4 ISZERO OR PUSH3 0x6BF JUMPI PUSH3 0x6BE PUSH3 0x4A7 JUMP JUMPDEST JUMPDEST POP SWAP3 SWAP2 POP POP JUMP JUMPDEST PUSH1 0x0 DUP1 REVERT JUMPDEST PUSH3 0x6D6 DUP2 PUSH3 0x26C JUMP JUMPDEST DUP2 EQ PUSH3 0x6E2 JUMPI PUSH1 0x0 DUP1 REVERT JUMPDEST POP JUMP JUMPDEST PUSH1 0x0 DUP2 MLOAD SWAP1 POP PUSH3 0x6F6 DUP2 PUSH3 0x6CB JUMP JUMPDEST SWAP3 SWAP2 POP POP JUMP JUMPDEST PUSH1 0x0 PUSH1 0x20 DUP3 DUP5 SUB SLT ISZERO PUSH3 0x715 JUMPI PUSH3 0x714 PUSH3 0x6C6 JUMP JUMPDEST JUMPDEST PUSH1 0x0 PUSH3 0x725 DUP5 DUP3 DUP6 ADD PUSH3 0x6E5 JUMP JUMPDEST SWAP2 POP POP SWAP3 SWAP2 POP POP JUMP JUMPDEST PUSH2 0xCBD DUP1 PUSH3 0x73E PUSH1 0x0 CODECOPY PUSH1 0x0 RETURN INVALID PUSH1 0x80 PUSH1 0x40 MSTORE CALLVALUE DUP1 ISZERO PUSH2 0x10 JUMPI PUSH1 0x0 DUP1 REVERT JUMPDEST POP PUSH1 0x4 CALLDATASIZE LT PUSH2 0x7D JUMPI PUSH1 0x0 CALLDATALOAD PUSH1 0xE0 SHR DUP1 PUSH4 0x6C02A931 GT PUSH2 0x5B JUMPI DUP1 PUSH4 0x6C02A931 EQ PUSH2 0xEE JUMPI DUP1 PUSH4 0x6D6A6A4D EQ PUSH2 0x10C JUMPI DUP1 PUSH4 0x95D89B41 EQ PUSH2 0x12A JUMPI DUP1 PUSH4 0xA9059CBB EQ PUSH2 0x148 JUMPI PUSH2 0x7D JUMP JUMPDEST DUP1 PUSH4 0x18160DDD EQ PUSH2 0x82 JUMPI DUP1 PUSH4 0x23B872DD EQ PUSH2 0xA0 JUMPI DUP1 PUSH4 0x313CE567 EQ PUSH2 0xD0 JUMPI JUMPDEST PUSH1 0x0 DUP1 REVERT JUMPDEST PUSH2 0x8A PUSH2 0x178 JUMP JUMPDEST PUSH1 0x40 MLOAD PUSH2 0x97 SWAP2 SWAP1 PUSH2 0x96B JUMP JUMPDEST PUSH1 0x40 MLOAD DUP1 SWAP2 SUB SWAP1 RETURN JUMPDEST PUSH2 0xBA PUSH1 0x4 DUP1 CALLDATASIZE SUB DUP2 ADD SWAP1 PUSH2 0xB5 SWAP2 SWAP1 PUSH2 0xA15 JUMP JUMPDEST PUSH2 0x17E JUMP JUMPDEST PUSH1 0x40 MLOAD PUSH2 0xC7 SWAP2 SWAP1 PUSH2 0xA83 JUMP JUMPDEST PUSH1 0x40 MLOAD DUP1 SWAP2 SUB SWAP1 RETURN JUMPDEST PUSH2 0xD8 PUSH2 0x5A7 JUMP JUMPDEST PUSH1 0x40 MLOAD PUSH2 0xE5 SWAP2 SWAP1 PUSH2 0x96B JUMP JUMPDEST PUSH1 0x40 MLOAD DUP1 SWAP2 SUB SWAP1 RETURN JUMPDEST PUSH2 0xF6 PUSH2 0x5AD JUMP JUMPDEST PUSH1 0x40 MLOAD PUSH2 0x103 SWAP2 SWAP1 PUSH2 0xB2E JUMP JUMPDEST PUSH1 0x40 MLOAD DUP1 SWAP2 SUB SWAP1 RETURN JUMPDEST PUSH2 0x114 PUSH2 0x63B JUMP JUMPDEST PUSH1 0x40 MLOAD PUSH2 0x121 SWAP2 SWAP1 PUSH2 0x96B JUMP JUMPDEST PUSH1 0x40 MLOAD DUP1 SWAP2 SUB SWAP1 RETURN JUMPDEST PUSH2 0x132 PUSH2 0x641 JUMP JUMPDEST PUSH1 0x40 MLOAD PUSH2 0x13F SWAP2 SWAP1 PUSH2 0xB2E JUMP JUMPDEST PUSH1 0x40 MLOAD DUP1 SWAP2 SUB SWAP1 RETURN JUMPDEST PUSH2 0x162 PUSH1 0x4 DUP1 CALLDATASIZE SUB DUP2 ADD SWAP1 PUSH2 0x15D SWAP2 SWAP1 PUSH2 0xB50 JUMP JUMPDEST PUSH2 0x6CF JUMP JUMPDEST PUSH1 0x40 MLOAD PUSH2 0x16F SWAP2 SWAP1 PUSH2 0xA83 JUMP JUMPDEST PUSH1 0x40 MLOAD DUP1 SWAP2 SUB SWAP1 RETURN JUMPDEST PUSH1 0x4 SLOAD DUP2 JUMP JUMPDEST PUSH1 0x0 DUP1 PUSH20 0xFFFFFFFFFFFFFFFFFFFFFFFFFFFFFFFFFFFFFFFF AND DUP5 PUSH20 0xFFFFFFFFFFFFFFFFFFFFFFFFFFFFFFFFFFFFFFFF AND SUB PUSH2 0x1B8 JUMPI PUSH1 0x0 DUP1 REVERT JUMPDEST PUSH1 0x0 PUSH20 0xFFFFFFFFFFFFFFFFFFFFFFFFFFFFFFFFFFFFFFFF AND DUP4 PUSH20 0xFFFFFFFFFFFFFFFFFFFFFFFFFFFFFFFFFFFFFFFF AND SUB PUSH2 0x1F1 JUMPI PUSH1 0x0 DUP1 REVERT JUMPDEST DUP4 PUSH20 0xFFFFFFFFFFFFFFFFFFFFFFFFFFFFFFFFFFFFFFFF AND DUP4 PUSH20 0xFFFFFFFFFFFFFFFFFFFFFFFFFFFFFFFFFFFFFFFF AND SUB PUSH2 0x229 JUMPI PUSH1 0x0 DUP1 REVERT JUMPDEST DUP2 PUSH1 0x5 PUSH1 0x0 DUP7 PUSH20 0xFFFFFFFFFFFFFFFFFFFFFFFFFFFFFFFFFFFFFFFF AND PUSH20 0xFFFFFFFFFFFFFFFFFFFFFFFFFFFFFFFFFFFFFFFF AND DUP2 MSTORE PUSH1 0x20 ADD SWAP1 DUP2 MSTORE PUSH1 0x20 ADD PUSH1 0x0 KECCAK256 SLOAD LT ISZERO PUSH2 0x275 JUMPI PUSH1 0x0 DUP1 REVERT JUMPDEST DUP2 PUSH1 0x6 PUSH1 0x0 DUP7 PUSH20 0xFFFFFFFFFFFFFFFFFFFFFFFFFFFFFFFFFFFFFFFF AND PUSH20 0xFFFFFFFFFFFFFFFFFFFFFFFFFFFFFFFFFFFFFFFF AND DUP2 MSTORE PUSH1 0x20 ADD SWAP1 DUP2 MSTORE PUSH1 0x20 ADD PUSH1 0x0 KECCAK256 PUSH1 0x0 CALLER PUSH20 0xFFFFFFFFFFFFFFFFFFFFFFFFFFFFFFFFFFFFFFFF AND PUSH20 0xFFFFFFFFFFFFFFFFFFFFFFFFFFFFFFFFFFFFFFFF AND DUP2 MSTORE PUSH1 0x20 ADD SWAP1 DUP2 MSTORE PUSH1 0x20 ADD PUSH1 0x0 KECCAK256 SLOAD LT ISZERO PUSH2 0x2FE JUMPI PUSH1 0x0 DUP1 REVERT JUMPDEST PUSH2 0x350 DUP3 PUSH1 0x5 PUSH1 0x0 DUP8 PUSH20 0xFFFFFFFFFFFFFFFFFFFFFFFFFFFFFFFFFFFFFFFF AND PUSH20 0xFFFFFFFFFFFFFFFFFFFFFFFFFFFFFFFFFFFFFFFF AND DUP2 MSTORE PUSH1 0x20 ADD SWAP1 DUP2 MSTORE PUSH1 0x20 ADD PUSH1 0x0 KECCAK256 SLOAD PUSH2 0x926 SWAP1 SWAP2 SWAP1 PUSH4 0xFFFFFFFF AND JUMP JUMPDEST PUSH1 0x5 PUSH1 0x0 DUP7 PUSH20 0xFFFFFFFFFFFFFFFFFFFFFFFFFFFFFFFFFFFFFFFF AND PUSH20 0xFFFFFFFFFFFFFFFFFFFFFFFFFFFFFFFFFFFFFFFF AND DUP2 MSTORE PUSH1 0x20 ADD SWAP1 DUP2 MSTORE PUSH1 0x20 ADD PUSH1 0x0 KECCAK256 DUP2 SWAP1 SSTORE POP PUSH2 0x3E5 DUP3 PUSH1 0x5 PUSH1 0x0 DUP7 PUSH20 0xFFFFFFFFFFFFFFFFFFFFFFFFFFFFFFFFFFFFFFFF AND PUSH20 0xFFFFFFFFFFFFFFFFFFFFFFFFFFFFFFFFFFFFFFFF AND DUP2 MSTORE PUSH1 0x20 ADD SWAP1 DUP2 MSTORE PUSH1 0x20 ADD PUSH1 0x0 KECCAK256 SLOAD PUSH2 0x93C SWAP1 SWAP2 SWAP1 PUSH4 0xFFFFFFFF AND JUMP JUMPDEST PUSH1 0x5 PUSH1 0x0 DUP6 PUSH20 0xFFFFFFFFFFFFFFFFFFFFFFFFFFFFFFFFFFFFFFFF AND PUSH20 0xFFFFFFFFFFFFFFFFFFFFFFFFFFFFFFFFFFFFFFFF AND DUP2 MSTORE PUSH1 0x20 ADD SWAP1 DUP2 MSTORE PUSH1 0x20 ADD PUSH1 0x0 KECCAK256 DUP2 SWAP1 SSTORE POP PUSH2 0x4B7 DUP3 PUSH1 0x6 PUSH1 0x0 DUP8 PUSH20 0xFFFFFFFFFFFFFFFFFFFFFFFFFFFFFFFFFFFFFFFF AND PUSH20 0xFFFFFFFFFFFFFFFFFFFFFFFFFFFFFFFFFFFFFFFF AND DUP2 MSTORE PUSH1 0x20 ADD SWAP1 DUP2 MSTORE PUSH1 0x20 ADD PUSH1 0x0 KECCAK256 PUSH1 0x0 CALLER PUSH20 0xFFFFFFFFFFFFFFFFFFFFFFFFFFFFFFFFFFFFFFFF AND PUSH20 0xFFFFFFFFFFFFFFFFFFFFFFFFFFFFFFFFFFFFFFFF AND DUP2 MSTORE PUSH1 0x20 ADD SWAP1 DUP2 MSTORE PUSH1 0x20 ADD PUSH1 0x0 KECCAK256 SLOAD PUSH2 0x926 SWAP1 SWAP2 SWAP1 PUSH4 0xFFFFFFFF AND JUMP JUMPDEST PUSH1 0x6 PUSH1 0x0 DUP7 PUSH20 0xFFFFFFFFFFFFFFFFFFFFFFFFFFFFFFFFFFFFFFFF AND PUSH20 0xFFFFFFFFFFFFFFFFFFFFFFFFFFFFFFFFFFFFFFFF AND DUP2 MSTORE PUSH1 0x20 ADD SWAP1 DUP2 MSTORE PUSH1 0x20 ADD PUSH1 0x0 KECCAK256 PUSH1 0x0 CALLER PUSH20 0xFFFFFFFFFFFFFFFFFFFFFFFFFFFFFFFFFFFFFFFF AND PUSH20 0xFFFFFFFFFFFFFFFFFFFFFFFFFFFFFFFFFFFFFFFF AND DUP2 MSTORE PUSH1 0x20 ADD SWAP1 DUP2 MSTORE PUSH1 0x20 ADD PUSH1 0x0 KECCAK256 DUP2 SWAP1 SSTORE POP DUP3 PUSH20 0xFFFFFFFFFFFFFFFFFFFFFFFFFFFFFFFFFFFFFFFF AND DUP5 PUSH20 0xFFFFFFFFFFFFFFFFFFFFFFFFFFFFFFFFFFFFFFFF AND PUSH32 0xC951F2D1CB32BB3B3EB40D2F8BE24AA5E7586A00252C401A21EBBA36D4B088A9 DUP5 PUSH1 0x40 MLOAD PUSH2 0x594 SWAP2 SWAP1 PUSH2 0x96B JUMP JUMPDEST PUSH1 0x40 MLOAD DUP1 SWAP2 SUB SWAP1 LOG3 PUSH1 0x1 SWAP1 POP SWAP4 SWAP3 POP POP POP JUMP JUMPDEST PUSH1 0x2 SLOAD DUP2 JUMP JUMPDEST PUSH1 0x0 DUP1 SLOAD PUSH2 0x5BA SWAP1 PUSH2 0xBBF JUMP JUMPDEST DUP1 PUSH1 0x1F ADD PUSH1 0x20 DUP1 SWAP2 DIV MUL PUSH1 0x20 ADD PUSH1 0x40 MLOAD SWAP1 DUP2 ADD PUSH1 0x40 MSTORE DUP1 SWAP3 SWAP2 SWAP1 DUP2 DUP2 MSTORE PUSH1 0x20 ADD DUP3 DUP1 SLOAD PUSH2 0x5E6 SWAP1 PUSH2 0xBBF JUMP JUMPDEST DUP1 ISZERO PUSH2 0x633 JUMPI DUP1 PUSH1 0x1F LT PUSH2 0x608 JUMPI PUSH2 0x100 DUP1 DUP4 SLOAD DIV MUL DUP4 MSTORE SWAP2 PUSH1 0x20 ADD SWAP2 PUSH2 0x633 JUMP JUMPDEST DUP3 ADD SWAP2 SWAP1 PUSH1 0x0 MSTORE PUSH1 0x20 PUSH1 0x0 KECCAK256 SWAP1 JUMPDEST DUP2 SLOAD DUP2 MSTORE SWAP1 PUSH1 0x1 ADD SWAP1 PUSH1 0x20 ADD DUP1 DUP4 GT PUSH2 0x616 JUMPI DUP3 SWAP1 SUB PUSH1 0x1F AND DUP3 ADD SWAP2 JUMPDEST POP POP POP POP POP DUP2 JUMP JUMPDEST PUSH1 0x3 SLOAD DUP2 JUMP JUMPDEST PUSH1 0x1 DUP1 SLOAD PUSH2 0x64E SWAP1 PUSH2 0xBBF JUMP JUMPDEST DUP1 PUSH1 0x1F ADD PUSH1 0x20 DUP1 SWAP2 DIV MUL PUSH1 0x20 ADD PUSH1 0x40 MLOAD SWAP1 DUP2 ADD PUSH1 0x40 MSTORE DUP1 SWAP3 SWAP2 SWAP1 DUP2 DUP2 MSTORE PUSH1 0x20 ADD DUP3 DUP1 SLOAD PUSH2 0x67A SWAP1 PUSH2 0xBBF JUMP JUMPDEST DUP1 ISZERO PUSH2 0x6C7 JUMPI DUP1 PUSH1 0x1F LT PUSH2 0x69C JUMPI PUSH2 0x100 DUP1 DUP4 SLOAD DIV MUL DUP4 MSTORE SWAP2 PUSH1 0x20 ADD SWAP2 PUSH2 0x6C7 JUMP JUMPDEST DUP3 ADD SWAP2 SWAP1 PUSH1 0x0 MSTORE PUSH1 0x20 PUSH1 0x0 KECCAK256 SWAP1 JUMPDEST DUP2 SLOAD DUP2 MSTORE SWAP1 PUSH1 0x1 ADD SWAP1 PUSH1 0x20 ADD DUP1 DUP4 GT PUSH2 0x6AA JUMPI DUP3 SWAP1 SUB PUSH1 0x1F AND DUP3 ADD SWAP2 JUMPDEST POP POP POP POP POP DUP2 JUMP JUMPDEST PUSH1 0x0 DUP1 PUSH20 0xFFFFFFFFFFFFFFFFFFFFFFFFFFFFFFFFFFFFFFFF AND DUP4 PUSH20 0xFFFFFFFFFFFFFFFFFFFFFFFFFFFFFFFFFFFFFFFF AND SUB PUSH2 0x709 JUMPI PUSH1 0x0 DUP1 REVERT JUMPDEST CALLER PUSH20 0xFFFFFFFFFFFFFFFFFFFFFFFFFFFFFFFFFFFFFFFF AND DUP4 PUSH20 0xFFFFFFFFFFFFFFFFFFFFFFFFFFFFFFFFFFFFFFFF AND SUB PUSH2 0x741 JUMPI PUSH1 0x0 DUP1 REVERT JUMPDEST DUP2 PUSH1 0x5 PUSH1 0x0 CALLER PUSH20 0xFFFFFFFFFFFFFFFFFFFFFFFFFFFFFFFFFFFFFFFF AND PUSH20 0xFFFFFFFFFFFFFFFFFFFFFFFFFFFFFFFFFFFFFFFF AND DUP2 MSTORE PUSH1 0x20 ADD SWAP1 DUP2 MSTORE PUSH1 0x20 ADD PUSH1 0x0 KECCAK256 SLOAD LT ISZERO PUSH2 0x78D JUMPI PUSH1 0x0 DUP1 REVERT JUMPDEST PUSH2 0x7DF DUP3 PUSH1 0x5 PUSH1 0x0 CALLER PUSH20 0xFFFFFFFFFFFFFFFFFFFFFFFFFFFFFFFFFFFFFFFF AND PUSH20 0xFFFFFFFFFFFFFFFFFFFFFFFFFFFFFFFFFFFFFFFF AND DUP2 MSTORE PUSH1 0x20 ADD SWAP1 DUP2 MSTORE PUSH1 0x20 ADD PUSH1 0x0 KECCAK256 SLOAD PUSH2 0x926 SWAP1 SWAP2 SWAP1 PUSH4 0xFFFFFFFF AND JUMP JUMPDEST PUSH1 0x5 PUSH1 0x0 CALLER PUSH20 0xFFFFFFFFFFFFFFFFFFFFFFFFFFFFFFFFFFFFFFFF AND PUSH20 0xFFFFFFFFFFFFFFFFFFFFFFFFFFFFFFFFFFFFFFFF AND DUP2 MSTORE PUSH1 0x20 ADD SWAP1 DUP2 MSTORE PUSH1 0x20 ADD PUSH1 0x0 KECCAK256 DUP2 SWAP1 SSTORE POP PUSH2 0x874 DUP3 PUSH1 0x5 PUSH1 0x0 DUP7 PUSH20 0xFFFFFFFFFFFFFFFFFFFFFFFFFFFFFFFFFFFFFFFF AND PUSH20 0xFFFFFFFFFFFFFFFFFFFFFFFFFFFFFFFFFFFFFFFF AND DUP2 MSTORE PUSH1 0x20 ADD SWAP1 DUP2 MSTORE PUSH1 0x20 ADD PUSH1 0x0 KECCAK256 SLOAD PUSH2 0x93C SWAP1 SWAP2 SWAP1 PUSH4 0xFFFFFFFF AND JUMP JUMPDEST PUSH1 0x5 PUSH1 0x0 DUP6 PUSH20 0xFFFFFFFFFFFFFFFFFFFFFFFFFFFFFFFFFFFFFFFF AND PUSH20 0xFFFFFFFFFFFFFFFFFFFFFFFFFFFFFFFFFFFFFFFF AND DUP2 MSTORE PUSH1 0x20 ADD SWAP1 DUP2 MSTORE PUSH1 0x20 ADD PUSH1 0x0 KECCAK256 DUP2 SWAP1 SSTORE POP DUP3 PUSH20 0xFFFFFFFFFFFFFFFFFFFFFFFFFFFFFFFFFFFFFFFF AND CALLER PUSH20 0xFFFFFFFFFFFFFFFFFFFFFFFFFFFFFFFFFFFFFFFF AND PUSH32 0xC951F2D1CB32BB3B3EB40D2F8BE24AA5E7586A00252C401A21EBBA36D4B088A9 DUP5 PUSH1 0x40 MLOAD PUSH2 0x914 SWAP2 SWAP1 PUSH2 0x96B JUMP JUMPDEST PUSH1 0x40 MLOAD DUP1 SWAP2 SUB SWAP1 LOG3 PUSH1 0x1 SWAP1 POP SWAP3 SWAP2 POP POP JUMP JUMPDEST PUSH1 0x0 DUP2 DUP4 PUSH2 0x934 SWAP2 SWAP1 PUSH2 0xC1F JUMP JUMPDEST SWAP1 POP SWAP3 SWAP2 POP POP JUMP JUMPDEST PUSH1 0x0 DUP2 DUP4 PUSH2 0x94A SWAP2 SWAP1 PUSH2 0xC53 JUMP JUMPDEST SWAP1 POP SWAP3 SWAP2 POP POP JUMP JUMPDEST PUSH1 0x0 DUP2 SWAP1 POP SWAP2 SWAP1 POP JUMP JUMPDEST PUSH2 0x965 DUP2 PUSH2 0x952 JUMP JUMPDEST DUP3 MSTORE POP POP JUMP JUMPDEST PUSH1 0x0 PUSH1 0x20 DUP3 ADD SWAP1 POP PUSH2 0x980 PUSH1 0x0 DUP4 ADD DUP5 PUSH2 0x95C JUMP JUMPDEST SWAP3 SWAP2 POP POP JUMP JUMPDEST PUSH1 0x0 DUP1 REVERT JUMPDEST PUSH1 0x0 PUSH20 0xFFFFFFFFFFFFFFFFFFFFFFFFFFFFFFFFFFFFFFFF DUP3 AND SWAP1 POP SWAP2 SWAP1 POP JUMP JUMPDEST PUSH1 0x0 PUSH2 0x9B6 DUP3 PUSH2 0x98B JUMP JUMPDEST SWAP1 POP SWAP2 SWAP1 POP JUMP JUMPDEST PUSH2 0x9C6 DUP2 PUSH2 0x9AB JUMP JUMPDEST DUP2 EQ PUSH2 0x9D1 JUMPI PUSH1 0x0 DUP1 REVERT JUMPDEST POP JUMP JUMPDEST PUSH1 0x0 DUP2 CALLDATALOAD SWAP1 POP PUSH2 0x9E3 DUP2 PUSH2 0x9BD JUMP JUMPDEST SWAP3 SWAP2 POP POP JUMP JUMPDEST PUSH2 0x9F2 DUP2 PUSH2 0x952 JUMP JUMPDEST DUP2 EQ PUSH2 0x9FD JUMPI PUSH1 0x0 DUP1 REVERT JUMPDEST POP JUMP JUMPDEST PUSH1 0x0 DUP2 CALLDATALOAD SWAP1 POP PUSH2 0xA0F DUP2 PUSH2 0x9E9 JUMP JUMPDEST SWAP3 SWAP2 POP POP JUMP JUMPDEST PUSH1 0x0 DUP1 PUSH1 0x0 PUSH1 0x60 DUP5 DUP7 SUB SLT ISZERO PUSH2 0xA2E JUMPI PUSH2 0xA2D PUSH2 0x986 JUMP JUMPDEST JUMPDEST PUSH1 0x0 PUSH2 0xA3C DUP7 DUP3 DUP8 ADD PUSH2 0x9D4 JUMP JUMPDEST SWAP4 POP POP PUSH1 0x20 PUSH2 0xA4D DUP7 DUP3 DUP8 ADD PUSH2 0x9D4 JUMP JUMPDEST SWAP3 POP POP PUSH1 0x40 PUSH2 0xA5E DUP7 DUP3 DUP8 ADD PUSH2 0xA00 JUMP JUMPDEST SWAP2 POP POP SWAP3 POP SWAP3 POP SWAP3 JUMP JUMPDEST PUSH1 0x0 DUP2 ISZERO ISZERO SWAP1 POP SWAP2 SWAP1 POP JUMP JUMPDEST PUSH2 0xA7D DUP2 PUSH2 0xA68 JUMP JUMPDEST DUP3 MSTORE POP POP JUMP JUMPDEST PUSH1 0x0 PUSH1 0x20 DUP3 ADD SWAP1 POP PUSH2 0xA98 PUSH1 0x0 DUP4 ADD DUP5 PUSH2 0xA74 JUMP JUMPDEST SWAP3 SWAP2 POP POP JUMP JUMPDEST PUSH1 0x0 DUP2 MLOAD SWAP1 POP SWAP2 SWAP1 POP JUMP JUMPDEST PUSH1 0x0 DUP3 DUP3 MSTORE PUSH1 0x20 DUP3 ADD SWAP1 POP SWAP3 SWAP2 POP POP JUMP JUMPDEST PUSH1 0x0 JUMPDEST DUP4 DUP2 LT ISZERO PUSH2 0xAD8 JUMPI DUP1 DUP3 ADD MLOAD DUP2 DUP5 ADD MSTORE PUSH1 0x20 DUP2 ADD SWAP1 POP PUSH2 0xABD JUMP JUMPDEST PUSH1 0x0 DUP5 DUP5 ADD MSTORE POP POP POP POP JUMP JUMPDEST PUSH1 0x0 PUSH1 0x1F NOT PUSH1 0x1F DUP4 ADD AND SWAP1 POP SWAP2 SWAP1 POP JUMP JUMPDEST PUSH1 0x0 PUSH2 0xB00 DUP3 PUSH2 0xA9E JUMP JUMPDEST PUSH2 0xB0A DUP2 DUP6 PUSH2 0xAA9 JUMP JUMPDEST SWAP4 POP PUSH2 0xB1A DUP2 DUP6 PUSH1 0x20 DUP7 ADD PUSH2 0xABA JUMP JUMPDEST PUSH2 0xB23 DUP2 PUSH2 0xAE4 JUMP JUMPDEST DUP5 ADD SWAP2 POP POP SWAP3 SWAP2 POP POP JUMP JUMPDEST PUSH1 0x0 PUSH1 0x20 DUP3 ADD SWAP1 POP DUP2 DUP2 SUB PUSH1 0x0 DUP4 ADD MSTORE PUSH2 0xB48 DUP2 DUP5 PUSH2 0xAF5 JUMP JUMPDEST SWAP1 POP SWAP3 SWAP2 POP POP JUMP JUMPDEST PUSH1 0x0 DUP1 PUSH1 0x40 DUP4 DUP6 SUB SLT ISZERO PUSH2 0xB67 JUMPI PUSH2 0xB66 PUSH2 0x986 JUMP JUMPDEST JUMPDEST PUSH1 0x0 PUSH2 0xB75 DUP6 DUP3 DUP7 ADD PUSH2 0x9D4 JUMP JUMPDEST SWAP3 POP POP PUSH1 0x20 PUSH2 0xB86 DUP6 DUP3 DUP7 ADD PUSH2 0xA00 JUMP JUMPDEST SWAP2 POP POP SWAP3 POP SWAP3 SWAP1 POP JUMP JUMPDEST PUSH32 0x4E487B7100000000000000000000000000000000000000000000000000000000 PUSH1 0x0 MSTORE PUSH1 0x22 PUSH1 0x4 MSTORE PUSH1 0x24 PUSH1 0x0 REVERT JUMPDEST PUSH1 0x0 PUSH1 0x2 DUP3 DIV SWAP1 POP PUSH1 0x1 DUP3 AND DUP1 PUSH2 0xBD7 JUMPI PUSH1 0x7F DUP3 AND SWAP2 POP JUMPDEST PUSH1 0x20 DUP3 LT DUP2 SUB PUSH2 0xBEA JUMPI PUSH2 0xBE9 PUSH2 0xB90 JUMP JUMPDEST JUMPDEST POP SWAP2 SWAP1 POP JUMP JUMPDEST PUSH32 0x4E487B7100000000000000000000000000000000000000000000000000000000 PUSH1 0x0 MSTORE PUSH1 0x11 PUSH1 0x4 MSTORE PUSH1 0x24 PUSH1 0x0 REVERT JUMPDEST PUSH1 0x0 PUSH2 0xC2A DUP3 PUSH2 0x952 JUMP JUMPDEST SWAP2 POP PUSH2 0xC35 DUP4 PUSH2 0x952 JUMP JUMPDEST SWAP3 POP DUP3 DUP3 SUB SWAP1 POP DUP2 DUP2 GT ISZERO PUSH2 0xC4D JUMPI PUSH2 0xC4C PUSH2 0xBF0 JUMP JUMPDEST JUMPDEST SWAP3 SWAP2 POP POP JUMP JUMPDEST PUSH1 0x0 PUSH2 0xC5E DUP3 PUSH2 0x952 JUMP JUMPDEST SWAP2 POP PUSH2 0xC69 DUP4 PUSH2 0x952 JUMP JUMPDEST SWAP3 POP DUP3 DUP3 ADD SWAP1 POP DUP1 DUP3 GT ISZERO PUSH2 0xC81 JUMPI PUSH2 0xC80 PUSH2 0xBF0 JUMP JUMPDEST JUMPDEST SWAP3 SWAP2 POP POP JUMP INVALID LOG2 PUSH5 0x6970667358 0x22 SLT KECCAK256 0xCF CREATE SHR PUSH15 0x8A8BD87CDE796D9267859891894C28 0x2C 0xB1 MSTORE DUP7 SSTORE LOG0 0xDE 0xB7 DUP10 0xA5 0x22 PUSH22 0x6464736F6C6343000812003300000000000000000000 "
				},
				"gasEstimates": {
					"creation": {
						"codeDepositCost": "652200",
						"executionCost": "infinite",
						"totalCost": "infinite"
					},
					"external": {
						"decimalFactor()": "2451",
						"decimals()": "2474",
						"symbol()": "infinite",
						"tokenName()": "infinite",
						"totalSupply()": "2430",
						"transfer(address,uint256)": "infinite",
						"transferFrom(address,address,uint256)": "infinite"
					}
				},
				"methodIdentifiers": {
					"decimalFactor()": "6d6a6a4d",
					"decimals()": "313ce567",
					"symbol()": "95d89b41",
					"tokenName()": "6c02a931",
					"totalSupply()": "18160ddd",
					"transfer(address,uint256)": "a9059cbb",
					"transferFrom(address,address,uint256)": "23b872dd"
				}
			},
			"storageLayout": {
				"storage": [
					{
						"astId": 320,
						"contract": "tokenweb3.sol:web3ClubsToken",
						"label": "tokenName",
						"offset": 0,
						"slot": "0",
						"type": "t_string_storage"
					},
					{
						"astId": 323,
						"contract": "tokenweb3.sol:web3ClubsToken",
						"label": "symbol",
						"offset": 0,
						"slot": "1",
						"type": "t_string_storage"
					},
					{
						"astId": 326,
						"contract": "tokenweb3.sol:web3ClubsToken",
						"label": "decimals",
						"offset": 0,
						"slot": "2",
						"type": "t_uint256"
					},
					{
						"astId": 334,
						"contract": "tokenweb3.sol:web3ClubsToken",
						"label": "decimalFactor",
						"offset": 0,
						"slot": "3",
						"type": "t_uint256"
					},
					{
						"astId": 339,
						"contract": "tokenweb3.sol:web3ClubsToken",
						"label": "totalSupply",
						"offset": 0,
						"slot": "4",
						"type": "t_uint256"
					},
					{
						"astId": 351,
						"contract": "tokenweb3.sol:web3ClubsToken",
						"label": "balances",
						"offset": 0,
						"slot": "5",
						"type": "t_mapping(t_address,t_uint256)"
					},
					{
						"astId": 357,
						"contract": "tokenweb3.sol:web3ClubsToken",
						"label": "allowed",
						"offset": 0,
						"slot": "6",
						"type": "t_mapping(t_address,t_mapping(t_address,t_uint256))"
					}
				],
				"types": {
					"t_address": {
						"encoding": "inplace",
						"label": "address",
						"numberOfBytes": "20"
					},
					"t_mapping(t_address,t_mapping(t_address,t_uint256))": {
						"encoding": "mapping",
						"key": "t_address",
						"label": "mapping(address => mapping(address => uint256))",
						"numberOfBytes": "32",
						"value": "t_mapping(t_address,t_uint256)"
					},
					"t_mapping(t_address,t_uint256)": {
						"encoding": "mapping",
						"key": "t_address",
						"label": "mapping(address => uint256)",
						"numberOfBytes": "32",
						"value": "t_uint256"
					},
					"t_string_storage": {
						"encoding": "bytes",
						"label": "string",
						"numberOfBytes": "32"
					},
					"t_uint256": {
						"encoding": "inplace",
						"label": "uint256",
						"numberOfBytes": "32"
					}
				}
			},
			"userdoc": {
				"kind": "user",
				"methods": {},
				"version": 1
			}
		}
	}
}