{
	"logicaloperations.sol": {
		"logicalOperations": {
			"abi": [
				{
					"inputs": [],
					"name": "a",
					"outputs": [
						{
							"internalType": "bool",
							"name": "",
							"type": "bool"
						}
					],
					"stateMutability": "view",
					"type": "function"
				},
				{
					"inputs": [],
					"name": "b",
					"outputs": [
						{
							"internalType": "bool",
							"name": "",
							"type": "bool"
						}
					],
					"stateMutability": "view",
					"type": "function"
				},
				{
					"inputs": [],
					"name": "logicalOps",
					"outputs": [
						{
							"internalType": "bool",
							"name": "",
							"type": "bool"
						},
						{
							"internalType": "bool",
							"name": "",
							"type": "bool"
						},
						{
							"internalType": "bool",
							"name": "",
							"type": "bool"
						},
						{
							"internalType": "bool",
							"name": "",
							"type": "bool"
						}
					],
					"stateMutability": "view",
					"type": "function"
				}
			],
			"devdoc": {
				"kind": "dev",
				"methods": {},
				"version": 1
			},
			"evm": {
				"assembly": "    /* \"logicaloperations.sol\":132:502  contract logicalOperations {... */\n  mstore(0x40, 0x80)\n    /* \"logicaloperations.sol\":182:186  true */\n  0x01\n    /* \"logicaloperations.sol\":166:186  bool public a = true */\n  0x00\n  dup1\n  0x0100\n  exp\n  dup2\n  sload\n  dup2\n  0xff\n  mul\n  not\n  and\n  swap1\n  dup4\n  iszero\n  iszero\n  mul\n  or\n  swap1\n  sstore\n  pop\n    /* \"logicaloperations.sol\":209:214  false */\n  0x00\n    /* \"logicaloperations.sol\":193:214  bool public b = false */\n  dup1\n  exp(0x0100, 0x01)\n  dup2\n  sload\n  dup2\n  0xff\n  mul\n  not\n  and\n  swap1\n  dup4\n  iszero\n  iszero\n  mul\n  or\n  swap1\n  sstore\n  pop\n    /* \"logicaloperations.sol\":132:502  contract logicalOperations {... */\n  callvalue\n  dup1\n  iszero\n  tag_1\n  jumpi\n  0x00\n  dup1\n  revert\ntag_1:\n  pop\n  dataSize(sub_0)\n  dup1\n  dataOffset(sub_0)\n  0x00\n  codecopy\n  0x00\n  return\nstop\n\nsub_0: assembly {\n        /* \"logicaloperations.sol\":132:502  contract logicalOperations {... */\n      mstore(0x40, 0x80)\n      callvalue\n      dup1\n      iszero\n      tag_1\n      jumpi\n      0x00\n      dup1\n      revert\n    tag_1:\n      pop\n      jumpi(tag_2, lt(calldatasize, 0x04))\n      shr(0xe0, calldataload(0x00))\n      dup1\n      0x0dbe671f\n      eq\n      tag_3\n      jumpi\n      dup1\n      0x4df7e3d0\n      eq\n      tag_4\n      jumpi\n      dup1\n      0xeea381a3\n      eq\n      tag_5\n      jumpi\n    tag_2:\n      0x00\n      dup1\n      revert\n        /* \"logicaloperations.sol\":166:186  bool public a = true */\n    tag_3:\n      tag_6\n      tag_7\n      jump\t// in\n    tag_6:\n      mload(0x40)\n      tag_8\n      swap2\n      swap1\n      tag_9\n      jump\t// in\n    tag_8:\n      mload(0x40)\n      dup1\n      swap2\n      sub\n      swap1\n      return\n        /* \"logicaloperations.sol\":193:214  bool public b = false */\n    tag_4:\n      tag_10\n      tag_11\n      jump\t// in\n    tag_10:\n      mload(0x40)\n      tag_12\n      swap2\n      swap1\n      tag_9\n      jump\t// in\n    tag_12:\n      mload(0x40)\n      dup1\n      swap2\n      sub\n      swap1\n      return\n        /* \"logicaloperations.sol\":223:499  function logicalOps() public view returns(bool, bool, bool, bool) {... */\n    tag_5:\n      tag_13\n      tag_14\n      jump\t// in\n    tag_13:\n      mload(0x40)\n      tag_15\n      swap5\n      swap4\n      swap3\n      swap2\n      swap1\n      tag_16\n      jump\t// in\n    tag_15:\n      mload(0x40)\n      dup1\n      swap2\n      sub\n      swap1\n      return\n        /* \"logicaloperations.sol\":166:186  bool public a = true */\n    tag_7:\n      0x00\n      dup1\n      sload\n      swap1\n      0x0100\n      exp\n      swap1\n      div\n      0xff\n      and\n      dup2\n      jump\t// out\n        /* \"logicaloperations.sol\":193:214  bool public b = false */\n    tag_11:\n      0x00\n      0x01\n      swap1\n      sload\n      swap1\n      0x0100\n      exp\n      swap1\n      div\n      0xff\n      and\n      dup2\n      jump\t// out\n        /* \"logicaloperations.sol\":223:499  function logicalOps() public view returns(bool, bool, bool, bool) {... */\n    tag_14:\n        /* \"logicaloperations.sol\":265:269  bool */\n      0x00\n        /* \"logicaloperations.sol\":271:275  bool */\n      dup1\n        /* \"logicaloperations.sol\":277:281  bool */\n      0x00\n        /* \"logicaloperations.sol\":283:287  bool */\n      dup1\n        /* \"logicaloperations.sol\":300:314  bool andResult */\n      0x00\n        /* \"logicaloperations.sol\":317:318  a */\n      dup1\n      0x00\n      swap1\n      sload\n      swap1\n      0x0100\n      exp\n      swap1\n      div\n      0xff\n      and\n        /* \"logicaloperations.sol\":317:323  a && b */\n      dup1\n      iszero\n      tag_18\n      jumpi\n      pop\n        /* \"logicaloperations.sol\":322:323  b */\n      0x00\n      0x01\n      swap1\n      sload\n      swap1\n      0x0100\n      exp\n      swap1\n      div\n      0xff\n      and\n        /* \"logicaloperations.sol\":317:323  a && b */\n    tag_18:\n        /* \"logicaloperations.sol\":300:323  bool andResult = a && b */\n      swap1\n      pop\n        /* \"logicaloperations.sol\":334:347  bool orResult */\n      0x00\n        /* \"logicaloperations.sol\":350:351  a */\n      dup1\n      0x00\n      swap1\n      sload\n      swap1\n      0x0100\n      exp\n      swap1\n      div\n      0xff\n      and\n        /* \"logicaloperations.sol\":350:356  a || b */\n      dup1\n      tag_19\n      jumpi\n      pop\n        /* \"logicaloperations.sol\":355:356  b */\n      0x00\n      0x01\n      swap1\n      sload\n      swap1\n      0x0100\n      exp\n      swap1\n      div\n      0xff\n      and\n        /* \"logicaloperations.sol\":350:356  a || b */\n    tag_19:\n        /* \"logicaloperations.sol\":334:356  bool orResult = a || b */\n      swap1\n      pop\n        /* \"logicaloperations.sol\":367:382  bool notAResult */\n      0x00\n        /* \"logicaloperations.sol\":386:387  a */\n      dup1\n      0x00\n      swap1\n      sload\n      swap1\n      0x0100\n      exp\n      swap1\n      div\n      0xff\n      and\n        /* \"logicaloperations.sol\":385:387  !a */\n      iszero\n        /* \"logicaloperations.sol\":367:387  bool notAResult = !a */\n      swap1\n      pop\n        /* \"logicaloperations.sol\":398:413  bool notBResult */\n      0x00\n        /* \"logicaloperations.sol\":417:418  b */\n      dup1\n      0x01\n      swap1\n      sload\n      swap1\n      0x0100\n      exp\n      swap1\n      div\n      0xff\n      and\n        /* \"logicaloperations.sol\":416:418  !b */\n      iszero\n        /* \"logicaloperations.sol\":398:418  bool notBResult = !b */\n      swap1\n      pop\n        /* \"logicaloperations.sol\":447:456  andResult */\n      dup4\n        /* \"logicaloperations.sol\":458:466  orResult */\n      dup4\n        /* \"logicaloperations.sol\":468:478  notAResult */\n      dup4\n        /* \"logicaloperations.sol\":480:490  notBResult */\n      dup4\n        /* \"logicaloperations.sol\":439:491  return (andResult, orResult, notAResult, notBResult) */\n      swap8\n      pop\n      swap8\n      pop\n      swap8\n      pop\n      swap8\n      pop\n      pop\n      pop\n      pop\n      pop\n        /* \"logicaloperations.sol\":223:499  function logicalOps() public view returns(bool, bool, bool, bool) {... */\n      swap1\n      swap2\n      swap3\n      swap4\n      jump\t// out\n        /* \"#utility.yul\":7:97   */\n    tag_20:\n        /* \"#utility.yul\":41:48   */\n      0x00\n        /* \"#utility.yul\":84:89   */\n      dup2\n        /* \"#utility.yul\":77:90   */\n      iszero\n        /* \"#utility.yul\":70:91   */\n      iszero\n        /* \"#utility.yul\":59:91   */\n      swap1\n      pop\n        /* \"#utility.yul\":7:97   */\n      swap2\n      swap1\n      pop\n      jump\t// out\n        /* \"#utility.yul\":103:212   */\n    tag_21:\n        /* \"#utility.yul\":184:205   */\n      tag_25\n        /* \"#utility.yul\":199:204   */\n      dup2\n        /* \"#utility.yul\":184:205   */\n      tag_20\n      jump\t// in\n    tag_25:\n        /* \"#utility.yul\":179:182   */\n      dup3\n        /* \"#utility.yul\":172:206   */\n      mstore\n        /* \"#utility.yul\":103:212   */\n      pop\n      pop\n      jump\t// out\n        /* \"#utility.yul\":218:428   */\n    tag_9:\n        /* \"#utility.yul\":305:309   */\n      0x00\n        /* \"#utility.yul\":343:345   */\n      0x20\n        /* \"#utility.yul\":332:341   */\n      dup3\n        /* \"#utility.yul\":328:346   */\n      add\n        /* \"#utility.yul\":320:346   */\n      swap1\n      pop\n        /* \"#utility.yul\":356:421   */\n      tag_27\n        /* \"#utility.yul\":418:419   */\n      0x00\n        /* \"#utility.yul\":407:416   */\n      dup4\n        /* \"#utility.yul\":403:420   */\n      add\n        /* \"#utility.yul\":394:400   */\n      dup5\n        /* \"#utility.yul\":356:421   */\n      tag_21\n      jump\t// in\n    tag_27:\n        /* \"#utility.yul\":218:428   */\n      swap3\n      swap2\n      pop\n      pop\n      jump\t// out\n        /* \"#utility.yul\":434:939   */\n    tag_16:\n        /* \"#utility.yul\":587:591   */\n      0x00\n        /* \"#utility.yul\":625:628   */\n      0x80\n        /* \"#utility.yul\":614:623   */\n      dup3\n        /* \"#utility.yul\":610:629   */\n      add\n        /* \"#utility.yul\":602:629   */\n      swap1\n      pop\n        /* \"#utility.yul\":639:704   */\n      tag_29\n        /* \"#utility.yul\":701:702   */\n      0x00\n        /* \"#utility.yul\":690:699   */\n      dup4\n        /* \"#utility.yul\":686:703   */\n      add\n        /* \"#utility.yul\":677:683   */\n      dup8\n        /* \"#utility.yul\":639:704   */\n      tag_21\n      jump\t// in\n    tag_29:\n        /* \"#utility.yul\":714:780   */\n      tag_30\n        /* \"#utility.yul\":776:778   */\n      0x20\n        /* \"#utility.yul\":765:774   */\n      dup4\n        /* \"#utility.yul\":761:779   */\n      add\n        /* \"#utility.yul\":752:758   */\n      dup7\n        /* \"#utility.yul\":714:780   */\n      tag_21\n      jump\t// in\n    tag_30:\n        /* \"#utility.yul\":790:856   */\n      tag_31\n        /* \"#utility.yul\":852:854   */\n      0x40\n        /* \"#utility.yul\":841:850   */\n      dup4\n        /* \"#utility.yul\":837:855   */\n      add\n        /* \"#utility.yul\":828:834   */\n      dup6\n        /* \"#utility.yul\":790:856   */\n      tag_21\n      jump\t// in\n    tag_31:\n        /* \"#utility.yul\":866:932   */\n      tag_32\n        /* \"#utility.yul\":928:930   */\n      0x60\n        /* \"#utility.yul\":917:926   */\n      dup4\n        /* \"#utility.yul\":913:931   */\n      add\n        /* \"#utility.yul\":904:910   */\n      dup5\n        /* \"#utility.yul\":866:932   */\n      tag_21\n      jump\t// in\n    tag_32:\n        /* \"#utility.yul\":434:939   */\n      swap6\n      swap5\n      pop\n      pop\n      pop\n      pop\n      pop\n      jump\t// out\n\n    auxdata: 0xa26469706673582212209e1361a1c90ba196d8d00917850cab9c2b8e57d55e0e8e06dbdf0987eab3999264736f6c63430008120033\n}\n",
				"bytecode": {
					"linkReferences": {},
					"object": "608060405260016000806101000a81548160ff02191690831515021790555060008060016101000a81548160ff02191690831515021790555034801561004457600080fd5b50610211806100546000396000f3fe608060405234801561001057600080fd5b50600436106100415760003560e01c80630dbe671f146100465780634df7e3d014610064578063eea381a314610082575b600080fd5b61004e6100a3565b60405161005b919061017b565b60405180910390f35b61006c6100b4565b604051610079919061017b565b60405180910390f35b61008a6100c7565b60405161009a9493929190610196565b60405180910390f35b60008054906101000a900460ff1681565b600060019054906101000a900460ff1681565b60008060008060008060009054906101000a900460ff1680156100f65750600060019054906101000a900460ff165b905060008060009054906101000a900460ff16806101205750600060019054906101000a900460ff165b905060008060009054906101000a900460ff1615905060008060019054906101000a900460ff161590508383838397509750975097505050505090919293565b60008115159050919050565b61017581610160565b82525050565b6000602082019050610190600083018461016c565b92915050565b60006080820190506101ab600083018761016c565b6101b8602083018661016c565b6101c5604083018561016c565b6101d2606083018461016c565b9594505050505056fea26469706673582212209e1361a1c90ba196d8d00917850cab9c2b8e57d55e0e8e06dbdf0987eab3999264736f6c63430008120033",
					"opcodes": "PUSH1 0x80 PUSH1 0x40 MSTORE PUSH1 0x1 PUSH1 0x0 DUP1 PUSH2 0x100 EXP DUP2 SLOAD DUP2 PUSH1 0xFF MUL NOT AND SWAP1 DUP4 ISZERO ISZERO MUL OR SWAP1 SSTORE POP PUSH1 0x0 DUP1 PUSH1 0x1 PUSH2 0x100 EXP DUP2 SLOAD DUP2 PUSH1 0xFF MUL NOT AND SWAP1 DUP4 ISZERO ISZERO MUL OR SWAP1 SSTORE POP CALLVALUE DUP1 ISZERO PUSH2 0x44 JUMPI PUSH1 0x0 DUP1 REVERT JUMPDEST POP PUSH2 0x211 DUP1 PUSH2 0x54 PUSH1 0x0 CODECOPY PUSH1 0x0 RETURN INVALID PUSH1 0x80 PUSH1 0x40 MSTORE CALLVALUE DUP1 ISZERO PUSH2 0x10 JUMPI PUSH1 0x0 DUP1 REVERT JUMPDEST POP PUSH1 0x4 CALLDATASIZE LT PUSH2 0x41 JUMPI PUSH1 0x0 CALLDATALOAD PUSH1 0xE0 SHR DUP1 PUSH4 0xDBE671F EQ PUSH2 0x46 JUMPI DUP1 PUSH4 0x4DF7E3D0 EQ PUSH2 0x64 JUMPI DUP1 PUSH4 0xEEA381A3 EQ PUSH2 0x82 JUMPI JUMPDEST PUSH1 0x0 DUP1 REVERT JUMPDEST PUSH2 0x4E PUSH2 0xA3 JUMP JUMPDEST PUSH1 0x40 MLOAD PUSH2 0x5B SWAP2 SWAP1 PUSH2 0x17B JUMP JUMPDEST PUSH1 0x40 MLOAD DUP1 SWAP2 SUB SWAP1 RETURN JUMPDEST PUSH2 0x6C PUSH2 0xB4 JUMP JUMPDEST PUSH1 0x40 MLOAD PUSH2 0x79 SWAP2 SWAP1 PUSH2 0x17B JUMP JUMPDEST PUSH1 0x40 MLOAD DUP1 SWAP2 SUB SWAP1 RETURN JUMPDEST PUSH2 0x8A PUSH2 0xC7 JUMP JUMPDEST PUSH1 0x40 MLOAD PUSH2 0x9A SWAP5 SWAP4 SWAP3 SWAP2 SWAP1 PUSH2 0x196 JUMP JUMPDEST PUSH1 0x40 MLOAD DUP1 SWAP2 SUB SWAP1 RETURN JUMPDEST PUSH1 0x0 DUP1 SLOAD SWAP1 PUSH2 0x100 EXP SWAP1 DIV PUSH1 0xFF AND DUP2 JUMP JUMPDEST PUSH1 0x0 PUSH1 0x1 SWAP1 SLOAD SWAP1 PUSH2 0x100 EXP SWAP1 DIV PUSH1 0xFF AND DUP2 JUMP JUMPDEST PUSH1 0x0 DUP1 PUSH1 0x0 DUP1 PUSH1 0x0 DUP1 PUSH1 0x0 SWAP1 SLOAD SWAP1 PUSH2 0x100 EXP SWAP1 DIV PUSH1 0xFF AND DUP1 ISZERO PUSH2 0xF6 JUMPI POP PUSH1 0x0 PUSH1 0x1 SWAP1 SLOAD SWAP1 PUSH2 0x100 EXP SWAP1 DIV PUSH1 0xFF AND JUMPDEST SWAP1 POP PUSH1 0x0 DUP1 PUSH1 0x0 SWAP1 SLOAD SWAP1 PUSH2 0x100 EXP SWAP1 DIV PUSH1 0xFF AND DUP1 PUSH2 0x120 JUMPI POP PUSH1 0x0 PUSH1 0x1 SWAP1 SLOAD SWAP1 PUSH2 0x100 EXP SWAP1 DIV PUSH1 0xFF AND JUMPDEST SWAP1 POP PUSH1 0x0 DUP1 PUSH1 0x0 SWAP1 SLOAD SWAP1 PUSH2 0x100 EXP SWAP1 DIV PUSH1 0xFF AND ISZERO SWAP1 POP PUSH1 0x0 DUP1 PUSH1 0x1 SWAP1 SLOAD SWAP1 PUSH2 0x100 EXP SWAP1 DIV PUSH1 0xFF AND ISZERO SWAP1 POP DUP4 DUP4 DUP4 DUP4 SWAP8 POP SWAP8 POP SWAP8 POP SWAP8 POP POP POP POP POP SWAP1 SWAP2 SWAP3 SWAP4 JUMP JUMPDEST PUSH1 0x0 DUP2 ISZERO ISZERO SWAP1 POP SWAP2 SWAP1 POP JUMP JUMPDEST PUSH2 0x175 DUP2 PUSH2 0x160 JUMP JUMPDEST DUP3 MSTORE POP POP JUMP JUMPDEST PUSH1 0x0 PUSH1 0x20 DUP3 ADD SWAP1 POP PUSH2 0x190 PUSH1 0x0 DUP4 ADD DUP5 PUSH2 0x16C JUMP JUMPDEST SWAP3 SWAP2 POP POP JUMP JUMPDEST PUSH1 0x0 PUSH1 0x80 DUP3 ADD SWAP1 POP PUSH2 0x1AB PUSH1 0x0 DUP4 ADD DUP8 PUSH2 0x16C JUMP JUMPDEST PUSH2 0x1B8 PUSH1 0x20 DUP4 ADD DUP7 PUSH2 0x16C JUMP JUMPDEST PUSH2 0x1C5 PUSH1 0x40 DUP4 ADD DUP6 PUSH2 0x16C JUMP JUMPDEST PUSH2 0x1D2 PUSH1 0x60 DUP4 ADD DUP5 PUSH2 0x16C JUMP JUMPDEST SWAP6 SWAP5 POP POP POP POP POP JUMP INVALID LOG2 PUSH5 0x6970667358 0x22 SLT KECCAK256 SWAP15 SGT PUSH2 0xA1C9 SIGNEXTEND LOG1 SWAP7 0xD8 0xD0 MULMOD OR DUP6 0xC 0xAB SWAP13 0x2B DUP15 JUMPI 0xD5 0x5E 0xE DUP15 MOD 0xDB 0xDF MULMOD DUP8 0xEA 0xB3 SWAP10 SWAP3 PUSH5 0x736F6C6343 STOP ADDMOD SLT STOP CALLER "
				},
				"gasEstimates": {
					"creation": {
						"codeDepositCost": "105800",
						"executionCost": "48737",
						"totalCost": "154537"
					},
					"external": {
						"a()": "2446",
						"b()": "2521",
						"logicalOps()": "infinite"
					}
				},
				"methodIdentifiers": {
					"a()": "0dbe671f",
					"b()": "4df7e3d0",
					"logicalOps()": "eea381a3"
				}
			},
			"storageLayout": {
				"storage": [
					{
						"astId": 4,
						"contract": "logicaloperations.sol:logicalOperations",
						"label": "a",
						"offset": 0,
						"slot": "0",
						"type": "t_bool"
					},
					{
						"astId": 7,
						"contract": "logicaloperations.sol:logicalOperations",
						"label": "b",
						"offset": 1,
						"slot": "0",
						"type": "t_bool"
					}
				],
				"types": {
					"t_bool": {
						"encoding": "inplace",
						"label": "bool",
						"numberOfBytes": "1"
					}
				}
			},
			"userdoc": {
				"kind": "user",
				"methods": {},
				"version": 1
			}
		}
	}
}