{
	"web3.sol": {
		"currentCount": {
			"abi": [
				{
					"inputs": [],
					"name": "count",
					"outputs": [
						{
							"internalType": "uint256",
							"name": "",
							"type": "uint256"
						}
					],
					"stateMutability": "view",
					"type": "function"
				},
				{
					"inputs": [],
					"name": "decrement",
					"outputs": [],
					"stateMutability": "nonpayable",
					"type": "function"
				},
				{
					"inputs": [],
					"name": "getCurrentCount",
					"outputs": [
						{
							"internalType": "uint256",
							"name": "",
							"type": "uint256"
						}
					],
					"stateMutability": "view",
					"type": "function"
				},
				{
					"inputs": [],
					"name": "increment",
					"outputs": [],
					"stateMutability": "nonpayable",
					"type": "function"
				}
			],
			"devdoc": {
				"kind": "dev",
				"methods": {},
				"version": 1
			},
			"evm": {
				"assembly": "    /* \"web3.sol\":523:960  contract currentCount {... */\n  mstore(0x40, 0x80)\n  callvalue\n  dup1\n  iszero\n  tag_1\n  jumpi\n  0x00\n  dup1\n  revert\ntag_1:\n  pop\n  dataSize(sub_0)\n  dup1\n  dataOffset(sub_0)\n  0x00\n  codecopy\n  0x00\n  return\nstop\n\nsub_0: assembly {\n        /* \"web3.sol\":523:960  contract currentCount {... */\n      mstore(0x40, 0x80)\n      callvalue\n      dup1\n      iszero\n      tag_1\n      jumpi\n      0x00\n      dup1\n      revert\n    tag_1:\n      pop\n      jumpi(tag_2, lt(calldatasize, 0x04))\n      shr(0xe0, calldataload(0x00))\n      dup1\n      0x06661abd\n      eq\n      tag_3\n      jumpi\n      dup1\n      0x2baeceb7\n      eq\n      tag_4\n      jumpi\n      dup1\n      0xd09de08a\n      eq\n      tag_5\n      jumpi\n      dup1\n      0xdd51babf\n      eq\n      tag_6\n      jumpi\n    tag_2:\n      0x00\n      dup1\n      revert\n        /* \"web3.sol\":582:599  uint public count */\n    tag_3:\n      tag_7\n      tag_8\n      jump\t// in\n    tag_7:\n      mload(0x40)\n      tag_9\n      swap2\n      swap1\n      tag_10\n      jump\t// in\n    tag_9:\n      mload(0x40)\n      dup1\n      swap2\n      sub\n      swap1\n      return\n        /* \"web3.sol\":752:809  function decrement() public {... */\n    tag_4:\n      tag_11\n      tag_12\n      jump\t// in\n    tag_11:\n      stop\n        /* \"web3.sol\":646:702  function increment() public{... */\n    tag_5:\n      tag_13\n      tag_14\n      jump\t// in\n    tag_13:\n      stop\n        /* \"web3.sol\":873:957  function getCurrentCount() public view returns (uint){... */\n    tag_6:\n      tag_15\n      tag_16\n      jump\t// in\n    tag_15:\n      mload(0x40)\n      tag_17\n      swap2\n      swap1\n      tag_10\n      jump\t// in\n    tag_17:\n      mload(0x40)\n      dup1\n      swap2\n      sub\n      swap1\n      return\n        /* \"web3.sol\":582:599  uint public count */\n    tag_8:\n      sload(0x00)\n      dup2\n      jump\t// out\n        /* \"web3.sol\":752:809  function decrement() public {... */\n    tag_12:\n        /* \"web3.sol\":800:801  1 */\n      0x01\n        /* \"web3.sol\":791:796  count */\n      0x00\n      dup1\n        /* \"web3.sol\":791:801  count -= 1 */\n      dup3\n      dup3\n      sload\n      tag_19\n      swap2\n      swap1\n      tag_20\n      jump\t// in\n    tag_19:\n      swap3\n      pop\n      pop\n      dup2\n      swap1\n      sstore\n      pop\n        /* \"web3.sol\":752:809  function decrement() public {... */\n      jump\t// out\n        /* \"web3.sol\":646:702  function increment() public{... */\n    tag_14:\n        /* \"web3.sol\":693:694  1 */\n      0x01\n        /* \"web3.sol\":684:689  count */\n      0x00\n      dup1\n        /* \"web3.sol\":684:694  count += 1 */\n      dup3\n      dup3\n      sload\n      tag_22\n      swap2\n      swap1\n      tag_23\n      jump\t// in\n    tag_22:\n      swap3\n      pop\n      pop\n      dup2\n      swap1\n      sstore\n      pop\n        /* \"web3.sol\":646:702  function increment() public{... */\n      jump\t// out\n        /* \"web3.sol\":873:957  function getCurrentCount() public view returns (uint){... */\n    tag_16:\n        /* \"web3.sol\":921:925  uint */\n      0x00\n        /* \"web3.sol\":944:949  count */\n      dup1\n      sload\n        /* \"web3.sol\":937:949  return count */\n      swap1\n      pop\n        /* \"web3.sol\":873:957  function getCurrentCount() public view returns (uint){... */\n      swap1\n      jump\t// out\n        /* \"#utility.yul\":7:84   */\n    tag_25:\n        /* \"#utility.yul\":44:51   */\n      0x00\n        /* \"#utility.yul\":73:78   */\n      dup2\n        /* \"#utility.yul\":62:78   */\n      swap1\n      pop\n        /* \"#utility.yul\":7:84   */\n      swap2\n      swap1\n      pop\n      jump\t// out\n        /* \"#utility.yul\":90:208   */\n    tag_26:\n        /* \"#utility.yul\":177:201   */\n      tag_31\n        /* \"#utility.yul\":195:200   */\n      dup2\n        /* \"#utility.yul\":177:201   */\n      tag_25\n      jump\t// in\n    tag_31:\n        /* \"#utility.yul\":172:175   */\n      dup3\n        /* \"#utility.yul\":165:202   */\n      mstore\n        /* \"#utility.yul\":90:208   */\n      pop\n      pop\n      jump\t// out\n        /* \"#utility.yul\":214:436   */\n    tag_10:\n        /* \"#utility.yul\":307:311   */\n      0x00\n        /* \"#utility.yul\":345:347   */\n      0x20\n        /* \"#utility.yul\":334:343   */\n      dup3\n        /* \"#utility.yul\":330:348   */\n      add\n        /* \"#utility.yul\":322:348   */\n      swap1\n      pop\n        /* \"#utility.yul\":358:429   */\n      tag_33\n        /* \"#utility.yul\":426:427   */\n      0x00\n        /* \"#utility.yul\":415:424   */\n      dup4\n        /* \"#utility.yul\":411:428   */\n      add\n        /* \"#utility.yul\":402:408   */\n      dup5\n        /* \"#utility.yul\":358:429   */\n      tag_26\n      jump\t// in\n    tag_33:\n        /* \"#utility.yul\":214:436   */\n      swap3\n      swap2\n      pop\n      pop\n      jump\t// out\n        /* \"#utility.yul\":442:622   */\n    tag_27:\n        /* \"#utility.yul\":490:567   */\n      0x4e487b7100000000000000000000000000000000000000000000000000000000\n        /* \"#utility.yul\":487:488   */\n      0x00\n        /* \"#utility.yul\":480:568   */\n      mstore\n        /* \"#utility.yul\":587:591   */\n      0x11\n        /* \"#utility.yul\":584:585   */\n      0x04\n        /* \"#utility.yul\":577:592   */\n      mstore\n        /* \"#utility.yul\":611:615   */\n      0x24\n        /* \"#utility.yul\":608:609   */\n      0x00\n        /* \"#utility.yul\":601:616   */\n      revert\n        /* \"#utility.yul\":628:822   */\n    tag_20:\n        /* \"#utility.yul\":668:672   */\n      0x00\n        /* \"#utility.yul\":688:708   */\n      tag_36\n        /* \"#utility.yul\":706:707   */\n      dup3\n        /* \"#utility.yul\":688:708   */\n      tag_25\n      jump\t// in\n    tag_36:\n        /* \"#utility.yul\":683:708   */\n      swap2\n      pop\n        /* \"#utility.yul\":722:742   */\n      tag_37\n        /* \"#utility.yul\":740:741   */\n      dup4\n        /* \"#utility.yul\":722:742   */\n      tag_25\n      jump\t// in\n    tag_37:\n        /* \"#utility.yul\":717:742   */\n      swap3\n      pop\n        /* \"#utility.yul\":766:767   */\n      dup3\n        /* \"#utility.yul\":763:764   */\n      dup3\n        /* \"#utility.yul\":759:768   */\n      sub\n        /* \"#utility.yul\":751:768   */\n      swap1\n      pop\n        /* \"#utility.yul\":790:791   */\n      dup2\n        /* \"#utility.yul\":784:788   */\n      dup2\n        /* \"#utility.yul\":781:792   */\n      gt\n        /* \"#utility.yul\":778:815   */\n      iszero\n      tag_38\n      jumpi\n        /* \"#utility.yul\":795:813   */\n      tag_39\n      tag_27\n      jump\t// in\n    tag_39:\n        /* \"#utility.yul\":778:815   */\n    tag_38:\n        /* \"#utility.yul\":628:822   */\n      swap3\n      swap2\n      pop\n      pop\n      jump\t// out\n        /* \"#utility.yul\":828:1019   */\n    tag_23:\n        /* \"#utility.yul\":868:871   */\n      0x00\n        /* \"#utility.yul\":887:907   */\n      tag_41\n        /* \"#utility.yul\":905:906   */\n      dup3\n        /* \"#utility.yul\":887:907   */\n      tag_25\n      jump\t// in\n    tag_41:\n        /* \"#utility.yul\":882:907   */\n      swap2\n      pop\n        /* \"#utility.yul\":921:941   */\n      tag_42\n        /* \"#utility.yul\":939:940   */\n      dup4\n        /* \"#utility.yul\":921:941   */\n      tag_25\n      jump\t// in\n    tag_42:\n        /* \"#utility.yul\":916:941   */\n      swap3\n      pop\n        /* \"#utility.yul\":964:965   */\n      dup3\n        /* \"#utility.yul\":961:962   */\n      dup3\n        /* \"#utility.yul\":957:966   */\n      add\n        /* \"#utility.yul\":950:966   */\n      swap1\n      pop\n        /* \"#utility.yul\":985:988   */\n      dup1\n        /* \"#utility.yul\":982:983   */\n      dup3\n        /* \"#utility.yul\":979:989   */\n      gt\n        /* \"#utility.yul\":976:1012   */\n      iszero\n      tag_43\n      jumpi\n        /* \"#utility.yul\":992:1010   */\n      tag_44\n      tag_27\n      jump\t// in\n    tag_44:\n        /* \"#utility.yul\":976:1012   */\n    tag_43:\n        /* \"#utility.yul\":828:1019   */\n      swap3\n      swap2\n      pop\n      pop\n      jump\t// out\n\n    auxdata: 0xa2646970667358221220c2c775e1fa6c26d84b7a6ec166937ffcf5678fc8d949aca413f3c38bb2a24c2864736f6c63430008120033\n}\n",
				"bytecode": {
					"linkReferences": {},
					"object": "608060405234801561001057600080fd5b506101e7806100206000396000f3fe608060405234801561001057600080fd5b506004361061004c5760003560e01c806306661abd146100515780632baeceb71461006f578063d09de08a14610079578063dd51babf14610083575b600080fd5b6100596100a1565b60405161006691906100ff565b60405180910390f35b6100776100a7565b005b6100816100c2565b005b61008b6100dd565b60405161009891906100ff565b60405180910390f35b60005481565b60016000808282546100b99190610149565b92505081905550565b60016000808282546100d4919061017d565b92505081905550565b60008054905090565b6000819050919050565b6100f9816100e6565b82525050565b600060208201905061011460008301846100f0565b92915050565b7f4e487b7100000000000000000000000000000000000000000000000000000000600052601160045260246000fd5b6000610154826100e6565b915061015f836100e6565b92508282039050818111156101775761017661011a565b5b92915050565b6000610188826100e6565b9150610193836100e6565b92508282019050808211156101ab576101aa61011a565b5b9291505056fea2646970667358221220c2c775e1fa6c26d84b7a6ec166937ffcf5678fc8d949aca413f3c38bb2a24c2864736f6c63430008120033",
					"opcodes": "PUSH1 0x80 PUSH1 0x40 MSTORE CALLVALUE DUP1 ISZERO PUSH2 0x10 JUMPI PUSH1 0x0 DUP1 REVERT JUMPDEST POP PUSH2 0x1E7 DUP1 PUSH2 0x20 PUSH1 0x0 CODECOPY PUSH1 0x0 RETURN INVALID PUSH1 0x80 PUSH1 0x40 MSTORE CALLVALUE DUP1 ISZERO PUSH2 0x10 JUMPI PUSH1 0x0 DUP1 REVERT JUMPDEST POP PUSH1 0x4 CALLDATASIZE LT PUSH2 0x4C JUMPI PUSH1 0x0 CALLDATALOAD PUSH1 0xE0 SHR DUP1 PUSH4 0x6661ABD EQ PUSH2 0x51 JUMPI DUP1 PUSH4 0x2BAECEB7 EQ PUSH2 0x6F JUMPI DUP1 PUSH4 0xD09DE08A EQ PUSH2 0x79 JUMPI DUP1 PUSH4 0xDD51BABF EQ PUSH2 0x83 JUMPI JUMPDEST PUSH1 0x0 DUP1 REVERT JUMPDEST PUSH2 0x59 PUSH2 0xA1 JUMP JUMPDEST PUSH1 0x40 MLOAD PUSH2 0x66 SWAP2 SWAP1 PUSH2 0xFF JUMP JUMPDEST PUSH1 0x40 MLOAD DUP1 SWAP2 SUB SWAP1 RETURN JUMPDEST PUSH2 0x77 PUSH2 0xA7 JUMP JUMPDEST STOP JUMPDEST PUSH2 0x81 PUSH2 0xC2 JUMP JUMPDEST STOP JUMPDEST PUSH2 0x8B PUSH2 0xDD JUMP JUMPDEST PUSH1 0x40 MLOAD PUSH2 0x98 SWAP2 SWAP1 PUSH2 0xFF JUMP JUMPDEST PUSH1 0x40 MLOAD DUP1 SWAP2 SUB SWAP1 RETURN JUMPDEST PUSH1 0x0 SLOAD DUP2 JUMP JUMPDEST PUSH1 0x1 PUSH1 0x0 DUP1 DUP3 DUP3 SLOAD PUSH2 0xB9 SWAP2 SWAP1 PUSH2 0x149 JUMP JUMPDEST SWAP3 POP POP DUP2 SWAP1 SSTORE POP JUMP JUMPDEST PUSH1 0x1 PUSH1 0x0 DUP1 DUP3 DUP3 SLOAD PUSH2 0xD4 SWAP2 SWAP1 PUSH2 0x17D JUMP JUMPDEST SWAP3 POP POP DUP2 SWAP1 SSTORE POP JUMP JUMPDEST PUSH1 0x0 DUP1 SLOAD SWAP1 POP SWAP1 JUMP JUMPDEST PUSH1 0x0 DUP2 SWAP1 POP SWAP2 SWAP1 POP JUMP JUMPDEST PUSH2 0xF9 DUP2 PUSH2 0xE6 JUMP JUMPDEST DUP3 MSTORE POP POP JUMP JUMPDEST PUSH1 0x0 PUSH1 0x20 DUP3 ADD SWAP1 POP PUSH2 0x114 PUSH1 0x0 DUP4 ADD DUP5 PUSH2 0xF0 JUMP JUMPDEST SWAP3 SWAP2 POP POP JUMP JUMPDEST PUSH32 0x4E487B7100000000000000000000000000000000000000000000000000000000 PUSH1 0x0 MSTORE PUSH1 0x11 PUSH1 0x4 MSTORE PUSH1 0x24 PUSH1 0x0 REVERT JUMPDEST PUSH1 0x0 PUSH2 0x154 DUP3 PUSH2 0xE6 JUMP JUMPDEST SWAP2 POP PUSH2 0x15F DUP4 PUSH2 0xE6 JUMP JUMPDEST SWAP3 POP DUP3 DUP3 SUB SWAP1 POP DUP2 DUP2 GT ISZERO PUSH2 0x177 JUMPI PUSH2 0x176 PUSH2 0x11A JUMP JUMPDEST JUMPDEST SWAP3 SWAP2 POP POP JUMP JUMPDEST PUSH1 0x0 PUSH2 0x188 DUP3 PUSH2 0xE6 JUMP JUMPDEST SWAP2 POP PUSH2 0x193 DUP4 PUSH2 0xE6 JUMP JUMPDEST SWAP3 POP DUP3 DUP3 ADD SWAP1 POP DUP1 DUP3 GT ISZERO PUSH2 0x1AB JUMPI PUSH2 0x1AA PUSH2 0x11A JUMP JUMPDEST JUMPDEST SWAP3 SWAP2 POP POP JUMP INVALID LOG2 PUSH5 0x6970667358 0x22 SLT KECCAK256 0xC2 0xC7 PUSH22 0xE1FA6C26D84B7A6EC166937FFCF5678FC8D949ACA413 RETURN 0xC3 DUP12 0xB2 LOG2 0x4C 0x28 PUSH5 0x736F6C6343 STOP ADDMOD SLT STOP CALLER "
				},
				"gasEstimates": {
					"creation": {
						"codeDepositCost": "97400",
						"executionCost": "147",
						"totalCost": "97547"
					},
					"external": {
						"count()": "2407",
						"decrement()": "infinite",
						"getCurrentCount()": "2481",
						"increment()": "infinite"
					}
				},
				"methodIdentifiers": {
					"count()": "06661abd",
					"decrement()": "2baeceb7",
					"getCurrentCount()": "dd51babf",
					"increment()": "d09de08a"
				}
			},
			"storageLayout": {
				"storage": [
					{
						"astId": 19,
						"contract": "web3.sol:currentCount",
						"label": "count",
						"offset": 0,
						"slot": "0",
						"type": "t_uint256"
					}
				],
				"types": {
					"t_uint256": {
						"encoding": "inplace",
						"label": "uint256",
						"numberOfBytes": "32"
					}
				}
			},
			"userdoc": {
				"kind": "user",
				"methods": {},
				"version": 1
			}
		}
	}
}