{
	"data": {
		"bytecode": {
			"linkReferences": {},
			"object": "60806040526127106000556040518060400160405280600e81526020017f77656233436c756273546f6b656e000000000000000000000000000000000000815250600190816200005091906200032b565b506040518060400160405280600381526020017f5743540000000000000000000000000000000000000000000000000000000000815250600290816200009791906200032b565b506012600355348015620000aa57600080fd5b5062000412565b600081519050919050565b7f4e487b7100000000000000000000000000000000000000000000000000000000600052604160045260246000fd5b7f4e487b7100000000000000000000000000000000000000000000000000000000600052602260045260246000fd5b600060028204905060018216806200013357607f821691505b602082108103620001495762000148620000eb565b5b50919050565b60008190508160005260206000209050919050565b60006020601f8301049050919050565b600082821b905092915050565b600060088302620001b37fffffffffffffffffffffffffffffffffffffffffffffffffffffffffffffffff8262000174565b620001bf868362000174565b95508019841693508086168417925050509392505050565b6000819050919050565b6000819050919050565b60006200020c620002066200020084620001d7565b620001e1565b620001d7565b9050919050565b6000819050919050565b6200022883620001eb565b62000240620002378262000213565b84845462000181565b825550505050565b600090565b6200025762000248565b620002648184846200021d565b505050565b5b818110156200028c57620002806000826200024d565b6001810190506200026a565b5050565b601f821115620002db57620002a5816200014f565b620002b08462000164565b81016020851015620002c0578190505b620002d8620002cf8562000164565b83018262000269565b50505b505050565b600082821c905092915050565b60006200030060001984600802620002e0565b1980831691505092915050565b60006200031b8383620002ed565b9150826002028217905092915050565b6200033682620000b1565b67ffffffffffffffff811115620003525762000351620000bc565b5b6200035e82546200011a565b6200036b82828562000290565b600060209050601f831160018114620003a357600084156200038e578287015190505b6200039a85826200030d565b8655506200040a565b601f198416620003b3866200014f565b60005b82811015620003dd57848901518255600182019150602085019450602081019050620003b6565b86831015620003fd5784890151620003f9601f891682620002ed565b8355505b6001600288020188555050505b505050505050565b6104e980620004226000396000f3fe608060405234801561001057600080fd5b506004361061007d5760003560e01c80636c02a9311161005b5780636c02a931146100dc578063811c34d3146100fa57806395d89b4114610104578063beabacc8146101225761007d565b806319d37e4a146100825780632aefc8d2146100a0578063313ce567146100be575b600080fd5b61008a610152565b60405161009791906102a4565b60405180910390f35b6100a8610158565b6040516100b591906102a4565b60405180910390f35b6100c661015e565b6040516100d391906102a4565b60405180910390f35b6100e4610164565b6040516100f1919061034f565b60405180910390f35b6101026101f2565b005b61010c6101f4565b604051610119919061034f565b60405180910390f35b61013c60048036038101906101379190610400565b610282565b60405161014991906102a4565b60405180910390f35b60045481565b60005481565b60035481565b6001805461017190610482565b80601f016020809104026020016040519081016040528092919081815260200182805461019d90610482565b80156101ea5780601f106101bf576101008083540402835291602001916101ea565b820191906000526020600020905b8154815290600101906020018083116101cd57829003601f168201915b505050505081565b565b6002805461020190610482565b80601f016020809104026020016040519081016040528092919081815260200182805461022d90610482565b801561027a5780601f1061024f5761010080835404028352916020019161027a565b820191906000526020600020905b81548152906001019060200180831161025d57829003601f168201915b505050505081565b60009392505050565b6000819050919050565b61029e8161028b565b82525050565b60006020820190506102b96000830184610295565b92915050565b600081519050919050565b600082825260208201905092915050565b60005b838110156102f95780820151818401526020810190506102de565b60008484015250505050565b6000601f19601f8301169050919050565b6000610321826102bf565b61032b81856102ca565b935061033b8185602086016102db565b61034481610305565b840191505092915050565b600060208201905081810360008301526103698184610316565b905092915050565b600080fd5b600073ffffffffffffffffffffffffffffffffffffffff82169050919050565b60006103a182610376565b9050919050565b6103b181610396565b81146103bc57600080fd5b50565b6000813590506103ce816103a8565b92915050565b6103dd8161028b565b81146103e857600080fd5b50565b6000813590506103fa816103d4565b92915050565b60008060006060848603121561041957610418610371565b5b6000610427868287016103bf565b9350506020610438868287016103bf565b9250506040610449868287016103eb565b9150509250925092565b7f4e487b7100000000000000000000000000000000000000000000000000000000600052602260045260246000fd5b6000600282049050600182168061049a57607f821691505b6020821081036104ad576104ac610453565b5b5091905056fea26469706673582212209b385d5c13b63706e049d81d4ddc020f5df4a131ffaad04235fed7f95e01ead164736f6c63430008120033",
			"opcodes": "PUSH1 0x80 PUSH1 0x40 MSTORE PUSH2 0x2710 PUSH1 0x0 SSTORE PUSH1 0x40 MLOAD DUP1 PUSH1 0x40 ADD PUSH1 0x40 MSTORE DUP1 PUSH1 0xE DUP2 MSTORE PUSH1 0x20 ADD PUSH32 0x77656233436C756273546F6B656E000000000000000000000000000000000000 DUP2 MSTORE POP PUSH1 0x1 SWAP1 DUP2 PUSH3 0x50 SWAP2 SWAP1 PUSH3 0x32B JUMP JUMPDEST POP PUSH1 0x40 MLOAD DUP1 PUSH1 0x40 ADD PUSH1 0x40 MSTORE DUP1 PUSH1 0x3 DUP2 MSTORE PUSH1 0x20 ADD PUSH32 0x5743540000000000000000000000000000000000000000000000000000000000 DUP2 MSTORE POP PUSH1 0x2 SWAP1 DUP2 PUSH3 0x97 SWAP2 SWAP1 PUSH3 0x32B JUMP JUMPDEST POP PUSH1 0x12 PUSH1 0x3 SSTORE CALLVALUE DUP1 ISZERO PUSH3 0xAA JUMPI PUSH1 0x0 DUP1 REVERT JUMPDEST POP PUSH3 0x412 JUMP JUMPDEST PUSH1 0x0 DUP2 MLOAD SWAP1 POP SWAP2 SWAP1 POP JUMP JUMPDEST PUSH32 0x4E487B7100000000000000000000000000000000000000000000000000000000 PUSH1 0x0 MSTORE PUSH1 0x41 PUSH1 0x4 MSTORE PUSH1 0x24 PUSH1 0x0 REVERT JUMPDEST PUSH32 0x4E487B7100000000000000000000000000000000000000000000000000000000 PUSH1 0x0 MSTORE PUSH1 0x22 PUSH1 0x4 MSTORE PUSH1 0x24 PUSH1 0x0 REVERT JUMPDEST PUSH1 0x0 PUSH1 0x2 DUP3 DIV SWAP1 POP PUSH1 0x1 DUP3 AND DUP1 PUSH3 0x133 JUMPI PUSH1 0x7F DUP3 AND SWAP2 POP JUMPDEST PUSH1 0x20 DUP3 LT DUP2 SUB PUSH3 0x149 JUMPI PUSH3 0x148 PUSH3 0xEB JUMP JUMPDEST JUMPDEST POP SWAP2 SWAP1 POP JUMP JUMPDEST PUSH1 0x0 DUP2 SWAP1 POP DUP2 PUSH1 0x0 MSTORE PUSH1 0x20 PUSH1 0x0 KECCAK256 SWAP1 POP SWAP2 SWAP1 POP JUMP JUMPDEST PUSH1 0x0 PUSH1 0x20 PUSH1 0x1F DUP4 ADD DIV SWAP1 POP SWAP2 SWAP1 POP JUMP JUMPDEST PUSH1 0x0 DUP3 DUP3 SHL SWAP1 POP SWAP3 SWAP2 POP POP JUMP JUMPDEST PUSH1 0x0 PUSH1 0x8 DUP4 MUL PUSH3 0x1B3 PUSH32 0xFFFFFFFFFFFFFFFFFFFFFFFFFFFFFFFFFFFFFFFFFFFFFFFFFFFFFFFFFFFFFFFF DUP3 PUSH3 0x174 JUMP JUMPDEST PUSH3 0x1BF DUP7 DUP4 PUSH3 0x174 JUMP JUMPDEST SWAP6 POP DUP1 NOT DUP5 AND SWAP4 POP DUP1 DUP7 AND DUP5 OR SWAP3 POP POP POP SWAP4 SWAP3 POP POP POP JUMP JUMPDEST PUSH1 0x0 DUP2 SWAP1 POP SWAP2 SWAP1 POP JUMP JUMPDEST PUSH1 0x0 DUP2 SWAP1 POP SWAP2 SWAP1 POP JUMP JUMPDEST PUSH1 0x0 PUSH3 0x20C PUSH3 0x206 PUSH3 0x200 DUP5 PUSH3 0x1D7 JUMP JUMPDEST PUSH3 0x1E1 JUMP JUMPDEST PUSH3 0x1D7 JUMP JUMPDEST SWAP1 POP SWAP2 SWAP1 POP JUMP JUMPDEST PUSH1 0x0 DUP2 SWAP1 POP SWAP2 SWAP1 POP JUMP JUMPDEST PUSH3 0x228 DUP4 PUSH3 0x1EB JUMP JUMPDEST PUSH3 0x240 PUSH3 0x237 DUP3 PUSH3 0x213 JUMP JUMPDEST DUP5 DUP5 SLOAD PUSH3 0x181 JUMP JUMPDEST DUP3 SSTORE POP POP POP POP JUMP JUMPDEST PUSH1 0x0 SWAP1 JUMP JUMPDEST PUSH3 0x257 PUSH3 0x248 JUMP JUMPDEST PUSH3 0x264 DUP2 DUP5 DUP5 PUSH3 0x21D JUMP JUMPDEST POP POP POP JUMP JUMPDEST JUMPDEST DUP2 DUP2 LT ISZERO PUSH3 0x28C JUMPI PUSH3 0x280 PUSH1 0x0 DUP3 PUSH3 0x24D JUMP JUMPDEST PUSH1 0x1 DUP2 ADD SWAP1 POP PUSH3 0x26A JUMP JUMPDEST POP POP JUMP JUMPDEST PUSH1 0x1F DUP3 GT ISZERO PUSH3 0x2DB JUMPI PUSH3 0x2A5 DUP2 PUSH3 0x14F JUMP JUMPDEST PUSH3 0x2B0 DUP5 PUSH3 0x164 JUMP JUMPDEST DUP2 ADD PUSH1 0x20 DUP6 LT ISZERO PUSH3 0x2C0 JUMPI DUP2 SWAP1 POP JUMPDEST PUSH3 0x2D8 PUSH3 0x2CF DUP6 PUSH3 0x164 JUMP JUMPDEST DUP4 ADD DUP3 PUSH3 0x269 JUMP JUMPDEST POP POP JUMPDEST POP POP POP JUMP JUMPDEST PUSH1 0x0 DUP3 DUP3 SHR SWAP1 POP SWAP3 SWAP2 POP POP JUMP JUMPDEST PUSH1 0x0 PUSH3 0x300 PUSH1 0x0 NOT DUP5 PUSH1 0x8 MUL PUSH3 0x2E0 JUMP JUMPDEST NOT DUP1 DUP4 AND SWAP2 POP POP SWAP3 SWAP2 POP POP JUMP JUMPDEST PUSH1 0x0 PUSH3 0x31B DUP4 DUP4 PUSH3 0x2ED JUMP JUMPDEST SWAP2 POP DUP3 PUSH1 0x2 MUL DUP3 OR SWAP1 POP SWAP3 SWAP2 POP POP JUMP JUMPDEST PUSH3 0x336 DUP3 PUSH3 0xB1 JUMP JUMPDEST PUSH8 0xFFFFFFFFFFFFFFFF DUP2 GT ISZERO PUSH3 0x352 JUMPI PUSH3 0x351 PUSH3 0xBC JUMP JUMPDEST JUMPDEST PUSH3 0x35E DUP3 SLOAD PUSH3 0x11A JUMP JUMPDEST PUSH3 0x36B DUP3 DUP3 DUP6 PUSH3 0x290 JUMP JUMPDEST PUSH1 0x0 PUSH1 0x20 SWAP1 POP PUSH1 0x1F DUP4 GT PUSH1 0x1 DUP2 EQ PUSH3 0x3A3 JUMPI PUSH1 0x0 DUP5 ISZERO PUSH3 0x38E JUMPI DUP3 DUP8 ADD MLOAD SWAP1 POP JUMPDEST PUSH3 0x39A DUP6 DUP3 PUSH3 0x30D JUMP JUMPDEST DUP7 SSTORE POP PUSH3 0x40A JUMP JUMPDEST PUSH1 0x1F NOT DUP5 AND PUSH3 0x3B3 DUP7 PUSH3 0x14F JUMP JUMPDEST PUSH1 0x0 JUMPDEST DUP3 DUP2 LT ISZERO PUSH3 0x3DD JUMPI DUP5 DUP10 ADD MLOAD DUP3 SSTORE PUSH1 0x1 DUP3 ADD SWAP2 POP PUSH1 0x20 DUP6 ADD SWAP5 POP PUSH1 0x20 DUP2 ADD SWAP1 POP PUSH3 0x3B6 JUMP JUMPDEST DUP7 DUP4 LT ISZERO PUSH3 0x3FD JUMPI DUP5 DUP10 ADD MLOAD PUSH3 0x3F9 PUSH1 0x1F DUP10 AND DUP3 PUSH3 0x2ED JUMP JUMPDEST DUP4 SSTORE POP JUMPDEST PUSH1 0x1 PUSH1 0x2 DUP9 MUL ADD DUP9 SSTORE POP POP POP JUMPDEST POP POP POP POP POP POP JUMP JUMPDEST PUSH2 0x4E9 DUP1 PUSH3 0x422 PUSH1 0x0 CODECOPY PUSH1 0x0 RETURN INVALID PUSH1 0x80 PUSH1 0x40 MSTORE CALLVALUE DUP1 ISZERO PUSH2 0x10 JUMPI PUSH1 0x0 DUP1 REVERT JUMPDEST POP PUSH1 0x4 CALLDATASIZE LT PUSH2 0x7D JUMPI PUSH1 0x0 CALLDATALOAD PUSH1 0xE0 SHR DUP1 PUSH4 0x6C02A931 GT PUSH2 0x5B JUMPI DUP1 PUSH4 0x6C02A931 EQ PUSH2 0xDC JUMPI DUP1 PUSH4 0x811C34D3 EQ PUSH2 0xFA JUMPI DUP1 PUSH4 0x95D89B41 EQ PUSH2 0x104 JUMPI DUP1 PUSH4 0xBEABACC8 EQ PUSH2 0x122 JUMPI PUSH2 0x7D JUMP JUMPDEST DUP1 PUSH4 0x19D37E4A EQ PUSH2 0x82 JUMPI DUP1 PUSH4 0x2AEFC8D2 EQ PUSH2 0xA0 JUMPI DUP1 PUSH4 0x313CE567 EQ PUSH2 0xBE JUMPI JUMPDEST PUSH1 0x0 DUP1 REVERT JUMPDEST PUSH2 0x8A PUSH2 0x152 JUMP JUMPDEST PUSH1 0x40 MLOAD PUSH2 0x97 SWAP2 SWAP1 PUSH2 0x2A4 JUMP JUMPDEST PUSH1 0x40 MLOAD DUP1 SWAP2 SUB SWAP1 RETURN JUMPDEST PUSH2 0xA8 PUSH2 0x158 JUMP JUMPDEST PUSH1 0x40 MLOAD PUSH2 0xB5 SWAP2 SWAP1 PUSH2 0x2A4 JUMP JUMPDEST PUSH1 0x40 MLOAD DUP1 SWAP2 SUB SWAP1 RETURN JUMPDEST PUSH2 0xC6 PUSH2 0x15E JUMP JUMPDEST PUSH1 0x40 MLOAD PUSH2 0xD3 SWAP2 SWAP1 PUSH2 0x2A4 JUMP JUMPDEST PUSH1 0x40 MLOAD DUP1 SWAP2 SUB SWAP1 RETURN JUMPDEST PUSH2 0xE4 PUSH2 0x164 JUMP JUMPDEST PUSH1 0x40 MLOAD PUSH2 0xF1 SWAP2 SWAP1 PUSH2 0x34F JUMP JUMPDEST PUSH1 0x40 MLOAD DUP1 SWAP2 SUB SWAP1 RETURN JUMPDEST PUSH2 0x102 PUSH2 0x1F2 JUMP JUMPDEST STOP JUMPDEST PUSH2 0x10C PUSH2 0x1F4 JUMP JUMPDEST PUSH1 0x40 MLOAD PUSH2 0x119 SWAP2 SWAP1 PUSH2 0x34F JUMP JUMPDEST PUSH1 0x40 MLOAD DUP1 SWAP2 SUB SWAP1 RETURN JUMPDEST PUSH2 0x13C PUSH1 0x4 DUP1 CALLDATASIZE SUB DUP2 ADD SWAP1 PUSH2 0x137 SWAP2 SWAP1 PUSH2 0x400 JUMP JUMPDEST PUSH2 0x282 JUMP JUMPDEST PUSH1 0x40 MLOAD PUSH2 0x149 SWAP2 SWAP1 PUSH2 0x2A4 JUMP JUMPDEST PUSH1 0x40 MLOAD DUP1 SWAP2 SUB SWAP1 RETURN JUMPDEST PUSH1 0x4 SLOAD DUP2 JUMP JUMPDEST PUSH1 0x0 SLOAD DUP2 JUMP JUMPDEST PUSH1 0x3 SLOAD DUP2 JUMP JUMPDEST PUSH1 0x1 DUP1 SLOAD PUSH2 0x171 SWAP1 PUSH2 0x482 JUMP JUMPDEST DUP1 PUSH1 0x1F ADD PUSH1 0x20 DUP1 SWAP2 DIV MUL PUSH1 0x20 ADD PUSH1 0x40 MLOAD SWAP1 DUP2 ADD PUSH1 0x40 MSTORE DUP1 SWAP3 SWAP2 SWAP1 DUP2 DUP2 MSTORE PUSH1 0x20 ADD DUP3 DUP1 SLOAD PUSH2 0x19D SWAP1 PUSH2 0x482 JUMP JUMPDEST DUP1 ISZERO PUSH2 0x1EA JUMPI DUP1 PUSH1 0x1F LT PUSH2 0x1BF JUMPI PUSH2 0x100 DUP1 DUP4 SLOAD DIV MUL DUP4 MSTORE SWAP2 PUSH1 0x20 ADD SWAP2 PUSH2 0x1EA JUMP JUMPDEST DUP3 ADD SWAP2 SWAP1 PUSH1 0x0 MSTORE PUSH1 0x20 PUSH1 0x0 KECCAK256 SWAP1 JUMPDEST DUP2 SLOAD DUP2 MSTORE SWAP1 PUSH1 0x1 ADD SWAP1 PUSH1 0x20 ADD DUP1 DUP4 GT PUSH2 0x1CD JUMPI DUP3 SWAP1 SUB PUSH1 0x1F AND DUP3 ADD SWAP2 JUMPDEST POP POP POP POP POP DUP2 JUMP JUMPDEST JUMP JUMPDEST PUSH1 0x2 DUP1 SLOAD PUSH2 0x201 SWAP1 PUSH2 0x482 JUMP JUMPDEST DUP1 PUSH1 0x1F ADD PUSH1 0x20 DUP1 SWAP2 DIV MUL PUSH1 0x20 ADD PUSH1 0x40 MLOAD SWAP1 DUP2 ADD PUSH1 0x40 MSTORE DUP1 SWAP3 SWAP2 SWAP1 DUP2 DUP2 MSTORE PUSH1 0x20 ADD DUP3 DUP1 SLOAD PUSH2 0x22D SWAP1 PUSH2 0x482 JUMP JUMPDEST DUP1 ISZERO PUSH2 0x27A JUMPI DUP1 PUSH1 0x1F LT PUSH2 0x24F JUMPI PUSH2 0x100 DUP1 DUP4 SLOAD DIV MUL DUP4 MSTORE SWAP2 PUSH1 0x20 ADD SWAP2 PUSH2 0x27A JUMP JUMPDEST DUP3 ADD SWAP2 SWAP1 PUSH1 0x0 MSTORE PUSH1 0x20 PUSH1 0x0 KECCAK256 SWAP1 JUMPDEST DUP2 SLOAD DUP2 MSTORE SWAP1 PUSH1 0x1 ADD SWAP1 PUSH1 0x20 ADD DUP1 DUP4 GT PUSH2 0x25D JUMPI DUP3 SWAP1 SUB PUSH1 0x1F AND DUP3 ADD SWAP2 JUMPDEST POP POP POP POP POP DUP2 JUMP JUMPDEST PUSH1 0x0 SWAP4 SWAP3 POP POP POP JUMP JUMPDEST PUSH1 0x0 DUP2 SWAP1 POP SWAP2 SWAP1 POP JUMP JUMPDEST PUSH2 0x29E DUP2 PUSH2 0x28B JUMP JUMPDEST DUP3 MSTORE POP POP JUMP JUMPDEST PUSH1 0x0 PUSH1 0x20 DUP3 ADD SWAP1 POP PUSH2 0x2B9 PUSH1 0x0 DUP4 ADD DUP5 PUSH2 0x295 JUMP JUMPDEST SWAP3 SWAP2 POP POP JUMP JUMPDEST PUSH1 0x0 DUP2 MLOAD SWAP1 POP SWAP2 SWAP1 POP JUMP JUMPDEST PUSH1 0x0 DUP3 DUP3 MSTORE PUSH1 0x20 DUP3 ADD SWAP1 POP SWAP3 SWAP2 POP POP JUMP JUMPDEST PUSH1 0x0 JUMPDEST DUP4 DUP2 LT ISZERO PUSH2 0x2F9 JUMPI DUP1 DUP3 ADD MLOAD DUP2 DUP5 ADD MSTORE PUSH1 0x20 DUP2 ADD SWAP1 POP PUSH2 0x2DE JUMP JUMPDEST PUSH1 0x0 DUP5 DUP5 ADD MSTORE POP POP POP POP JUMP JUMPDEST PUSH1 0x0 PUSH1 0x1F NOT PUSH1 0x1F DUP4 ADD AND SWAP1 POP SWAP2 SWAP1 POP JUMP JUMPDEST PUSH1 0x0 PUSH2 0x321 DUP3 PUSH2 0x2BF JUMP JUMPDEST PUSH2 0x32B DUP2 DUP6 PUSH2 0x2CA JUMP JUMPDEST SWAP4 POP PUSH2 0x33B DUP2 DUP6 PUSH1 0x20 DUP7 ADD PUSH2 0x2DB JUMP JUMPDEST PUSH2 0x344 DUP2 PUSH2 0x305 JUMP JUMPDEST DUP5 ADD SWAP2 POP POP SWAP3 SWAP2 POP POP JUMP JUMPDEST PUSH1 0x0 PUSH1 0x20 DUP3 ADD SWAP1 POP DUP2 DUP2 SUB PUSH1 0x0 DUP4 ADD MSTORE PUSH2 0x369 DUP2 DUP5 PUSH2 0x316 JUMP JUMPDEST SWAP1 POP SWAP3 SWAP2 POP POP JUMP JUMPDEST PUSH1 0x0 DUP1 REVERT JUMPDEST PUSH1 0x0 PUSH20 0xFFFFFFFFFFFFFFFFFFFFFFFFFFFFFFFFFFFFFFFF DUP3 AND SWAP1 POP SWAP2 SWAP1 POP JUMP JUMPDEST PUSH1 0x0 PUSH2 0x3A1 DUP3 PUSH2 0x376 JUMP JUMPDEST SWAP1 POP SWAP2 SWAP1 POP JUMP JUMPDEST PUSH2 0x3B1 DUP2 PUSH2 0x396 JUMP JUMPDEST DUP2 EQ PUSH2 0x3BC JUMPI PUSH1 0x0 DUP1 REVERT JUMPDEST POP JUMP JUMPDEST PUSH1 0x0 DUP2 CALLDATALOAD SWAP1 POP PUSH2 0x3CE DUP2 PUSH2 0x3A8 JUMP JUMPDEST SWAP3 SWAP2 POP POP JUMP JUMPDEST PUSH2 0x3DD DUP2 PUSH2 0x28B JUMP JUMPDEST DUP2 EQ PUSH2 0x3E8 JUMPI PUSH1 0x0 DUP1 REVERT JUMPDEST POP JUMP JUMPDEST PUSH1 0x0 DUP2 CALLDATALOAD SWAP1 POP PUSH2 0x3FA DUP2 PUSH2 0x3D4 JUMP JUMPDEST SWAP3 SWAP2 POP POP JUMP JUMPDEST PUSH1 0x0 DUP1 PUSH1 0x0 PUSH1 0x60 DUP5 DUP7 SUB SLT ISZERO PUSH2 0x419 JUMPI PUSH2 0x418 PUSH2 0x371 JUMP JUMPDEST JUMPDEST PUSH1 0x0 PUSH2 0x427 DUP7 DUP3 DUP8 ADD PUSH2 0x3BF JUMP JUMPDEST SWAP4 POP POP PUSH1 0x20 PUSH2 0x438 DUP7 DUP3 DUP8 ADD PUSH2 0x3BF JUMP JUMPDEST SWAP3 POP POP PUSH1 0x40 PUSH2 0x449 DUP7 DUP3 DUP8 ADD PUSH2 0x3EB JUMP JUMPDEST SWAP2 POP POP SWAP3 POP SWAP3 POP SWAP3 JUMP JUMPDEST PUSH32 0x4E487B7100000000000000000000000000000000000000000000000000000000 PUSH1 0x0 MSTORE PUSH1 0x22 PUSH1 0x4 MSTORE PUSH1 0x24 PUSH1 0x0 REVERT JUMPDEST PUSH1 0x0 PUSH1 0x2 DUP3 DIV SWAP1 POP PUSH1 0x1 DUP3 AND DUP1 PUSH2 0x49A JUMPI PUSH1 0x7F DUP3 AND SWAP2 POP JUMPDEST PUSH1 0x20 DUP3 LT DUP2 SUB PUSH2 0x4AD JUMPI PUSH2 0x4AC PUSH2 0x453 JUMP JUMPDEST JUMPDEST POP SWAP2 SWAP1 POP JUMP INVALID LOG2 PUSH5 0x6970667358 0x22 SLT KECCAK256 SWAP12 CODESIZE 0x5D 0x5C SGT 0xB6 CALLDATACOPY MOD 0xE0 0x49 0xD8 SAR 0x4D 0xDC MUL 0xF 0x5D DELEGATECALL LOG1 BALANCE SELFDESTRUCT 0xAA 0xD0 TIMESTAMP CALLDATALOAD INVALID 0xD7 0xF9 0x5E ADD 0xEA 0xD1 PUSH5 0x736F6C6343 STOP ADDMOD SLT STOP CALLER "
		},
		"gasEstimates": {
			"creation": {
				"codeDepositCost": "251400",
				"executionCost": "infinite",
				"totalCost": "infinite"
			},
			"external": {
				"balancesOf()": "2430",
				"decimals()": "2474",
				"symbol()": "infinite",
				"tokenName()": "infinite",
				"totatSupply()": "2452",
				"transfer(address,address,uint256)": "infinite",
				"transferFrom()": "166"
			}
		},
		"methodIdentifiers": {
			"balancesOf()": "19d37e4a",
			"decimals()": "313ce567",
			"symbol()": "95d89b41",
			"tokenName()": "6c02a931",
			"totatSupply()": "2aefc8d2",
			"transfer(address,address,uint256)": "beabacc8",
			"transferFrom()": "811c34d3"
		}
	},
	"abi": [
		{
			"inputs": [],
			"name": "balancesOf",
			"outputs": [
				{
					"internalType": "uint256",
					"name": "",
					"type": "uint256"
				}
			],
			"stateMutability": "view",
			"type": "function"
		},
		{
			"inputs": [],
			"name": "decimals",
			"outputs": [
				{
					"internalType": "uint256",
					"name": "",
					"type": "uint256"
				}
			],
			"stateMutability": "view",
			"type": "function"
		},
		{
			"inputs": [],
			"name": "symbol",
			"outputs": [
				{
					"internalType": "string",
					"name": "",
					"type": "string"
				}
			],
			"stateMutability": "view",
			"type": "function"
		},
		{
			"inputs": [],
			"name": "tokenName",
			"outputs": [
				{
					"internalType": "string",
					"name": "",
					"type": "string"
				}
			],
			"stateMutability": "view",
			"type": "function"
		},
		{
			"inputs": [],
			"name": "totatSupply",
			"outputs": [
				{
					"internalType": "uint256",
					"name": "",
					"type": "uint256"
				}
			],
			"stateMutability": "view",
			"type": "function"
		},
		{
			"inputs": [
				{
					"internalType": "address",
					"name": "_sender",
					"type": "address"
				},
				{
					"internalType": "address",
					"name": "_reciever",
					"type": "address"
				},
				{
					"internalType": "uint256",
					"name": "_amount",
					"type": "uint256"
				}
			],
			"name": "transfer",
			"outputs": [
				{
					"internalType": "uint256",
					"name": "",
					"type": "uint256"
				}
			],
			"stateMutability": "view",
			"type": "function"
		},
		{
			"inputs": [],
			"name": "transferFrom",
			"outputs": [],
			"stateMutability": "view",
			"type": "function"
		}
	]
}