{
	"data": {
		"bytecode": {
			"linkReferences": {},
			"object": "6080604052600a600055601460015534801561001a57600080fd5b506101ce8061002a6000396000f3fe608060405234801561001057600080fd5b50600436106100365760003560e01c8063c6e53f711461003b578063d1dd942814610059575b600080fd5b610043610077565b60405161005091906100e6565b60405180910390f35b61006161008c565b60405161006e91906100e6565b60405180910390f35b60006100876000546001546100a1565b905090565b600061009c6001546000546100b7565b905090565b600081836100af9190610130565b905092915050565b600081836100c59190610164565b905092915050565b6000819050919050565b6100e0816100cd565b82525050565b60006020820190506100fb60008301846100d7565b92915050565b7f4e487b7100000000000000000000000000000000000000000000000000000000600052601160045260246000fd5b600061013b826100cd565b9150610146836100cd565b925082820190508082111561015e5761015d610101565b5b92915050565b600061016f826100cd565b915061017a836100cd565b925082820390508181111561019257610191610101565b5b9291505056fea2646970667358221220474dbf9d4217c03c431ab4ee8ba0ec6da88765d2bca3ea244da87d77865ec51064736f6c63430008120033",
			"opcodes": "PUSH1 0x80 PUSH1 0x40 MSTORE PUSH1 0xA PUSH1 0x0 SSTORE PUSH1 0x14 PUSH1 0x1 SSTORE CALLVALUE DUP1 ISZERO PUSH2 0x1A JUMPI PUSH1 0x0 DUP1 REVERT JUMPDEST POP PUSH2 0x1CE DUP1 PUSH2 0x2A PUSH1 0x0 CODECOPY PUSH1 0x0 RETURN INVALID PUSH1 0x80 PUSH1 0x40 MSTORE CALLVALUE DUP1 ISZERO PUSH2 0x10 JUMPI PUSH1 0x0 DUP1 REVERT JUMPDEST POP PUSH1 0x4 CALLDATASIZE LT PUSH2 0x36 JUMPI PUSH1 0x0 CALLDATALOAD PUSH1 0xE0 SHR DUP1 PUSH4 0xC6E53F71 EQ PUSH2 0x3B JUMPI DUP1 PUSH4 0xD1DD9428 EQ PUSH2 0x59 JUMPI JUMPDEST PUSH1 0x0 DUP1 REVERT JUMPDEST PUSH2 0x43 PUSH2 0x77 JUMP JUMPDEST PUSH1 0x40 MLOAD PUSH2 0x50 SWAP2 SWAP1 PUSH2 0xE6 JUMP JUMPDEST PUSH1 0x40 MLOAD DUP1 SWAP2 SUB SWAP1 RETURN JUMPDEST PUSH2 0x61 PUSH2 0x8C JUMP JUMPDEST PUSH1 0x40 MLOAD PUSH2 0x6E SWAP2 SWAP1 PUSH2 0xE6 JUMP JUMPDEST PUSH1 0x40 MLOAD DUP1 SWAP2 SUB SWAP1 RETURN JUMPDEST PUSH1 0x0 PUSH2 0x87 PUSH1 0x0 SLOAD PUSH1 0x1 SLOAD PUSH2 0xA1 JUMP JUMPDEST SWAP1 POP SWAP1 JUMP JUMPDEST PUSH1 0x0 PUSH2 0x9C PUSH1 0x1 SLOAD PUSH1 0x0 SLOAD PUSH2 0xB7 JUMP JUMPDEST SWAP1 POP SWAP1 JUMP JUMPDEST PUSH1 0x0 DUP2 DUP4 PUSH2 0xAF SWAP2 SWAP1 PUSH2 0x130 JUMP JUMPDEST SWAP1 POP SWAP3 SWAP2 POP POP JUMP JUMPDEST PUSH1 0x0 DUP2 DUP4 PUSH2 0xC5 SWAP2 SWAP1 PUSH2 0x164 JUMP JUMPDEST SWAP1 POP SWAP3 SWAP2 POP POP JUMP JUMPDEST PUSH1 0x0 DUP2 SWAP1 POP SWAP2 SWAP1 POP JUMP JUMPDEST PUSH2 0xE0 DUP2 PUSH2 0xCD JUMP JUMPDEST DUP3 MSTORE POP POP JUMP JUMPDEST PUSH1 0x0 PUSH1 0x20 DUP3 ADD SWAP1 POP PUSH2 0xFB PUSH1 0x0 DUP4 ADD DUP5 PUSH2 0xD7 JUMP JUMPDEST SWAP3 SWAP2 POP POP JUMP JUMPDEST PUSH32 0x4E487B7100000000000000000000000000000000000000000000000000000000 PUSH1 0x0 MSTORE PUSH1 0x11 PUSH1 0x4 MSTORE PUSH1 0x24 PUSH1 0x0 REVERT JUMPDEST PUSH1 0x0 PUSH2 0x13B DUP3 PUSH2 0xCD JUMP JUMPDEST SWAP2 POP PUSH2 0x146 DUP4 PUSH2 0xCD JUMP JUMPDEST SWAP3 POP DUP3 DUP3 ADD SWAP1 POP DUP1 DUP3 GT ISZERO PUSH2 0x15E JUMPI PUSH2 0x15D PUSH2 0x101 JUMP JUMPDEST JUMPDEST SWAP3 SWAP2 POP POP JUMP JUMPDEST PUSH1 0x0 PUSH2 0x16F DUP3 PUSH2 0xCD JUMP JUMPDEST SWAP2 POP PUSH2 0x17A DUP4 PUSH2 0xCD JUMP JUMPDEST SWAP3 POP DUP3 DUP3 SUB SWAP1 POP DUP2 DUP2 GT ISZERO PUSH2 0x192 JUMPI PUSH2 0x191 PUSH2 0x101 JUMP JUMPDEST JUMPDEST SWAP3 SWAP2 POP POP JUMP INVALID LOG2 PUSH5 0x6970667358 0x22 SLT KECCAK256 SELFBALANCE 0x4D 0xBF SWAP14 TIMESTAMP OR 0xC0 EXTCODECOPY NUMBER BYTE 0xB4 0xEE DUP12 LOG0 0xEC PUSH14 0xA88765D2BCA3EA244DA87D77865E 0xC5 LT PUSH5 0x736F6C6343 STOP ADDMOD SLT STOP CALLER "
		},
		"gasEstimates": {
			"creation": {
				"codeDepositCost": "92400",
				"executionCost": "44353",
				"totalCost": "136753"
			},
			"external": {
				"addnumber()": "infinite",
				"subnumber()": "infinite"
			}
		},
		"methodIdentifiers": {
			"addnumber()": "c6e53f71",
			"subnumber()": "d1dd9428"
		}
	},
	"abi": [
		{
			"inputs": [],
			"name": "addnumber",
			"outputs": [
				{
					"internalType": "uint256",
					"name": "",
					"type": "uint256"
				}
			],
			"stateMutability": "view",
			"type": "function"
		},
		{
			"inputs": [],
			"name": "subnumber",
			"outputs": [
				{
					"internalType": "uint256",
					"name": "",
					"type": "uint256"
				}
			],
			"stateMutability": "view",
			"type": "function"
		}
	]
}